Archive member included to satisfy reference by file (symbol)

/home/thannt/workspace/tools/gcc-arm-none-eabi-5_4-2016q3/arm-none-eabi/lib/armv7-m/libc.a(lib_a-malloc.o)
                              build_ac_boot_stm32f10x/mini_cpp.o (malloc)
/home/thannt/workspace/tools/gcc-arm-none-eabi-5_4-2016q3/arm-none-eabi/lib/armv7-m/libc.a(lib_a-mallocr.o)
                              /home/thannt/workspace/tools/gcc-arm-none-eabi-5_4-2016q3/arm-none-eabi/lib/armv7-m/libc.a(lib_a-malloc.o) (_malloc_r)
/home/thannt/workspace/tools/gcc-arm-none-eabi-5_4-2016q3/arm-none-eabi/lib/armv7-m/libc.a(lib_a-mlock.o)
                              /home/thannt/workspace/tools/gcc-arm-none-eabi-5_4-2016q3/arm-none-eabi/lib/armv7-m/libc.a(lib_a-mallocr.o) (__malloc_lock)
/home/thannt/workspace/tools/gcc-arm-none-eabi-5_4-2016q3/arm-none-eabi/lib/armv7-m/libc.a(lib_a-sbrkr.o)
                              /home/thannt/workspace/tools/gcc-arm-none-eabi-5_4-2016q3/arm-none-eabi/lib/armv7-m/libc.a(lib_a-mallocr.o) (_sbrk_r)
/home/thannt/workspace/tools/gcc-arm-none-eabi-5_4-2016q3/arm-none-eabi/lib/armv7-m/libc.a(lib_a-strlen-stub.o)
                              build_ac_boot_stm32f10x/Print.o (strlen)
/home/thannt/workspace/tools/gcc-arm-none-eabi-5_4-2016q3/arm-none-eabi/lib/armv7-m/libc.a(lib_a-freer.o)
                              /home/thannt/workspace/tools/gcc-arm-none-eabi-5_4-2016q3/arm-none-eabi/lib/armv7-m/libc.a(lib_a-malloc.o) (_free_r)
/home/thannt/workspace/tools/gcc-arm-none-eabi-5_4-2016q3/arm-none-eabi/lib/armv7-m/libc.a(lib_a-impure.o)
                              /home/thannt/workspace/tools/gcc-arm-none-eabi-5_4-2016q3/arm-none-eabi/lib/armv7-m/libc.a(lib_a-malloc.o) (_impure_ptr)
/home/thannt/workspace/tools/gcc-arm-none-eabi-5_4-2016q3/arm-none-eabi/lib/armv7-m/libc.a(lib_a-reent.o)
                              /home/thannt/workspace/tools/gcc-arm-none-eabi-5_4-2016q3/arm-none-eabi/lib/armv7-m/libc.a(lib_a-sbrkr.o) (errno)
/home/thannt/workspace/tools/gcc-arm-none-eabi-5_4-2016q3/lib/gcc/arm-none-eabi/5.4.1/armv7-m/libgcc.a(_arm_addsubdf3.o)
                              build_ac_boot_stm32f10x/Print.o (__aeabi_dsub)
/home/thannt/workspace/tools/gcc-arm-none-eabi-5_4-2016q3/lib/gcc/arm-none-eabi/5.4.1/armv7-m/libgcc.a(_arm_muldivdf3.o)
                              build_ac_boot_stm32f10x/Print.o (__aeabi_dmul)
/home/thannt/workspace/tools/gcc-arm-none-eabi-5_4-2016q3/lib/gcc/arm-none-eabi/5.4.1/armv7-m/libgcc.a(_arm_cmpdf2.o)
                              build_ac_boot_stm32f10x/Print.o (__aeabi_dcmplt)
/home/thannt/workspace/tools/gcc-arm-none-eabi-5_4-2016q3/lib/gcc/arm-none-eabi/5.4.1/armv7-m/libgcc.a(_arm_unorddf2.o)
                              build_ac_boot_stm32f10x/Print.o (__aeabi_dcmpun)
/home/thannt/workspace/tools/gcc-arm-none-eabi-5_4-2016q3/lib/gcc/arm-none-eabi/5.4.1/armv7-m/libgcc.a(_arm_fixdfsi.o)
                              build_ac_boot_stm32f10x/Print.o (__aeabi_d2iz)
/home/thannt/workspace/tools/gcc-arm-none-eabi-5_4-2016q3/lib/gcc/arm-none-eabi/5.4.1/armv7-m/libgcc.a(_arm_fixunsdfsi.o)
                              build_ac_boot_stm32f10x/Print.o (__aeabi_d2uiz)

Allocating common symbols
Common symbol       size              file

errno               0x4               /home/thannt/workspace/tools/gcc-arm-none-eabi-5_4-2016q3/arm-none-eabi/lib/armv7-m/libc.a(lib_a-reent.o)
system_info         0x20              build_ac_boot_stm32f10x/system.o
xfunc_out           0x4               build_ac_boot_stm32f10x/xprintf.o

Discarded input sections

 .text          0x00000000        0x0 build_ac_boot_stm32f10x/utils.o
 .data          0x00000000        0x0 build_ac_boot_stm32f10x/utils.o
 .bss           0x00000000        0x0 build_ac_boot_stm32f10x/utils.o
 .text.str_len  0x00000000       0x10 build_ac_boot_stm32f10x/utils.o
 .text.itoa     0x00000000       0x6e build_ac_boot_stm32f10x/utils.o
 .text.mem_set  0x00000000       0x12 build_ac_boot_stm32f10x/utils.o
 .text.mem_cpy  0x00000000       0x14 build_ac_boot_stm32f10x/utils.o
 .text.mem_read
                0x00000000       0x16 build_ac_boot_stm32f10x/utils.o
 .text.mem_write
                0x00000000       0x16 build_ac_boot_stm32f10x/utils.o
 .text.str_cmp  0x00000000       0x28 build_ac_boot_stm32f10x/utils.o
 .text.str_cpy  0x00000000       0x26 build_ac_boot_stm32f10x/utils.o
 .debug_info    0x00000000      0x400 build_ac_boot_stm32f10x/utils.o
 .debug_abbrev  0x00000000      0x11b build_ac_boot_stm32f10x/utils.o
 .debug_loc     0x00000000      0x631 build_ac_boot_stm32f10x/utils.o
 .debug_aranges
                0x00000000       0x58 build_ac_boot_stm32f10x/utils.o
Memory Configuration

Name             Origin             Length             Attributes
FLASH            0x08000000         0x00002000         xr
SRAM             0x20000000         0x00005000         xrw
*default*        0x00000000         0xffffffff

Linker script and memory map

                0x00000400                HEAP_SIZE = 0x400

.start_flash    0x08000000        0x0
                0x08000000                _start_flash = .

.isr_vector     0x08000000       0xec
 *(.isr_vector)
 .isr_vector    0x08000000       0xec build_ac_boot_stm32f10x/system.o
                0x08000000                isr_vector
                0x080000ec                . = ALIGN (0x4)

.text           0x080000ec     0x1160
                0x080000ec                . = ALIGN (0x4)
 *(.text)
 *(.text*)
 .text.xputc    0x080000ec       0x24 build_ac_boot_stm32f10x/xprintf.o
                0x080000ec                xputc
 .text.xprintf  0x08000110      0x122 build_ac_boot_stm32f10x/xprintf.o
                0x08000110                xprintf
 .text.led_init
                0x08000232       0x20 build_ac_boot_stm32f10x/led.o
                0x08000232                led_init
 .text.led_on   0x08000252        0xc build_ac_boot_stm32f10x/led.o
                0x08000252                led_on
 .text.led_off  0x0800025e        0xc build_ac_boot_stm32f10x/led.o
                0x0800025e                led_off
 .text.led_blink_set
                0x0800026a       0x18 build_ac_boot_stm32f10x/led.o
                0x0800026a                led_blink_set
 .text.led_blink_reset
                0x08000282       0x14 build_ac_boot_stm32f10x/led.o
                0x08000282                led_blink_reset
 .text.led_blink_polling
                0x08000296       0x32 build_ac_boot_stm32f10x/led.o
                0x08000296                led_blink_polling
 .text.flash_wait_to_idle
                0x080002c8       0x3c build_ac_boot_stm32f10x/flash.o
 .text.flash_set_write_enable.constprop.0
                0x08000304       0x1a build_ac_boot_stm32f10x/flash.o
 .text.flash_read
                0x0800031e       0x4a build_ac_boot_stm32f10x/flash.o
                0x0800031e                flash_read
 .text.flash_write
                0x08000368       0x62 build_ac_boot_stm32f10x/flash.o
                0x08000368                flash_write
 .text.flash_erase_sector
                0x080003ca       0x48 build_ac_boot_stm32f10x/flash.o
                0x080003ca                flash_erase_sector
 .text.sys_dbg_fatal
                0x08000412        0x2 build_ac_boot_stm32f10x/sys_dbg.o
                0x08000412                sys_dbg_fatal
 .text.SystemInit
                0x08000414       0xf0 build_ac_boot_stm32f10x/system_stm32f10x.o
                0x08000414                SystemInit
 .text.SystemCoreClockUpdate
                0x08000504       0x5c build_ac_boot_stm32f10x/system_stm32f10x.o
                0x08000504                SystemCoreClockUpdate
 .text.GPIO_Init
                0x08000560       0xa4 build_ac_boot_stm32f10x/stm32f10x_gpio.o
                0x08000560                GPIO_Init
 .text.GPIO_SetBits
                0x08000604        0x4 build_ac_boot_stm32f10x/stm32f10x_gpio.o
                0x08000604                GPIO_SetBits
 .text.GPIO_ResetBits
                0x08000608        0x4 build_ac_boot_stm32f10x/stm32f10x_gpio.o
                0x08000608                GPIO_ResetBits
 .text.GPIO_PinRemapConfig
                0x0800060c       0x60 build_ac_boot_stm32f10x/stm32f10x_gpio.o
                0x0800060c                GPIO_PinRemapConfig
 .text.RCC_HSICmd
                0x0800066c        0xc build_ac_boot_stm32f10x/stm32f10x_rcc.o
                0x0800066c                RCC_HSICmd
 .text.RCC_GetClocksFreq
                0x08000678       0x88 build_ac_boot_stm32f10x/stm32f10x_rcc.o
                0x08000678                RCC_GetClocksFreq
 .text.RCC_APB2PeriphClockCmd
                0x08000700       0x18 build_ac_boot_stm32f10x/stm32f10x_rcc.o
                0x08000700                RCC_APB2PeriphClockCmd
 .text.RCC_GetFlagStatus
                0x08000718       0x28 build_ac_boot_stm32f10x/stm32f10x_rcc.o
                0x08000718                RCC_GetFlagStatus
 .text.USART_Init
                0x08000740       0xa8 build_ac_boot_stm32f10x/stm32f10x_usart.o
                0x08000740                USART_Init
 .text.USART_Cmd
                0x080007e8       0x18 build_ac_boot_stm32f10x/stm32f10x_usart.o
                0x080007e8                USART_Cmd
 .text.USART_ITConfig
                0x08000800       0x30 build_ac_boot_stm32f10x/stm32f10x_usart.o
                0x08000800                USART_ITConfig
 .text.USART_SendData
                0x08000830        0x8 build_ac_boot_stm32f10x/stm32f10x_usart.o
                0x08000830                USART_SendData
 .text.USART_GetFlagStatus
                0x08000838        0xc build_ac_boot_stm32f10x/stm32f10x_usart.o
                0x08000838                USART_GetFlagStatus
 .text.USART_ClearITPendingBit
                0x08000844       0x10 build_ac_boot_stm32f10x/stm32f10x_usart.o
                0x08000844                USART_ClearITPendingBit
 .text.SPI_Init
                0x08000854       0x3e build_ac_boot_stm32f10x/stm32f10x_spi.o
                0x08000854                SPI_Init
 .text.SPI_Cmd  0x08000892       0x18 build_ac_boot_stm32f10x/stm32f10x_spi.o
                0x08000892                SPI_Cmd
 .text.SPI_I2S_SendData
                0x080008aa        0x4 build_ac_boot_stm32f10x/stm32f10x_spi.o
                0x080008aa                SPI_I2S_SendData
 .text.SPI_I2S_ReceiveData
                0x080008ae        0x6 build_ac_boot_stm32f10x/stm32f10x_spi.o
                0x080008ae                SPI_I2S_ReceiveData
 .text.SPI_I2S_GetFlagStatus
                0x080008b4        0xc build_ac_boot_stm32f10x/stm32f10x_spi.o
                0x080008b4                SPI_I2S_GetFlagStatus
 .text.NVIC_PriorityGroupConfig
                0x080008c0       0x14 build_ac_boot_stm32f10x/misc.o
                0x080008c0                NVIC_PriorityGroupConfig
 .text.NVIC_Init
                0x080008d4       0x6c build_ac_boot_stm32f10x/misc.o
                0x080008d4                NVIC_Init
 .text.FLASH_UnlockBank1
                0x08000940       0x18 build_ac_boot_stm32f10x/stm32f10x_flash.o
                0x08000940                FLASH_UnlockBank1
 .text.FLASH_Unlock
                0x08000958        0x4 build_ac_boot_stm32f10x/stm32f10x_flash.o
                0x08000958                FLASH_Unlock
 .text.FLASH_ClearFlag
                0x0800095c        0xc build_ac_boot_stm32f10x/stm32f10x_flash.o
                0x0800095c                FLASH_ClearFlag
 .text.FLASH_GetBank1Status
                0x08000968       0x28 build_ac_boot_stm32f10x/stm32f10x_flash.o
                0x08000968                FLASH_GetBank1Status
 .text.FLASH_WaitForLastBank1Operation
                0x08000990       0x22 build_ac_boot_stm32f10x/stm32f10x_flash.o
                0x08000990                FLASH_WaitForLastBank1Operation
 *fill*         0x080009b2        0x2 
 .text.FLASH_ProgramWord
                0x080009b4       0x54 build_ac_boot_stm32f10x/stm32f10x_flash.o
                0x080009b4                FLASH_ProgramWord
 .text.FLASH_ErasePage
                0x08000a08       0x3c build_ac_boot_stm32f10x/stm32f10x_flash.o
                0x08000a08                FLASH_ErasePage
 .text.disable_interrupts
                0x08000a44        0x4 build_ac_boot_stm32f10x/stm32.o
                0x08000a44                disable_interrupts
 .text.entry_critical
                0x08000a48       0x14 build_ac_boot_stm32f10x/stm32.o
                0x08000a48                entry_critical
 .text.exit_critical
                0x08000a5c       0x18 build_ac_boot_stm32f10x/stm32.o
                0x08000a5c                exit_critical
 .text.default_handler
                0x08000a74        0xc build_ac_boot_stm32f10x/system.o
                0x08000a74                svc_handler
                0x08000a74                default_handler
                0x08000a74                dg_monitor_handler
                0x08000a74                pendsv_handler
 .text.nmi_handler
                0x08000a80        0xc build_ac_boot_stm32f10x/system.o
                0x08000a80                nmi_handler
 .text.hard_fault_handler
                0x08000a8c        0xc build_ac_boot_stm32f10x/system.o
                0x08000a8c                hard_fault_handler
 .text.mem_manage_handler
                0x08000a98        0xc build_ac_boot_stm32f10x/system.o
                0x08000a98                mem_manage_handler
 .text.bus_fault_handler
                0x08000aa4        0xc build_ac_boot_stm32f10x/system.o
                0x08000aa4                bus_fault_handler
 .text.usage_fault_handler
                0x08000ab0        0xc build_ac_boot_stm32f10x/system.o
                0x08000ab0                usage_fault_handler
 .text.systick_handler
                0x08000abc       0x30 build_ac_boot_stm32f10x/system.o
                0x08000abc                systick_handler
 .text.sys_ctrl_delay
                0x08000aec        0x8 build_ac_boot_stm32f10x/system.o
                0x08000aec                sys_ctrl_delay
 .text.reset_handler
                0x08000af4       0xd0 build_ac_boot_stm32f10x/system.o
                0x08000af4                reset_handler
 .text._init    0x08000bc4        0x2 build_ac_boot_stm32f10x/system.o
                0x08000bc4                _init
 *fill*         0x08000bc6        0x2 
 .text.xputchar
                0x08000bc8       0x1c build_ac_boot_stm32f10x/sys_cfg.o
 .text.sys_cfg_clock
                0x08000be4       0x1a build_ac_boot_stm32f10x/sys_cfg.o
                0x08000be4                sys_cfg_clock
 *fill*         0x08000bfe        0x2 
 .text.sys_cfg_tick
                0x08000c00       0x38 build_ac_boot_stm32f10x/sys_cfg.o
                0x08000c00                sys_cfg_tick
 .text.sys_cfg_console
                0x08000c38       0xcc build_ac_boot_stm32f10x/sys_cfg.o
                0x08000c38                sys_cfg_console
 .text.sys_cfg_update_info
                0x08000d04       0x88 build_ac_boot_stm32f10x/sys_cfg.o
                0x08000d04                sys_cfg_update_info
 .text.sys_ctrl_reset
                0x08000d8c       0x20 build_ac_boot_stm32f10x/sys_cfg.o
                0x08000d8c                sys_ctrl_reset
 .text.sys_ctrl_delay_us
                0x08000dac       0x28 build_ac_boot_stm32f10x/sys_cfg.o
                0x08000dac                sys_ctrl_delay_us
 .text.sys_ctrl_delay_ms
                0x08000dd4       0x1a build_ac_boot_stm32f10x/sys_cfg.o
                0x08000dd4                sys_ctrl_delay_ms
 .text.sys_ctrl_independent_watchdog_init
                0x08000dee        0x2 build_ac_boot_stm32f10x/sys_cfg.o
                0x08000dee                sys_ctrl_independent_watchdog_init
 .text.sys_ctrl_independent_watchdog_reset
                0x08000df0        0x2 build_ac_boot_stm32f10x/sys_cfg.o
                0x08000df0                sys_ctrl_independent_watchdog_reset
 *fill*         0x08000df2        0x2 
 .text.led_life_init
                0x08000df4       0x30 build_ac_boot_stm32f10x/io_cfg.o
                0x08000df4                led_life_init
 .text.led_life_on
                0x08000e24       0x10 build_ac_boot_stm32f10x/io_cfg.o
                0x08000e24                led_life_on
 .text.led_life_off
                0x08000e34       0x10 build_ac_boot_stm32f10x/io_cfg.o
                0x08000e34                led_life_off
 .text.flash_io_ctrl_init
                0x08000e44       0x30 build_ac_boot_stm32f10x/io_cfg.o
                0x08000e44                flash_io_ctrl_init
 .text.flash_cs_low
                0x08000e74       0x10 build_ac_boot_stm32f10x/io_cfg.o
                0x08000e74                flash_cs_low
 .text.flash_cs_high
                0x08000e84       0x10 build_ac_boot_stm32f10x/io_cfg.o
                0x08000e84                flash_cs_high
 .text.flash_transfer
                0x08000e94       0x34 build_ac_boot_stm32f10x/io_cfg.o
                0x08000e94                flash_transfer
 .text._ZL19jump_to_applicationv
                0x08000ec8       0x30 build_ac_boot_stm32f10x/app.o
 .text.boot_main
                0x08000ef8      0x18c build_ac_boot_stm32f10x/app.o
                0x08000ef8                boot_main
 .text.sys_irq_timer_10ms
                0x08001084        0xc build_ac_boot_stm32f10x/app.o
                0x08001084                sys_irq_timer_10ms
 .text._ZN8SPIClass5beginEv
                0x08001090       0x9c build_ac_boot_stm32f10x/SPI.o
                0x08001090                SPIClass::begin()
 .text.startup._GLOBAL__sub_I__ZN8SPIClassC2Ev
                0x0800112c       0x10 build_ac_boot_stm32f10x/SPI.o
 *(.rodata)
 *(.rodata*)
 .rodata.str1.1
                0x0800113c        0x3 build_ac_boot_stm32f10x/system.o
 .rodata.str1.1
                0x0800113f      0x10b build_ac_boot_stm32f10x/app.o
 *(.glue_7)
 .glue_7        0x0800124a        0x0 linker stubs
 *(.glue_7t)
 .glue_7t       0x0800124a        0x0 linker stubs
 *(.init)
 *(.fini)
                0x0800124c                . = ALIGN (0x4)
 *fill*         0x0800124a        0x2 
                0x0800124c                _etext = .

.vfp11_veneer   0x0800124c        0x0
 .vfp11_veneer  0x0800124c        0x0 linker stubs

.v4_bx          0x0800124c        0x0
 .v4_bx         0x0800124c        0x0 linker stubs

.iplt           0x0800124c        0x0
 .iplt          0x0800124c        0x0 build_ac_boot_stm32f10x/utils.o

.rel.dyn        0x0800124c        0x0
 .rel.iplt      0x0800124c        0x0 build_ac_boot_stm32f10x/utils.o

.preinit_array  0x0800124c        0x0
                0x0800124c                PROVIDE (__preinit_array_start, .)
 *(SORT(.preinit_array.*))
 *(.preinit_array*)
                0x0800124c                PROVIDE (__preinit_array_end, .)

.init_array     0x0800124c        0x4
                0x0800124c                PROVIDE (__init_array_start, .)
 *(SORT(.init_array.*))
 *(.init_array*)
 .init_array    0x0800124c        0x4 build_ac_boot_stm32f10x/SPI.o
                0x08001250                PROVIDE (__init_array_end, .)

.fini_array     0x08001250        0x0
                [!provide]                PROVIDE (__fini_array_start, .)
 *(.fini_array*)
 *(SORT(.fini_array.*))
                [!provide]                PROVIDE (__fini_array_end, .)

.end_flash      0x08001250        0x0
                0x08001250                _end_flash = .

.start_ram      0x20000000        0x0
                0x20000000                _start_ram = .

.data           0x20000000       0x28 load address 0x08001250
                0x20000000                _data = .
                0x08001250                _ldata = LOADADDR (.data)
 *(vtable)
 *(.data)
 *(.data*)
 .data.AHBPrescTable
                0x20000000       0x10 build_ac_boot_stm32f10x/system_stm32f10x.o
                0x20000000                AHBPrescTable
 .data.SystemCoreClock
                0x20000010        0x4 build_ac_boot_stm32f10x/system_stm32f10x.o
                0x20000010                SystemCoreClock
 .data.ADCPrescTable
                0x20000014        0x4 build_ac_boot_stm32f10x/stm32f10x_rcc.o
 .data.APBAHBPrescTable
                0x20000018       0x10 build_ac_boot_stm32f10x/stm32f10x_rcc.o
                0x20000028                _edata = .

.igot.plt       0x20000028        0x0 load address 0x08001278
 .igot.plt      0x20000028        0x0 build_ac_boot_stm32f10x/utils.o

.bss            0x20000028       0x54 load address 0x08001278
                0x20000028                _bss = .
 *(.bss)
 *(.bss*)
 .bss.nest_entry_critical_counter
                0x20000028        0x1 build_ac_boot_stm32f10x/stm32.o
 *fill*         0x20000029        0x3 
 .bss.millis_current
                0x2000002c        0x4 build_ac_boot_stm32f10x/system.o
 .bss.div_counter.6691
                0x20000030        0x4 build_ac_boot_stm32f10x/system.o
 .bss.delay_coeficient
                0x20000034        0x4 build_ac_boot_stm32f10x/sys_cfg.o
 .bss.led_life  0x20000038       0x1c build_ac_boot_stm32f10x/app.o
                0x20000038                led_life
 .bss.SPI       0x20000054        0x2 build_ac_boot_stm32f10x/SPI.o
                0x20000054                SPI
 *(COMMON)
 *fill*         0x20000056        0x2 
 COMMON         0x20000058        0x4 build_ac_boot_stm32f10x/xprintf.o
                0x20000058                xfunc_out
 COMMON         0x2000005c       0x20 build_ac_boot_stm32f10x/system.o
                0x2000005c                system_info
                0x2000007c                _ebss = .

.heap           0x2000007c      0x400 load address 0x080012cc
                0x2000007c                __heap_start__ = .
                0x2000047c                . = (. + HEAP_SIZE)
 *fill*         0x2000007c      0x400 
                0x2000047c                . = ALIGN (0x4)
                0x2000047c                __heap_end__ = .

.end_ram        0x2000047c        0x0
                0x2000047c                _end_ram = .
                0x20005000                _estack = (ORIGIN (SRAM) + LENGTH (SRAM))

/DISCARD/
 libc.a(*)
 libm.a(*)
 libg.a(*)
 libgcc.a(*)
LOAD /home/thannt/workspace/tools/gcc-arm-none-eabi-5_4-2016q3/arm-none-eabi/lib/armv7-m/libc.a
LOAD /home/thannt/workspace/tools/gcc-arm-none-eabi-5_4-2016q3/arm-none-eabi/lib/armv7-m/libm.a
LOAD /home/thannt/workspace/tools/gcc-arm-none-eabi-5_4-2016q3/lib/gcc/arm-none-eabi/5.4.1/armv7-m/libgcc.a
LOAD /home/thannt/workspace/tools/gcc-arm-none-eabi-5_4-2016q3/arm-none-eabi/lib/armv7-m/libg.a
LOAD build_ac_boot_stm32f10x/utils.o
LOAD build_ac_boot_stm32f10x/xprintf.o
LOAD build_ac_boot_stm32f10x/led.o
LOAD build_ac_boot_stm32f10x/flash.o
LOAD build_ac_boot_stm32f10x/sys_dbg.o
LOAD build_ac_boot_stm32f10x/system_stm32f10x.o
LOAD build_ac_boot_stm32f10x/stm32f10x_gpio.o
LOAD build_ac_boot_stm32f10x/stm32f10x_rcc.o
LOAD build_ac_boot_stm32f10x/stm32f10x_usart.o
LOAD build_ac_boot_stm32f10x/stm32f10x_spi.o
LOAD build_ac_boot_stm32f10x/misc.o
LOAD build_ac_boot_stm32f10x/stm32f10x_exti.o
LOAD build_ac_boot_stm32f10x/stm32f10x_tim.o
LOAD build_ac_boot_stm32f10x/stm32f10x_adc.o
LOAD build_ac_boot_stm32f10x/stm32f10x_rtc.o
LOAD build_ac_boot_stm32f10x/stm32f10x_pwr.o
LOAD build_ac_boot_stm32f10x/stm32f10x_flash.o
LOAD build_ac_boot_stm32f10x/stm32f10x_iwdg.o
LOAD build_ac_boot_stm32f10x/stm32f10x_dac.o
LOAD build_ac_boot_stm32f10x/stm32.o
LOAD build_ac_boot_stm32f10x/system.o
LOAD build_ac_boot_stm32f10x/sys_cfg.o
LOAD build_ac_boot_stm32f10x/io_cfg.o
LOAD build_ac_boot_stm32f10x/app.o
LOAD build_ac_boot_stm32f10x/eeprom.o
LOAD build_ac_boot_stm32f10x/SPI.o
LOAD build_ac_boot_stm32f10x/wiring_digital.o
LOAD build_ac_boot_stm32f10x/wiring_shift.o
LOAD build_ac_boot_stm32f10x/Print.o
LOAD build_ac_boot_stm32f10x/mini_cpp.o
LOAD /home/thannt/workspace/tools/gcc-arm-none-eabi-5_4-2016q3/arm-none-eabi/lib/armv7-m/libc.a
LOAD /home/thannt/workspace/tools/gcc-arm-none-eabi-5_4-2016q3/arm-none-eabi/lib/armv7-m/libm.a
LOAD /home/thannt/workspace/tools/gcc-arm-none-eabi-5_4-2016q3/lib/gcc/arm-none-eabi/5.4.1/armv7-m/libgcc.a
LOAD /home/thannt/workspace/tools/gcc-arm-none-eabi-5_4-2016q3/arm-none-eabi/lib/armv7-m/libg.a
OUTPUT(build_ac_boot_stm32f10x/ac_boot.axf elf32-littlearm)

.debug_info     0x00000000     0x8463
 .debug_info    0x00000000      0x287 build_ac_boot_stm32f10x/xprintf.o
 .debug_info    0x00000287      0x2fe build_ac_boot_stm32f10x/led.o
 .debug_info    0x00000585      0x681 build_ac_boot_stm32f10x/flash.o
 .debug_info    0x00000c06      0x104 build_ac_boot_stm32f10x/sys_dbg.o
 .debug_info    0x00000d0a      0x4c8 build_ac_boot_stm32f10x/system_stm32f10x.o
 .debug_info    0x000011d2      0x7f3 build_ac_boot_stm32f10x/stm32f10x_gpio.o
 .debug_info    0x000019c5      0x8db build_ac_boot_stm32f10x/stm32f10x_rcc.o
 .debug_info    0x000022a0      0xacd build_ac_boot_stm32f10x/stm32f10x_usart.o
 .debug_info    0x00002d6d      0x9a6 build_ac_boot_stm32f10x/stm32f10x_spi.o
 .debug_info    0x00003713      0x55e build_ac_boot_stm32f10x/misc.o
 .debug_info    0x00003c71      0x96d build_ac_boot_stm32f10x/stm32f10x_flash.o
 .debug_info    0x000045de      0x193 build_ac_boot_stm32f10x/stm32.o
 .debug_info    0x00004771      0x554 build_ac_boot_stm32f10x/system.o
 .debug_info    0x00004cc5      0xf84 build_ac_boot_stm32f10x/sys_cfg.o
 .debug_info    0x00005c49     0x13f0 build_ac_boot_stm32f10x/io_cfg.o
 .debug_info    0x00007039      0xa14 build_ac_boot_stm32f10x/app.o
 .debug_info    0x00007a4d      0xa16 build_ac_boot_stm32f10x/SPI.o

.debug_abbrev   0x00000000     0x1eeb
 .debug_abbrev  0x00000000      0x152 build_ac_boot_stm32f10x/xprintf.o
 .debug_abbrev  0x00000152      0x117 build_ac_boot_stm32f10x/led.o
 .debug_abbrev  0x00000269      0x154 build_ac_boot_stm32f10x/flash.o
 .debug_abbrev  0x000003bd       0x88 build_ac_boot_stm32f10x/sys_dbg.o
 .debug_abbrev  0x00000445      0x170 build_ac_boot_stm32f10x/system_stm32f10x.o
 .debug_abbrev  0x000005b5      0x200 build_ac_boot_stm32f10x/stm32f10x_gpio.o
 .debug_abbrev  0x000007b5      0x1e4 build_ac_boot_stm32f10x/stm32f10x_rcc.o
 .debug_abbrev  0x00000999      0x1e6 build_ac_boot_stm32f10x/stm32f10x_usart.o
 .debug_abbrev  0x00000b7f      0x1e8 build_ac_boot_stm32f10x/stm32f10x_spi.o
 .debug_abbrev  0x00000d67      0x158 build_ac_boot_stm32f10x/misc.o
 .debug_abbrev  0x00000ebf      0x200 build_ac_boot_stm32f10x/stm32f10x_flash.o
 .debug_abbrev  0x000010bf       0xc4 build_ac_boot_stm32f10x/stm32.o
 .debug_abbrev  0x00001183      0x1f8 build_ac_boot_stm32f10x/system.o
 .debug_abbrev  0x0000137b      0x35b build_ac_boot_stm32f10x/sys_cfg.o
 .debug_abbrev  0x000016d6      0x27f build_ac_boot_stm32f10x/io_cfg.o
 .debug_abbrev  0x00001955      0x2ed build_ac_boot_stm32f10x/app.o
 .debug_abbrev  0x00001c42      0x2a9 build_ac_boot_stm32f10x/SPI.o

.debug_loc      0x00000000     0x2d27
 .debug_loc     0x00000000      0x229 build_ac_boot_stm32f10x/xprintf.o
 .debug_loc     0x00000229      0x216 build_ac_boot_stm32f10x/led.o
 .debug_loc     0x0000043f      0x2a4 build_ac_boot_stm32f10x/flash.o
 .debug_loc     0x000006e3       0x99 build_ac_boot_stm32f10x/system_stm32f10x.o
 .debug_loc     0x0000077c      0x4ed build_ac_boot_stm32f10x/stm32f10x_gpio.o
 .debug_loc     0x00000c69      0x672 build_ac_boot_stm32f10x/stm32f10x_rcc.o
 .debug_loc     0x000012db      0x751 build_ac_boot_stm32f10x/stm32f10x_usart.o
 .debug_loc     0x00001a2c      0x5fa build_ac_boot_stm32f10x/stm32f10x_spi.o
 .debug_loc     0x00002026      0x161 build_ac_boot_stm32f10x/misc.o
 .debug_loc     0x00002187      0x717 build_ac_boot_stm32f10x/stm32f10x_flash.o
 .debug_loc     0x0000289e       0x36 build_ac_boot_stm32f10x/system.o
 .debug_loc     0x000028d4      0x14a build_ac_boot_stm32f10x/sys_cfg.o
 .debug_loc     0x00002a1e       0x75 build_ac_boot_stm32f10x/io_cfg.o
 .debug_loc     0x00002a93      0x10d build_ac_boot_stm32f10x/app.o
 .debug_loc     0x00002ba0      0x187 build_ac_boot_stm32f10x/SPI.o

.debug_aranges  0x00000000      0x8c8
 .debug_aranges
                0x00000000       0x28 build_ac_boot_stm32f10x/xprintf.o
 .debug_aranges
                0x00000028       0x50 build_ac_boot_stm32f10x/led.o
 .debug_aranges
                0x00000078       0x58 build_ac_boot_stm32f10x/flash.o
 .debug_aranges
                0x000000d0       0x20 build_ac_boot_stm32f10x/sys_dbg.o
 .debug_aranges
                0x000000f0       0x28 build_ac_boot_stm32f10x/system_stm32f10x.o
 .debug_aranges
                0x00000118       0xa8 build_ac_boot_stm32f10x/stm32f10x_gpio.o
 .debug_aranges
                0x000001c0      0x118 build_ac_boot_stm32f10x/stm32f10x_rcc.o
 .debug_aranges
                0x000002d8      0x100 build_ac_boot_stm32f10x/stm32f10x_usart.o
 .debug_aranges
                0x000003d8       0xd0 build_ac_boot_stm32f10x/stm32f10x_spi.o
 .debug_aranges
                0x000004a8       0x40 build_ac_boot_stm32f10x/misc.o
 .debug_aranges
                0x000004e8       0xd8 build_ac_boot_stm32f10x/stm32f10x_flash.o
 .debug_aranges
                0x000005c0       0x38 build_ac_boot_stm32f10x/stm32.o
 .debug_aranges
                0x000005f8       0x70 build_ac_boot_stm32f10x/system.o
 .debug_aranges
                0x00000668       0x78 build_ac_boot_stm32f10x/sys_cfg.o
 .debug_aranges
                0x000006e0      0x148 build_ac_boot_stm32f10x/io_cfg.o
 .debug_aranges
                0x00000828       0x30 build_ac_boot_stm32f10x/app.o
 .debug_aranges
                0x00000858       0x70 build_ac_boot_stm32f10x/SPI.o

.debug_ranges   0x00000000      0x800
 .debug_ranges  0x00000000       0x18 build_ac_boot_stm32f10x/xprintf.o
 .debug_ranges  0x00000018       0x40 build_ac_boot_stm32f10x/led.o
 .debug_ranges  0x00000058       0x48 build_ac_boot_stm32f10x/flash.o
 .debug_ranges  0x000000a0       0x10 build_ac_boot_stm32f10x/sys_dbg.o
 .debug_ranges  0x000000b0       0x30 build_ac_boot_stm32f10x/system_stm32f10x.o
 .debug_ranges  0x000000e0       0x98 build_ac_boot_stm32f10x/stm32f10x_gpio.o
 .debug_ranges  0x00000178      0x108 build_ac_boot_stm32f10x/stm32f10x_rcc.o
 .debug_ranges  0x00000280       0xf0 build_ac_boot_stm32f10x/stm32f10x_usart.o
 .debug_ranges  0x00000370       0xc0 build_ac_boot_stm32f10x/stm32f10x_spi.o
 .debug_ranges  0x00000430       0x30 build_ac_boot_stm32f10x/misc.o
 .debug_ranges  0x00000460       0xc8 build_ac_boot_stm32f10x/stm32f10x_flash.o
 .debug_ranges  0x00000528       0x28 build_ac_boot_stm32f10x/stm32.o
 .debug_ranges  0x00000550       0x60 build_ac_boot_stm32f10x/system.o
 .debug_ranges  0x000005b0       0x80 build_ac_boot_stm32f10x/sys_cfg.o
 .debug_ranges  0x00000630      0x138 build_ac_boot_stm32f10x/io_cfg.o
 .debug_ranges  0x00000768       0x38 build_ac_boot_stm32f10x/app.o
 .debug_ranges  0x000007a0       0x60 build_ac_boot_stm32f10x/SPI.o

.debug_line     0x00000000     0x3a81
 .debug_line    0x00000000      0x1fc build_ac_boot_stm32f10x/xprintf.o
 .debug_line    0x000001fc      0x1dd build_ac_boot_stm32f10x/led.o
 .debug_line    0x000003d9      0x276 build_ac_boot_stm32f10x/flash.o
 .debug_line    0x0000064f      0x15d build_ac_boot_stm32f10x/sys_dbg.o
 .debug_line    0x000007ac      0x205 build_ac_boot_stm32f10x/system_stm32f10x.o
 .debug_line    0x000009b1      0x415 build_ac_boot_stm32f10x/stm32f10x_gpio.o
 .debug_line    0x00000dc6      0x4eb build_ac_boot_stm32f10x/stm32f10x_rcc.o
 .debug_line    0x000012b1      0x4fa build_ac_boot_stm32f10x/stm32f10x_usart.o
 .debug_line    0x000017ab      0x484 build_ac_boot_stm32f10x/stm32f10x_spi.o
 .debug_line    0x00001c2f      0x2a1 build_ac_boot_stm32f10x/misc.o
 .debug_line    0x00001ed0      0x4f6 build_ac_boot_stm32f10x/stm32f10x_flash.o
 .debug_line    0x000023c6      0x1cc build_ac_boot_stm32f10x/stm32.o
 .debug_line    0x00002592      0x3e1 build_ac_boot_stm32f10x/system.o
 .debug_line    0x00002973      0x453 build_ac_boot_stm32f10x/sys_cfg.o
 .debug_line    0x00002dc6      0x5b2 build_ac_boot_stm32f10x/io_cfg.o
 .debug_line    0x00003378      0x3ae build_ac_boot_stm32f10x/app.o
 .debug_line    0x00003726      0x35b build_ac_boot_stm32f10x/SPI.o

.debug_str      0x00000000     0x2c9b
 .debug_str     0x00000000      0x21a build_ac_boot_stm32f10x/xprintf.o
                                0x285 (size before relaxing)
 .debug_str     0x0000021a       0xc1 build_ac_boot_stm32f10x/led.o
                                0x27e (size before relaxing)
 .debug_str     0x000002db      0x131 build_ac_boot_stm32f10x/flash.o
                                0x2e5 (size before relaxing)
 .debug_str     0x0000040c       0x31 build_ac_boot_stm32f10x/sys_dbg.o
                                0x1f0 (size before relaxing)
 .debug_str     0x0000043d      0x188 build_ac_boot_stm32f10x/system_stm32f10x.o
                                0x38e (size before relaxing)
 .debug_str     0x000005c5      0x38e build_ac_boot_stm32f10x/stm32f10x_gpio.o
                                0x5c8 (size before relaxing)
 .debug_str     0x00000953      0x3d8 build_ac_boot_stm32f10x/stm32f10x_rcc.o
                                0x6b2 (size before relaxing)
 .debug_str     0x00000d2b      0x47e build_ac_boot_stm32f10x/stm32f10x_usart.o
                                0x768 (size before relaxing)
 .debug_str     0x000011a9      0x381 build_ac_boot_stm32f10x/stm32f10x_spi.o
                                0x6d5 (size before relaxing)
 .debug_str     0x0000152a      0x1dd build_ac_boot_stm32f10x/misc.o
                                0x456 (size before relaxing)
 .debug_str     0x00001707      0x3c6 build_ac_boot_stm32f10x/stm32f10x_flash.o
                                0x639 (size before relaxing)
 .debug_str     0x00001acd       0x7f build_ac_boot_stm32f10x/stm32.o
                                0x253 (size before relaxing)
 .debug_str     0x00001b4c      0x239 build_ac_boot_stm32f10x/system.o
                                0x48f (size before relaxing)
 .debug_str     0x00001d85      0x4a0 build_ac_boot_stm32f10x/sys_cfg.o
                                0xc50 (size before relaxing)
 .debug_str     0x00002225      0x554 build_ac_boot_stm32f10x/io_cfg.o
                                0xd60 (size before relaxing)
 .debug_str     0x00002779      0x3df build_ac_boot_stm32f10x/app.o
                                0x7c2 (size before relaxing)
 .debug_str     0x00002b58      0x143 build_ac_boot_stm32f10x/SPI.o
                                0x7ef (size before relaxing)

.comment        0x00000000       0x6e
 .comment       0x00000000       0x6e build_ac_boot_stm32f10x/xprintf.o
                                 0x6f (size before relaxing)
 .comment       0x0000006e       0x6f build_ac_boot_stm32f10x/led.o
 .comment       0x0000006e       0x6f build_ac_boot_stm32f10x/flash.o
 .comment       0x0000006e       0x6f build_ac_boot_stm32f10x/sys_dbg.o
 .comment       0x0000006e       0x6f build_ac_boot_stm32f10x/system_stm32f10x.o
 .comment       0x0000006e       0x6f build_ac_boot_stm32f10x/stm32f10x_gpio.o
 .comment       0x0000006e       0x6f build_ac_boot_stm32f10x/stm32f10x_rcc.o
 .comment       0x0000006e       0x6f build_ac_boot_stm32f10x/stm32f10x_usart.o
 .comment       0x0000006e       0x6f build_ac_boot_stm32f10x/stm32f10x_spi.o
 .comment       0x0000006e       0x6f build_ac_boot_stm32f10x/misc.o
 .comment       0x0000006e       0x6f build_ac_boot_stm32f10x/stm32f10x_flash.o
 .comment       0x0000006e       0x6f build_ac_boot_stm32f10x/stm32.o
 .comment       0x0000006e       0x6f build_ac_boot_stm32f10x/system.o
 .comment       0x0000006e       0x6f build_ac_boot_stm32f10x/sys_cfg.o
 .comment       0x0000006e       0x6f build_ac_boot_stm32f10x/io_cfg.o
 .comment       0x0000006e       0x6f build_ac_boot_stm32f10x/app.o
 .comment       0x0000006e       0x6f build_ac_boot_stm32f10x/SPI.o

.ARM.attributes
                0x00000000       0x33
 .ARM.attributes
                0x00000000       0x33 build_ac_boot_stm32f10x/xprintf.o
 .ARM.attributes
                0x00000033       0x33 build_ac_boot_stm32f10x/led.o
 .ARM.attributes
                0x00000066       0x33 build_ac_boot_stm32f10x/flash.o
 .ARM.attributes
                0x00000099       0x33 build_ac_boot_stm32f10x/sys_dbg.o
 .ARM.attributes
                0x000000cc       0x33 build_ac_boot_stm32f10x/system_stm32f10x.o
 .ARM.attributes
                0x000000ff       0x33 build_ac_boot_stm32f10x/stm32f10x_gpio.o
 .ARM.attributes
                0x00000132       0x33 build_ac_boot_stm32f10x/stm32f10x_rcc.o
 .ARM.attributes
                0x00000165       0x33 build_ac_boot_stm32f10x/stm32f10x_usart.o
 .ARM.attributes
                0x00000198       0x33 build_ac_boot_stm32f10x/stm32f10x_spi.o
 .ARM.attributes
                0x000001cb       0x33 build_ac_boot_stm32f10x/misc.o
 .ARM.attributes
                0x000001fe       0x33 build_ac_boot_stm32f10x/stm32f10x_flash.o
 .ARM.attributes
                0x00000231       0x33 build_ac_boot_stm32f10x/stm32.o
 .ARM.attributes
                0x00000264       0x33 build_ac_boot_stm32f10x/system.o
 .ARM.attributes
                0x00000297       0x33 build_ac_boot_stm32f10x/sys_cfg.o
 .ARM.attributes
                0x000002ca       0x33 build_ac_boot_stm32f10x/io_cfg.o
 .ARM.attributes
                0x000002fd       0x33 build_ac_boot_stm32f10x/app.o
 .ARM.attributes
                0x00000330       0x33 build_ac_boot_stm32f10x/SPI.o

.debug_frame    0x00000000     0x1694
 .debug_frame   0x00000000       0x7c build_ac_boot_stm32f10x/xprintf.o
 .debug_frame   0x0000007c       0xa8 build_ac_boot_stm32f10x/led.o
 .debug_frame   0x00000124      0x108 build_ac_boot_stm32f10x/flash.o
 .debug_frame   0x0000022c       0x20 build_ac_boot_stm32f10x/sys_dbg.o
 .debug_frame   0x0000024c       0x3c build_ac_boot_stm32f10x/system_stm32f10x.o
 .debug_frame   0x00000288      0x170 build_ac_boot_stm32f10x/stm32f10x_gpio.o
 .debug_frame   0x000003f8      0x220 build_ac_boot_stm32f10x/stm32f10x_rcc.o
 .debug_frame   0x00000618      0x224 build_ac_boot_stm32f10x/stm32f10x_usart.o
 .debug_frame   0x0000083c      0x1bc build_ac_boot_stm32f10x/stm32f10x_spi.o
 .debug_frame   0x000009f8       0x68 build_ac_boot_stm32f10x/misc.o
 .debug_frame   0x00000a60      0x244 build_ac_boot_stm32f10x/stm32f10x_flash.o
 .debug_frame   0x00000ca4       0x50 build_ac_boot_stm32f10x/stm32.o
 .debug_frame   0x00000cf4       0xdc build_ac_boot_stm32f10x/system.o
 .debug_frame   0x00000dd0      0x178 build_ac_boot_stm32f10x/sys_cfg.o
 .debug_frame   0x00000f48      0x604 build_ac_boot_stm32f10x/io_cfg.o
 .debug_frame   0x0000154c       0x5c build_ac_boot_stm32f10x/app.o
 .debug_frame   0x000015a8       0xec build_ac_boot_stm32f10x/SPI.o
