Component: ARM Compiler 5.05 update 1 (build 106) Tool: armlink [4d0efa]

==============================================================================

Section Cross References

    main.o(i.OnRxDone) refers to gpio.o(i.GpioWrite) for GpioWrite
    main.o(i.OnRxDone) refers to main.o(.data) for .data
    main.o(i.OnRxDone) refers to board.o(.bss) for Led1
    main.o(i.OnRxDone) refers to main.o(.bss) for .bss
    main.o(i.main) refers to board.o(i.BoardInitMcu) for BoardInitMcu
    main.o(i.main) refers to board.o(i.BoardInitPeriph) for BoardInitPeriph
    main.o(i.main) refers to gpio.o(i.GpioInit) for GpioInit
    main.o(i.main) refers to timer.o(i.TimerLowPowerHandler) for TimerLowPowerHandler
    main.o(i.main) refers to main.o(i.OnRxDone) for OnRxDone
    main.o(i.main) refers to main.o(.bss) for .bss
    main.o(i.main) refers to sx1276-board.o(.constdata) for Radio
    adc-board.o(i.AdcMcuConfig) refers to stm32l1xx_hal_adc.o(i.HAL_ADC_Init) for HAL_ADC_Init
    adc-board.o(i.AdcMcuConfig) refers to adc-board.o(.bss) for .bss
    adc-board.o(i.AdcMcuInit) refers to stm32l1xx_hal_adc.o(i.HAL_ADC_DeInit) for HAL_ADC_DeInit
    adc-board.o(i.AdcMcuInit) refers to gpio.o(i.GpioInit) for GpioInit
    adc-board.o(i.AdcMcuInit) refers to adc-board.o(.bss) for .bss
    adc-board.o(i.AdcMcuReadChannel) refers to stm32l1xx_hal_adc.o(i.HAL_ADC_ConfigChannel) for HAL_ADC_ConfigChannel
    adc-board.o(i.AdcMcuReadChannel) refers to stm32l1xx_hal_adc.o(i.HAL_ADC_Start) for HAL_ADC_Start
==============================================================================

Removing Unused input sections from the image.

    Removing main.o(.rev16_text), (4 bytes).
    Removing main.o(.revsh_text), (4 bytes).
    Removing main.o(.rrx_text), (6 bytes).
    Removing adc-board.o(.rev16_text), (4 bytes).
    Removing adc-board.o(.revsh_text), (4 bytes).
    Removing adc-board.o(.rrx_text), (6 bytes).
    Removing adc-board.o(i.AdcMcuReadChannel), (228 bytes).
    Removing board.o(.rev16_text), (4 bytes).
    Removing board.o(.revsh_text), (4 bytes).
    Removing board.o(.rrx_text), (6 bytes).
    Removing board.o(i.BoardBatteryMeasureVolage), (108 bytes).
    Removing board.o(i.BoardGetBatteryLevel), (76 bytes).
    Removing board.o(i.BoardGetBatteryVoltage), (12 bytes).
    Removing board.o(i.BoardGetRandomSeed), (20 bytes).
    Removing board.o(i.BoardGetUniqueId), (72 bytes).
    Removing gpio-board.o(.rev16_text), (4 bytes).
    Removing gpio-board.o(.revsh_text), (4 bytes).
    Removing gpio-board.o(.rrx_text), (6 bytes).
==============================================================================

Image Symbol Table

    Local Symbols

    Symbol Name                              Value     Ov Type        Size  Object(Section)

    ../clib/microlib/ctype/ctype.c           0x00000000   Number         0  ispunct_o.o ABSOLUTE
    ../clib/microlib/ctype/ctype.c           0x00000000   Number         0  isupper_o.o ABSOLUTE
    ../clib/microlib/ctype/ctype.c           0x00000000   Number         0  isspace_o.o ABSOLUTE
    ../clib/microlib/ctype/ctype.c           0x00000000   Number         0  isdigit_o.o ABSOLUTE
    ../clib/microlib/ctype/ctype.c           0x00000000   Number         0  isprint_o.o ABSOLUTE
    ../clib/microlib/ctype/ctype.c           0x00000000   Number         0  islower_o.o ABSOLUTE
    ../clib/microlib/ctype/ctype.c           0x00000000   Number         0  isgraph_o.o ABSOLUTE
    ../clib/microlib/ctype/ctype.c           0x00000000   Number         0  iscntrl_o.o ABSOLUTE
    ../clib/microlib/ctype/ctype.c           0x00000000   Number         0  isblank_o.o ABSOLUTE
    ../clib/microlib/ctype/ctype.c           0x00000000   Number         0  isxdigit_o.o ABSOLUTE
    ../clib/microlib/ctype/ctype.c           0x00000000   Number         0  isalpha_o.o ABSOLUTE
    ../clib/microlib/ctype/ctype.c           0x00000000   Number         0  isalnum_o.o ABSOLUTE
    ../clib/microlib/ctype/ctype.c           0x00000000   Number         0  ctype_o.o ABSOLUTE
    ../clib/microlib/errno.c                 0x00000000   Number         0  errno.o ABSOLUTE
    ../clib/microlib/init/entry.s            0x00000000   Number         0  entry.o ABSOLUTE
    ../clib/microlib/init/entry.s            0x00000000   Number         0  entry7a.o ABSOLUTE
    ../clib/microlib/init/entry.s            0x00000000   Number         0  entry7b.o ABSOLUTE
    ../clib/microlib/init/entry.s            0x00000000   Number         0  entry8b.o ABSOLUTE
    ../clib/microlib/init/entry.s            0x00000000   Number         0  entry5.o ABSOLUTE
    ../clib/microlib/init/entry.s            0x00000000   Number         0  entry8a.o ABSOLUTE
    ../clib/microlib/init/entry.s            0x00000000   Number         0  entry9a.o ABSOLUTE
    ../clib/microlib/init/entry.s            0x00000000   Number         0  entry9b.o ABSOLUTE
    ../clib/microlib/init/entry.s            0x00000000   Number         0  entry10a.o ABSOLUTE
    ../clib/microlib/init/entry.s            0x00000000   Number         0  entry2.o ABSOLUTE
    ../clib/microlib/init/entry.s            0x00000000   Number         0  entry10b.o ABSOLUTE
    ../clib/microlib/init/entry.s            0x00000000   Number         0  entry11a.o ABSOLUTE
    ../clib/microlib/init/entry.s            0x00000000   Number         0  entry11b.o ABSOLUTE
    ../clib/microlib/longlong.c              0x00000000   Number         0  llshl.o ABSOLUTE
    ../clib/microlib/longlong.c              0x00000000   Number         0  llushr.o ABSOLUTE
    ../clib/microlib/longlong.c              0x00000000   Number         0  llsshr.o ABSOLUTE
    ../clib/microlib/string/memcpy.c         0x00000000   Number         0  memcpyb.o ABSOLUTE
    ../clib/microlib/string/memcpy.c         0x00000000   Number         0  memcpya.o ABSOLUTE
    ../clib/microlib/string/memset.c         0x00000000   Number         0  memseta.o ABSOLUTE
    ../clib/microlib/string/strncmp.c        0x00000000   Number         0  strncmp.o ABSOLUTE
    ../clib/microlib/stubs.s                 0x00000000   Number         0  iusefp.o ABSOLUTE
    ../clib/scanf.c                          0x00000000   Number         0  strtol.o ABSOLUTE
    ../clib/scanf.c                          0x00000000   Number         0  _chval.o ABSOLUTE
    ../clib/scanf.c                          0x00000000   Number         0  atoi.o ABSOLUTE
    ../clib/scanf.c                          0x00000000   Number         0  _strtoul.o ABSOLUTE
    ../fplib/microlib/d2f.c                  0x00000000   Number         0  d2f.o ABSOLUTE
    ../fplib/microlib/fpadd.c                0x00000000   Number         0  fadd.o ABSOLUTE
    ../fplib/microlib/fpadd.c                0x00000000   Number         0  dadd.o ABSOLUTE
    ../fplib/microlib/fpdiv.c                0x00000000   Number         0  ddiv.o ABSOLUTE
    ../fplib/microlib/fpdiv.c                0x00000000   Number         0  fdiv.o ABSOLUTE
    ../fplib/microlib/fpepilogue.c           0x00000000   Number         0  depilogue.o ABSOLUTE
    ../fplib/microlib/fpepilogue.c           0x00000000   Number         0  fepilogue.o ABSOLUTE
    ../fplib/microlib/fpfix.c                0x00000000   Number         0  dfixui.o ABSOLUTE
    ../fplib/microlib/fpfix.c                0x00000000   Number         0  dfixi.o ABSOLUTE
    ../fplib/microlib/fpfix.c                0x00000000   Number         0  ffixui.o ABSOLUTE
    ../fplib/microlib/fpflt.c                0x00000000   Number         0  dflti.o ABSOLUTE
    ../fplib/microlib/fpflt.c                0x00000000   Number         0  ffltui.o ABSOLUTE
    ../fplib/microlib/fpflt.c                0x00000000   Number         0  fflti.o ABSOLUTE
    ../fplib/microlib/fpflt.c                0x00000000   Number         0  dfltui.o ABSOLUTE
    ../fplib/microlib/fpmul.c                0x00000000   Number         0  fmul.o ABSOLUTE
    ../fplib/microlib/fpmul.c                0x00000000   Number         0  dmul.o ABSOLUTE
    ../fplib/microlib/fprnd.c                0x00000000   Number         0  drnd.o ABSOLUTE
    ../fplib/microlib/fpscalb.c              0x00000000   Number         0  dscalb.o ABSOLUTE
    ../fplib/microlib/fpscalb.c              0x00000000   Number         0  fscalb.o ABSOLUTE
    ../mathlib/ceil.c                        0x00000000   Number         0  ceil.o ABSOLUTE
    ../mathlib/floor.c                       0x00000000   Number         0  floor.o ABSOLUTE
    ../mathlib/round.c                       0x00000000   Number         0  round.o ABSOLUTE
    ..\..\..\src\apps\rx-sensi\SensorNode\main.c 0x00000000   Number         0  main.o ABSOLUTE
    ..\..\..\src\boards\SensorNode\adc-board.c 0x00000000   Number         0  adc-board.o ABSOLUTE
    ..\..\..\src\boards\SensorNode\board.c   0x00000000   Number         0  board.o ABSOLUTE
    ..\..\..\src\boards\SensorNode\cmsis\arm-std\startup_stm32l151xb.s 0x00000000   Number         0  startup_stm32l151xb.o ABSOLUTE
    ..\..\..\src\boards\SensorNode\cmsis\system_stm32l1xx.c 0x00000000   Number         0  system_stm32l1xx.o ABSOLUTE
    ..\..\..\src\boards\SensorNode\gpio-board.c 0x00000000   Number         0  gpio-board.o ABSOLUTE
    ..\..\..\src\boards\SensorNode\gps-board.c 0x00000000   Number         0  gps-board.o ABSOLUTE
    ..\..\..\src\boards\SensorNode\i2c-board.c 0x00000000   Number         0  i2c-board.o ABSOLUTE
    ..\..\..\src\boards\SensorNode\rtc-board.c 0x00000000   Number         0  rtc-board.o ABSOLUTE
    ..\..\..\src\boards\SensorNode\spi-board.c 0x00000000   Number         0  spi-board.o ABSOLUTE
    ..\..\..\src\boards\SensorNode\sx1276-board.c 0x00000000   Number         0  sx1276-board.o ABSOLUTE
    ..\..\..\src\boards\SensorNode\uart-board.c 0x00000000   Number         0  uart-board.o ABSOLUTE
    ..\..\..\src\boards\mcu\stm32\STM32L1xx_HAL_Driver\Src\stm32l1xx_hal.c 0x00000000   Number         0  stm32l1xx_hal.o ABSOLUTE
    ..\..\..\src\boards\mcu\stm32\STM32L1xx_HAL_Driver\Src\stm32l1xx_hal_adc.c 0x00000000   Number         0  stm32l1xx_hal_adc.o ABSOLUTE
    ..\..\..\src\boards\mcu\stm32\STM32L1xx_HAL_Driver\Src\stm32l1xx_hal_adc_ex.c 0x00000000   Number         0  stm32l1xx_hal_adc_ex.o ABSOLUTE
    ..\..\..\src\boards\mcu\stm32\STM32L1xx_HAL_Driver\Src\stm32l1xx_hal_cortex.c 0x00000000   Number         0  stm32l1xx_hal_cortex.o ABSOLUTE
    ..\..\..\src\boards\mcu\stm32\STM32L1xx_HAL_Driver\Src\stm32l1xx_hal_dma.c 0x00000000   Number         0  stm32l1xx_hal_dma.o ABSOLUTE
    ..\..\..\src\boards\mcu\stm32\STM32L1xx_HAL_Driver\Src\stm32l1xx_hal_gpio.c 0x00000000   Number         0  stm32l1xx_hal_gpio.o ABSOLUTE
    ..\..\..\src\boards\mcu\stm32\STM32L1xx_HAL_Driver\Src\stm32l1xx_hal_i2c.c 0x00000000   Number         0  stm32l1xx_hal_i2c.o ABSOLUTE
    ..\..\..\src\boards\mcu\stm32\STM32L1xx_HAL_Driver\Src\stm32l1xx_hal_pwr.c 0x00000000   Number         0  stm32l1xx_hal_pwr.o ABSOLUTE
    ..\..\..\src\boards\mcu\stm32\STM32L1xx_HAL_Driver\Src\stm32l1xx_hal_pwr_ex.c 0x00000000   Number         0  stm32l1xx_hal_pwr_ex.o ABSOLUTE
    ..\..\..\src\boards\mcu\stm32\STM32L1xx_HAL_Driver\Src\stm32l1xx_hal_rcc.c 0x00000000   Number         0  stm32l1xx_hal_rcc.o ABSOLUTE
    ..\..\..\src\boards\mcu\stm32\STM32L1xx_HAL_Driver\Src\stm32l1xx_hal_rcc_ex.c 0x00000000   Number         0  stm32l1xx_hal_rcc_ex.o ABSOLUTE
    ..\..\..\src\boards\mcu\stm32\STM32L1xx_HAL_Driver\Src\stm32l1xx_hal_rtc.c 0x00000000   Number         0  stm32l1xx_hal_rtc.o ABSOLUTE
    ..\..\..\src\boards\mcu\stm32\STM32L1xx_HAL_Driver\Src\stm32l1xx_hal_rtc_ex.c 0x00000000   Number         0  stm32l1xx_hal_rtc_ex.o ABSOLUTE
    ..\..\..\src\boards\mcu\stm32\STM32L1xx_HAL_Driver\Src\stm32l1xx_hal_spi.c 0x00000000   Number         0  stm32l1xx_hal_spi.o ABSOLUTE
    ..\..\..\src\boards\mcu\stm32\STM32L1xx_HAL_Driver\Src\stm32l1xx_hal_spi_ex.c 0x00000000   Number         0  stm32l1xx_hal_spi_ex.o ABSOLUTE
    ..\..\..\src\boards\mcu\stm32\STM32L1xx_HAL_Driver\Src\stm32l1xx_hal_uart.c 0x00000000   Number         0  stm32l1xx_hal_uart.o ABSOLUTE
    ..\..\..\src\boards\mcu\stm32\sysIrqHandlers.c 0x00000000   Number         0  sysirqhandlers.o ABSOLUTE
    ..\..\..\src\boards\mcu\stm32\utilities.c 0x00000000   Number         0  utilities.o ABSOLUTE
    ..\..\..\src\peripherals\gpio-ioe.c      0x00000000   Number         0  gpio-ioe.o ABSOLUTE
    ..\..\..\src\peripherals\mag3110.c       0x00000000   Number         0  mag3110.o ABSOLUTE
    ..\..\..\src\peripherals\mma8451.c       0x00000000   Number         0  mma8451.o ABSOLUTE
    ..\..\..\src\peripherals\mpl3115.c       0x00000000   Number         0  mpl3115.o ABSOLUTE
    ..\..\..\src\peripherals\sx1509.c        0x00000000   Number         0  sx1509.o ABSOLUTE
    ..\..\..\src\peripherals\sx9500.c        0x00000000   Number         0  sx9500.o ABSOLUTE
    ..\..\..\src\radio\sx1276\sx1276.c       0x00000000   Number         0  sx1276.o ABSOLUTE
    ..\..\..\src\system\adc.c                0x00000000   Number         0  adc.o ABSOLUTE
    ..\..\..\src\system\delay.c              0x00000000   Number         0  delay.o ABSOLUTE
    ..\..\..\src\system\fifo.c               0x00000000   Number         0  fifo.o ABSOLUTE
    ..\..\..\src\system\gpio.c               0x00000000   Number         0  gpio.o ABSOLUTE
    ..\..\..\src\system\gps.c                0x00000000   Number         0  gps.o ABSOLUTE
    ..\..\..\src\system\i2c.c                0x00000000   Number         0  i2c.o ABSOLUTE
    ..\..\..\src\system\timer.c              0x00000000   Number         0  timer.o ABSOLUTE
    ..\..\..\src\system\uart.c               0x00000000   Number         0  uart.o ABSOLUTE
    ..\\..\\..\\src\\apps\\rx-sensi\\SensorNode\\main.c 0x00000000   Number         0  main.o ABSOLUTE
    ..\\..\\..\\src\\boards\\SensorNode\\adc-board.c 0x00000000   Number         0  adc-board.o ABSOLUTE
    ..\\..\\..\\src\\boards\\SensorNode\\board.c 0x00000000   Number         0  board.o ABSOLUTE
    ..\\..\\..\\src\\boards\\SensorNode\\cmsis\\system_stm32l1xx.c 0x00000000   Number         0  system_stm32l1xx.o ABSOLUTE
    ..\\..\\..\\src\\boards\\SensorNode\\gpio-board.c 0x00000000   Number         0  gpio-board.o ABSOLUTE
    ..\\..\\..\\src\\boards\\SensorNode\\gps-board.c 0x00000000   Number         0  gps-board.o ABSOLUTE
    ..\\..\\..\\src\\boards\\SensorNode\\i2c-board.c 0x00000000   Number         0  i2c-board.o ABSOLUTE
    ..\\..\\..\\src\\boards\\SensorNode\\rtc-board.c 0x00000000   Number         0  rtc-board.o ABSOLUTE
    ..\\..\\..\\src\\boards\\SensorNode\\spi-board.c 0x00000000   Number         0  spi-board.o ABSOLUTE
    ..\\..\\..\\src\\boards\\SensorNode\\sx1276-board.c 0x00000000   Number         0  sx1276-board.o ABSOLUTE
    ..\\..\\..\\src\\boards\\SensorNode\\uart-board.c 0x00000000   Number         0  uart-board.o ABSOLUTE
    ..\\..\\..\\src\\boards\\mcu\\stm32\\STM32L1xx_HAL_Driver\\Src\\stm32l1xx_hal.c 0x00000000   Number         0  stm32l1xx_hal.o ABSOLUTE
    ..\\..\\..\\src\\boards\\mcu\\stm32\\STM32L1xx_HAL_Driver\\Src\\stm32l1xx_hal_adc.c 0x00000000   Number         0  stm32l1xx_hal_adc.o ABSOLUTE
    ..\\..\\..\\src\\boards\\mcu\\stm32\\STM32L1xx_HAL_Driver\\Src\\stm32l1xx_hal_adc_ex.c 0x00000000   Number         0  stm32l1xx_hal_adc_ex.o ABSOLUTE
    ..\\..\\..\\src\\boards\\mcu\\stm32\\STM32L1xx_HAL_Driver\\Src\\stm32l1xx_hal_cortex.c 0x00000000   Number         0  stm32l1xx_hal_cortex.o ABSOLUTE
    ..\\..\\..\\src\\boards\\mcu\\stm32\\STM32L1xx_HAL_Driver\\Src\\stm32l1xx_hal_dma.c 0x00000000   Number         0  stm32l1xx_hal_dma.o ABSOLUTE
    ..\\..\\..\\src\\boards\\mcu\\stm32\\STM32L1xx_HAL_Driver\\Src\\stm32l1xx_hal_gpio.c 0x00000000   Number         0  stm32l1xx_hal_gpio.o ABSOLUTE
    ..\\..\\..\\src\\boards\\mcu\\stm32\\STM32L1xx_HAL_Driver\\Src\\stm32l1xx_hal_i2c.c 0x00000000   Number         0  stm32l1xx_hal_i2c.o ABSOLUTE
    ..\\..\\..\\src\\boards\\mcu\\stm32\\STM32L1xx_HAL_Driver\\Src\\stm32l1xx_hal_pwr.c 0x00000000   Number         0  stm32l1xx_hal_pwr.o ABSOLUTE
    ..\\..\\..\\src\\boards\\mcu\\stm32\\STM32L1xx_HAL_Driver\\Src\\stm32l1xx_hal_pwr_ex.c 0x00000000   Number         0  stm32l1xx_hal_pwr_ex.o ABSOLUTE
    ..\\..\\..\\src\\boards\\mcu\\stm32\\STM32L1xx_HAL_Driver\\Src\\stm32l1xx_hal_rcc.c 0x00000000   Number         0  stm32l1xx_hal_rcc.o ABSOLUTE
    ..\\..\\..\\src\\boards\\mcu\\stm32\\STM32L1xx_HAL_Driver\\Src\\stm32l1xx_hal_rcc_ex.c 0x00000000   Number         0  stm32l1xx_hal_rcc_ex.o ABSOLUTE
    ..\\..\\..\\src\\boards\\mcu\\stm32\\STM32L1xx_HAL_Driver\\Src\\stm32l1xx_hal_rtc.c 0x00000000   Number         0  stm32l1xx_hal_rtc.o ABSOLUTE
    ..\\..\\..\\src\\boards\\mcu\\stm32\\STM32L1xx_HAL_Driver\\Src\\stm32l1xx_hal_rtc_ex.c 0x00000000   Number         0  stm32l1xx_hal_rtc_ex.o ABSOLUTE
    ..\\..\\..\\src\\boards\\mcu\\stm32\\STM32L1xx_HAL_Driver\\Src\\stm32l1xx_hal_spi.c 0x00000000   Number         0  stm32l1xx_hal_spi.o ABSOLUTE
    ..\\..\\..\\src\\boards\\mcu\\stm32\\STM32L1xx_HAL_Driver\\Src\\stm32l1xx_hal_spi_ex.c 0x00000000   Number         0  stm32l1xx_hal_spi_ex.o ABSOLUTE
    ..\\..\\..\\src\\boards\\mcu\\stm32\\STM32L1xx_HAL_Driver\\Src\\stm32l1xx_hal_uart.c 0x00000000   Number         0  stm32l1xx_hal_uart.o ABSOLUTE
    ..\\..\\..\\src\\boards\\mcu\\stm32\\sysIrqHandlers.c 0x00000000   Number         0  sysirqhandlers.o ABSOLUTE
    ..\\..\\..\\src\\boards\\mcu\\stm32\\utilities.c 0x00000000   Number         0  utilities.o ABSOLUTE
    ..\\..\\..\\src\\peripherals\\gpio-ioe.c 0x00000000   Number         0  gpio-ioe.o ABSOLUTE
    ..\\..\\..\\src\\peripherals\\mag3110.c  0x00000000   Number         0  mag3110.o ABSOLUTE
    ..\\..\\..\\src\\peripherals\\mma8451.c  0x00000000   Number         0  mma8451.o ABSOLUTE
    ..\\..\\..\\src\\peripherals\\mpl3115.c  0x00000000   Number         0  mpl3115.o ABSOLUTE
    ..\\..\\..\\src\\peripherals\\sx1509.c   0x00000000   Number         0  sx1509.o ABSOLUTE
    ..\\..\\..\\src\\peripherals\\sx9500.c   0x00000000   Number         0  sx9500.o ABSOLUTE
    ..\\..\\..\\src\\radio\\sx1276\\sx1276.c 0x00000000   Number         0  sx1276.o ABSOLUTE
    ..\\..\\..\\src\\system\\adc.c           0x00000000   Number         0  adc.o ABSOLUTE
    ..\\..\\..\\src\\system\\delay.c         0x00000000   Number         0  delay.o ABSOLUTE
    ..\\..\\..\\src\\system\\gpio.c          0x00000000   Number         0  gpio.o ABSOLUTE
    ..\\..\\..\\src\\system\\gps.c           0x00000000   Number         0  gps.o ABSOLUTE
    ..\\..\\..\\src\\system\\i2c.c           0x00000000   Number         0  i2c.o ABSOLUTE
    ..\\..\\..\\src\\system\\timer.c         0x00000000   Number         0  timer.o ABSOLUTE
    ..\\..\\..\\src\\system\\uart.c          0x00000000   Number         0  uart.o ABSOLUTE
    cdcmple.s                                0x00000000   Number         0  cdcmple.o ABSOLUTE
    cdrcmple.s                               0x00000000   Number         0  cdrcmple.o ABSOLUTE
    dc.s                                     0x00000000   Number         0  dc.o ABSOLUTE
    handlers.s                               0x00000000   Number         0  handlers.o ABSOLUTE
    init.s                                   0x00000000   Number         0  init.o ABSOLUTE
    RESET                                    0x08000000   Section      244  startup_stm32l151xb.o(RESET)
    .ARM.Collect$$$$00000000                 0x080000f4   Section        0  entry.o(.ARM.Collect$$$$00000000)
    .ARM.Collect$$$$00000001                 0x080000f4   Section        4  entry2.o(.ARM.Collect$$$$00000001)
    .ARM.Collect$$$$00000004                 0x080000f8   Section        4  entry5.o(.ARM.Collect$$$$00000004)
    .ARM.Collect$$$$00000008                 0x080000fc   Section        0  entry7b.o(.ARM.Collect$$$$00000008)
    .ARM.Collect$$$$0000000A                 0x080000fc   Section        0  entry8b.o(.ARM.Collect$$$$0000000A)
    .ARM.Collect$$$$0000000B                 0x080000fc   Section        8  entry9a.o(.ARM.Collect$$$$0000000B)
    .ARM.Collect$$$$0000000D                 0x08000104   Section        0  entry10a.o(.ARM.Collect$$$$0000000D)
    .ARM.Collect$$$$0000000F                 0x08000104   Section        0  entry11a.o(.ARM.Collect$$$$0000000F)
    .ARM.Collect$$$$00002712                 0x08000104   Section        4  entry2.o(.ARM.Collect$$$$00002712)
    __lit__00000000                          0x08000104   Data           4  entry2.o(.ARM.Collect$$$$00002712)
    .text                                    0x08000108   Section       36  startup_stm32l151xb.o(.text)
    .text                                    0x0800012c   Section        0  memcpya.o(.text)
    .text                                    0x08000150   Section        0  memseta.o(.text)
    .text                                    0x08000174   Section        0  strncmp.o(.text)
    .text                                    0x08000192   Section        0  dadd.o(.text)
    .text                                    0x080002e0   Section        0  dmul.o(.text)
    .text                                    0x080003c4   Section        0  ddiv.o(.text)
    .text                                    0x080004a2   Section        0  dscalb.o(.text)
    .text                                    0x080004d0   Section        0  dflti.o(.text)
    .text                                    0x080004f2   Section        0  dfltui.o(.text)
    .text                                    0x0800050c   Section        0  dfixi.o(.text)
    .text                                    0x0800054a   Section        0  dfixui.o(.text)
    .text                                    0x0800057c   Section       48  cdcmple.o(.text)
    .text                                    0x080005ac   Section       48  cdrcmple.o(.text)
    .text                                    0x080005dc   Section        0  llshl.o(.text)
    .text                                    0x080005fa   Section        0  llushr.o(.text)
    .text                                    0x0800061a   Section        0  llsshr.o(.text)
    .text                                    0x0800063e   Section        0  iusefp.o(.text)
    .text                                    0x0800063e   Section        0  depilogue.o(.text)
    .text                                    0x080006f8   Section        0  drnd.o(.text)
    .text                                    0x08000780   Section       36  init.o(.text)
    i.ADC_ConversionStop_Disable             0x080007a4   Section        0  stm32l1xx_hal_adc.o(i.ADC_ConversionStop_Disable)
    i.AdcDeInit                              0x080007f0   Section        0  adc.o(i.AdcDeInit)
    i.AdcInit                                0x080007fc   Section        0  adc.o(i.AdcInit)
    i.AdcMcuConfig                           0x0800081c   Section        0  adc-board.o(i.AdcMcuConfig)
    i.AdcMcuInit                             0x08000848   Section        0  adc-board.o(i.AdcMcuInit)
    i.BlockLowPowerDuringTask                0x08000890   Section        0  rtc-board.o(i.BlockLowPowerDuringTask)
    i.BoardDeInitMcu                         0x080008a4   Section        0  board.o(i.BoardDeInitMcu)
    i.BoardDisableIrq                        0x08000918   Section        0  board.o(i.BoardDisableIrq)
    i.BoardEnableIrq                         0x08000928   Section        0  board.o(i.BoardEnableIrq)
    i.BoardInitMcu                           0x08000940   Section        0  board.o(i.BoardInitMcu)
    i.BoardInitPeriph                        0x080009e8   Section        0  board.o(i.BoardInitPeriph)
    i.BoardUnusedIoInit                      0x08000b48   Section        0  board.o(i.BoardUnusedIoInit)
    BoardUnusedIoInit                        0x08000b49   Thumb Code   182  board.o(i.BoardUnusedIoInit)
    i.BusFault_Handler                       0x08000bfe   Section        0  sysirqhandlers.o(i.BusFault_Handler)
    i.DebugMon_Handler                       0x08000c00   Section        0  sysirqhandlers.o(i.DebugMon_Handler)
    i.DelayMs                                0x08000c02   Section        0  delay.o(i.DelayMs)
    i.EXTI0_IRQHandler                       0x08000c06   Section        0  gpio-board.o(i.EXTI0_IRQHandler)
    i.EXTI15_10_IRQHandler                   0x08000c16   Section        0  gpio-board.o(i.EXTI15_10_IRQHandler)
    i.EXTI1_IRQHandler                       0x08000c50   Section        0  gpio-board.o(i.EXTI1_IRQHandler)
    i.EXTI2_IRQHandler                       0x08000c60   Section        0  gpio-board.o(i.EXTI2_IRQHandler)
    i.EXTI3_IRQHandler                       0x08000c70   Section        0  gpio-board.o(i.EXTI3_IRQHandler)
    i.EXTI4_IRQHandler                       0x08000c80   Section        0  gpio-board.o(i.EXTI4_IRQHandler)
    i.EXTI9_5_IRQHandler                     0x08000c90   Section        0  gpio-board.o(i.EXTI9_5_IRQHandler)
    i.FifoInit                               0x08000cbc   Section        0  fifo.o(i.FifoInit)
    i.FifoNext                               0x08000cc8   Section        0  fifo.o(i.FifoNext)
    FifoNext                                 0x08000cc9   Thumb Code    16  fifo.o(i.FifoNext)
    i.FifoPop                                0x08000cd8   Section        0  fifo.o(i.FifoPop)
    i.FifoPush                               0x08000cf4   Section        0  fifo.o(i.FifoPush)
    i.GetBoardPowerSource                    0x08000d08   Section        0  board.o(i.GetBoardPowerSource)
    i.GetFskBandwidthRegValue                0x08000d0c   Section        0  sx1276.o(i.GetFskBandwidthRegValue)
    GetFskBandwidthRegValue                  0x08000d0d   Thumb Code    40  sx1276.o(i.GetFskBandwidthRegValue)
    i.GpioInit                               0x08000d38   Section        0  gpio.o(i.GpioInit)
    i.GpioIoeInit                            0x08000d56   Section        0  gpio-ioe.o(i.GpioIoeInit)
    i.GpioIoeSetInterrupt                    0x08000e58   Section        0  gpio-ioe.o(i.GpioIoeSetInterrupt)
    i.GpioIoeWrite                           0x08000f58   Section        0  gpio-ioe.o(i.GpioIoeWrite)
    i.GpioMcuInit                            0x08000fa8   Section        0  gpio-board.o(i.GpioMcuInit)
    i.GpioMcuSetInterrupt                    0x080010ac   Section        0  gpio-board.o(i.GpioMcuSetInterrupt)
    i.GpioMcuWrite                           0x080011b4   Section        0  gpio-board.o(i.GpioMcuWrite)
    i.GpioSetInterrupt                       0x080011c8   Section        0  gpio.o(i.GpioSetInterrupt)
    i.GpioWrite                              0x080011e2   Section        0  gpio.o(i.GpioWrite)
    i.GpsConvertPositionFromStringToNumerical 0x080011f8   Section        0  gps.o(i.GpsConvertPositionFromStringToNumerical)
    i.GpsConvertPositionIntoBinary           0x08001414   Section        0  gps.o(i.GpsConvertPositionIntoBinary)
    i.GpsFormatGpsData                       0x080014a4   Section        0  gps.o(i.GpsFormatGpsData)
    i.GpsInit                                0x080014fc   Section        0  gps.o(i.GpsInit)
    i.GpsMcuInit                             0x0800150c   Section        0  gps-board.o(i.GpsMcuInit)
    i.GpsMcuInvertPpsTrigger                 0x0800157c   Section        0  gps-board.o(i.GpsMcuInvertPpsTrigger)
    i.GpsMcuIrqNotify                        0x08001580   Section        0  gps-board.o(i.GpsMcuIrqNotify)
    i.GpsMcuOnPpsSignal                      0x080015e0   Section        0  gps-board.o(i.GpsMcuOnPpsSignal)
    i.GpsMcuStart                            0x0800161c   Section        0  gps-board.o(i.GpsMcuStart)
    i.GpsNmeaChecksum                        0x08001628   Section        0  gps.o(i.GpsNmeaChecksum)
    i.GpsParseGpsData                        0x08001674   Section        0  gps.o(i.GpsParseGpsData)
    i.GpsPpsHandler                          0x08001a98   Section        0  gps.o(i.GpsPpsHandler)
    i.HAL_ADC_DeInit                         0x08001ac0   Section        0  stm32l1xx_hal_adc.o(i.HAL_ADC_DeInit)
    i.HAL_ADC_Init                           0x08001bc4   Section        0  stm32l1xx_hal_adc.o(i.HAL_ADC_Init)
    i.HAL_ADC_MspDeInit                      0x08001d48   Section        0  stm32l1xx_hal_adc.o(i.HAL_ADC_MspDeInit)
    i.HAL_ADC_MspInit                        0x08001d4a   Section        0  stm32l1xx_hal_adc.o(i.HAL_ADC_MspInit)
    i.HAL_DBGMCU_EnableDBGSleepMode          0x08001d4c   Section        0  stm32l1xx_hal.o(i.HAL_DBGMCU_EnableDBGSleepMode)
    i.HAL_DBGMCU_EnableDBGStandbyMode        0x08001d5c   Section        0  stm32l1xx_hal.o(i.HAL_DBGMCU_EnableDBGStandbyMode)
    i.HAL_DBGMCU_EnableDBGStopMode           0x08001d6c   Section        0  stm32l1xx_hal.o(i.HAL_DBGMCU_EnableDBGStopMode)
    i.HAL_Delay                              0x08001d7c   Section        0  stm32l1xx_hal.o(i.HAL_Delay)
    i.HAL_GPIO_EXTI_Callback                 0x08001d94   Section        0  gpio-board.o(i.HAL_GPIO_EXTI_Callback)
    i.HAL_GPIO_EXTI_IRQHandler               0x08001db8   Section        0  stm32l1xx_hal_gpio.o(i.HAL_GPIO_EXTI_IRQHandler)
    i.HAL_GPIO_Init                          0x08001dd0   Section        0  stm32l1xx_hal_gpio.o(i.HAL_GPIO_Init)
    i.HAL_GPIO_WritePin                      0x08001f64   Section        0  stm32l1xx_hal_gpio.o(i.HAL_GPIO_WritePin)
    i.HAL_GetTick                            0x08001f70   Section        0  stm32l1xx_hal.o(i.HAL_GetTick)
    i.HAL_I2C_Init                           0x08001f7c   Section        0  stm32l1xx_hal_i2c.o(i.HAL_I2C_Init)
    i.HAL_I2C_Mem_Read                       0x080020c0   Section        0  stm32l1xx_hal_i2c.o(i.HAL_I2C_Mem_Read)
    i.HAL_I2C_Mem_Write                      0x080022b4   Section        0  stm32l1xx_hal_i2c.o(i.HAL_I2C_Mem_Write)
    i.HAL_I2C_MspInit                        0x080023f8   Section        0  stm32l1xx_hal_i2c.o(i.HAL_I2C_MspInit)
    i.HAL_IncTick                            0x080023fc   Section        0  stm32l1xx_hal.o(i.HAL_IncTick)
    i.HAL_Init                               0x0800240c   Section        0  stm32l1xx_hal.o(i.HAL_Init)
    i.HAL_InitTick                           0x08002424   Section        0  stm32l1xx_hal.o(i.HAL_InitTick)
    i.HAL_MspInit                            0x0800244c   Section        0  stm32l1xx_hal.o(i.HAL_MspInit)
    i.HAL_NVIC_EnableIRQ                     0x0800244e   Section        0  stm32l1xx_hal_cortex.o(i.HAL_NVIC_EnableIRQ)
    i.HAL_NVIC_SetPriority                   0x08002464   Section        0  stm32l1xx_hal_cortex.o(i.HAL_NVIC_SetPriority)
    i.HAL_NVIC_SetPriorityGrouping           0x080024a4   Section        0  stm32l1xx_hal_cortex.o(i.HAL_NVIC_SetPriorityGrouping)
    i.HAL_PWREx_EnableFastWakeUp             0x080024c8   Section        0  stm32l1xx_hal_pwr_ex.o(i.HAL_PWREx_EnableFastWakeUp)
    i.HAL_PWREx_EnableUltraLowPower          0x080024e0   Section        0  stm32l1xx_hal_pwr_ex.o(i.HAL_PWREx_EnableUltraLowPower)
    i.HAL_PWREx_GetVoltageRange              0x080024f8   Section        0  stm32l1xx_hal_pwr_ex.o(i.HAL_PWREx_GetVoltageRange)
    i.HAL_PWR_DisablePVD                     0x08002508   Section        0  stm32l1xx_hal_pwr.o(i.HAL_PWR_DisablePVD)
    i.HAL_PWR_EnterSTOPMode                  0x08002520   Section        0  stm32l1xx_hal_pwr.o(i.HAL_PWR_EnterSTOPMode)
    i.HAL_RCCEx_PeriphCLKConfig              0x08002558   Section        0  stm32l1xx_hal_rcc_ex.o(i.HAL_RCCEx_PeriphCLKConfig)
    i.HAL_RCC_ClockConfig                    0x080026cc   Section        0  stm32l1xx_hal_rcc.o(i.HAL_RCC_ClockConfig)
    i.HAL_RCC_GetHCLKFreq                    0x08002898   Section        0  stm32l1xx_hal_rcc.o(i.HAL_RCC_GetHCLKFreq)
    i.HAL_RCC_GetPCLK1Freq                   0x080028a4   Section        0  stm32l1xx_hal_rcc.o(i.HAL_RCC_GetPCLK1Freq)
    i.HAL_RCC_GetPCLK2Freq                   0x080028d4   Section        0  stm32l1xx_hal_rcc.o(i.HAL_RCC_GetPCLK2Freq)
    i.HAL_RCC_GetSysClockFreq                0x08002904   Section        0  stm32l1xx_hal_rcc.o(i.HAL_RCC_GetSysClockFreq)
    i.HAL_RCC_OscConfig                      0x08002990   Section        0  stm32l1xx_hal_rcc.o(i.HAL_RCC_OscConfig)
    i.HAL_RTCEx_AlarmBEventCallback          0x080030c8   Section        0  stm32l1xx_hal_rtc_ex.o(i.HAL_RTCEx_AlarmBEventCallback)
    i.HAL_RTCEx_DeactivateWakeUpTimer        0x080030ca   Section        0  stm32l1xx_hal_rtc_ex.o(i.HAL_RTCEx_DeactivateWakeUpTimer)
    i.HAL_RTC_AlarmAEventCallback            0x08003144   Section        0  stm32l1xx_hal_rtc.o(i.HAL_RTC_AlarmAEventCallback)
    i.HAL_RTC_AlarmIRQHandler                0x08003148   Section        0  stm32l1xx_hal_rtc.o(i.HAL_RTC_AlarmIRQHandler)
    i.HAL_RTC_DeactivateAlarm                0x080031a4   Section        0  stm32l1xx_hal_rtc.o(i.HAL_RTC_DeactivateAlarm)
    i.HAL_RTC_GetAlarm                       0x08003256   Section        0  stm32l1xx_hal_rtc_ex.o(i.HAL_RTC_GetAlarm)
    i.HAL_RTC_GetDate                        0x080032c4   Section        0  stm32l1xx_hal_rtc.o(i.HAL_RTC_GetDate)
    i.HAL_RTC_GetTime                        0x08003308   Section        0  stm32l1xx_hal_rtc_ex.o(i.HAL_RTC_GetTime)
    i.HAL_RTC_Init                           0x08003350   Section        0  stm32l1xx_hal_rtc.o(i.HAL_RTC_Init)
    i.HAL_RTC_MspInit                        0x080033ec   Section        0  stm32l1xx_hal_rtc.o(i.HAL_RTC_MspInit)
    i.HAL_RTC_SetAlarm_IT                    0x080033f0   Section        0  stm32l1xx_hal_rtc_ex.o(i.HAL_RTC_SetAlarm_IT)
    i.HAL_RTC_SetDate                        0x08003570   Section        0  stm32l1xx_hal_rtc.o(i.HAL_RTC_SetDate)
    i.HAL_RTC_SetTime                        0x08003638   Section        0  stm32l1xx_hal_rtc.o(i.HAL_RTC_SetTime)
    i.HAL_RTC_WaitForSynchro                 0x08003720   Section        0  stm32l1xx_hal_rtc_ex.o(i.HAL_RTC_WaitForSynchro)
    i.HAL_SPI_DeInit                         0x08003754   Section        0  stm32l1xx_hal_spi.o(i.HAL_SPI_DeInit)
    i.HAL_SPI_Init                           0x0800377c   Section        0  stm32l1xx_hal_spi_ex.o(i.HAL_SPI_Init)
    i.HAL_SPI_MspDeInit                      0x080037f6   Section        0  stm32l1xx_hal_spi.o(i.HAL_SPI_MspDeInit)
    i.HAL_SPI_MspInit                        0x080037f8   Section        0  stm32l1xx_hal_spi.o(i.HAL_SPI_MspInit)
    i.HAL_SYSTICK_CLKSourceConfig            0x080037fa   Section        0  stm32l1xx_hal_cortex.o(i.HAL_SYSTICK_CLKSourceConfig)
    i.HAL_SYSTICK_Callback                   0x08003812   Section        0  stm32l1xx_hal_cortex.o(i.HAL_SYSTICK_Callback)
    i.HAL_SYSTICK_Config                     0x08003814   Section        0  stm32l1xx_hal_cortex.o(i.HAL_SYSTICK_Config)
    i.HAL_SYSTICK_IRQHandler                 0x0800383c   Section        0  stm32l1xx_hal_cortex.o(i.HAL_SYSTICK_IRQHandler)
    i.HAL_UART_ErrorCallback                 0x08003844   Section        0  uart-board.o(i.HAL_UART_ErrorCallback)
    i.HAL_UART_IRQHandler                    0x08003858   Section        0  stm32l1xx_hal_uart.o(i.HAL_UART_IRQHandler)
    i.HAL_UART_Init                          0x08003930   Section        0  stm32l1xx_hal_uart.o(i.HAL_UART_Init)
    i.HAL_UART_MspInit                       0x0800398e   Section        0  stm32l1xx_hal_uart.o(i.HAL_UART_MspInit)
    i.HAL_UART_Receive_IT                    0x08003990   Section        0  stm32l1xx_hal_uart.o(i.HAL_UART_Receive_IT)
    i.HAL_UART_RxCpltCallback                0x080039f8   Section        0  uart-board.o(i.HAL_UART_RxCpltCallback)
    i.HAL_UART_Transmit_IT                   0x08003a34   Section        0  stm32l1xx_hal_uart.o(i.HAL_UART_Transmit_IT)
    i.HAL_UART_TxCpltCallback                0x08003a88   Section        0  uart-board.o(i.HAL_UART_TxCpltCallback)
    i.I2C_IsAcknowledgeFailed                0x08003ac8   Section        0  stm32l1xx_hal_i2c.o(i.I2C_IsAcknowledgeFailed)
    I2C_IsAcknowledgeFailed                  0x08003ac9   Thumb Code    40  stm32l1xx_hal_i2c.o(i.I2C_IsAcknowledgeFailed)
    i.I2C_RequestMemoryRead                  0x08003af0   Section        0  stm32l1xx_hal_i2c.o(i.I2C_RequestMemoryRead)
    I2C_RequestMemoryRead                    0x08003af1   Thumb Code   240  stm32l1xx_hal_i2c.o(i.I2C_RequestMemoryRead)
    i.I2C_RequestMemoryWrite                 0x08003be0   Section        0  stm32l1xx_hal_i2c.o(i.I2C_RequestMemoryWrite)
    I2C_RequestMemoryWrite                   0x08003be1   Thumb Code   156  stm32l1xx_hal_i2c.o(i.I2C_RequestMemoryWrite)
    i.I2C_WaitOnBTFFlagUntilTimeout          0x08003c80   Section        0  stm32l1xx_hal_i2c.o(i.I2C_WaitOnBTFFlagUntilTimeout)
    I2C_WaitOnBTFFlagUntilTimeout            0x08003c81   Thumb Code    78  stm32l1xx_hal_i2c.o(i.I2C_WaitOnBTFFlagUntilTimeout)
    i.I2C_WaitOnFlagUntilTimeout             0x08003cce   Section        0  stm32l1xx_hal_i2c.o(i.I2C_WaitOnFlagUntilTimeout)
    I2C_WaitOnFlagUntilTimeout               0x08003ccf   Thumb Code    96  stm32l1xx_hal_i2c.o(i.I2C_WaitOnFlagUntilTimeout)
    i.I2C_WaitOnMasterAddressFlagUntilTimeout 0x08003d2e   Section        0  stm32l1xx_hal_i2c.o(i.I2C_WaitOnMasterAddressFlagUntilTimeout)
    I2C_WaitOnMasterAddressFlagUntilTimeout  0x08003d2f   Thumb Code   134  stm32l1xx_hal_i2c.o(i.I2C_WaitOnMasterAddressFlagUntilTimeout)
    i.I2C_WaitOnRXNEFlagUntilTimeout         0x08003db4   Section        0  stm32l1xx_hal_i2c.o(i.I2C_WaitOnRXNEFlagUntilTimeout)
    I2C_WaitOnRXNEFlagUntilTimeout           0x08003db5   Thumb Code   100  stm32l1xx_hal_i2c.o(i.I2C_WaitOnRXNEFlagUntilTimeout)
    i.I2C_WaitOnTXEFlagUntilTimeout          0x08003e18   Section        0  stm32l1xx_hal_i2c.o(i.I2C_WaitOnTXEFlagUntilTimeout)
    I2C_WaitOnTXEFlagUntilTimeout            0x08003e19   Thumb Code    78  stm32l1xx_hal_i2c.o(i.I2C_WaitOnTXEFlagUntilTimeout)
    i.I2cInit                                0x08003e68   Section        0  i2c.o(i.I2cInit)
    i.I2cMcuFormat                           0x08003e9c   Section        0  i2c-board.o(i.I2cMcuFormat)
    i.I2cMcuInit                             0x08003ed8   Section        0  i2c-board.o(i.I2cMcuInit)
    i.I2cMcuReadBuffer                       0x08003f44   Section        0  i2c-board.o(i.I2cMcuReadBuffer)
    i.I2cMcuWriteBuffer                      0x08003f74   Section        0  i2c-board.o(i.I2cMcuWriteBuffer)
    i.I2cReadBuffer                          0x08003fa4   Section        0  i2c.o(i.I2cReadBuffer)
    i.I2cResetBus                            0x08003fc0   Section        0  i2c.o(i.I2cResetBus)
    i.I2cWriteBuffer                         0x08003fd4   Section        0  i2c.o(i.I2cWriteBuffer)
    i.IsFifoEmpty                            0x08004010   Section        0  fifo.o(i.IsFifoEmpty)
    i.IsFifoFull                             0x08004020   Section        0  fifo.o(i.IsFifoFull)
    i.MAG3110Init                            0x08004038   Section        0  mag3110.o(i.MAG3110Init)
    i.MAG3110Read                            0x08004070   Section        0  mag3110.o(i.MAG3110Read)
    i.MAG3110ReadBuffer                      0x08004078   Section        0  mag3110.o(i.MAG3110ReadBuffer)
    i.MAG3110Reset                           0x08004098   Section        0  mag3110.o(i.MAG3110Reset)
    i.MAG3110Write                           0x080040aa   Section        0  mag3110.o(i.MAG3110Write)
    i.MAG3110WriteBuffer                     0x080040b8   Section        0  mag3110.o(i.MAG3110WriteBuffer)
    i.MMA8451Init                            0x080040d8   Section        0  mma8451.o(i.MMA8451Init)
    i.MMA8451OrientDetect                    0x0800411c   Section        0  mma8451.o(i.MMA8451OrientDetect)
    i.MMA8451Read                            0x08004192   Section        0  mma8451.o(i.MMA8451Read)
    i.MMA8451ReadBuffer                      0x08004198   Section        0  mma8451.o(i.MMA8451ReadBuffer)
    i.MMA8451Reset                           0x080041b8   Section        0  mma8451.o(i.MMA8451Reset)
    i.MMA8451Write                           0x080041ca   Section        0  mma8451.o(i.MMA8451Write)
    i.MMA8451WriteBuffer                     0x080041d8   Section        0  mma8451.o(i.MMA8451WriteBuffer)
    i.MPL3115Init                            0x080041f8   Section        0  mpl3115.o(i.MPL3115Init)
    i.MPL3115Read                            0x08004254   Section        0  mpl3115.o(i.MPL3115Read)
    i.MPL3115ReadBuffer                      0x0800425c   Section        0  mpl3115.o(i.MPL3115ReadBuffer)
    i.MPL3115Write                           0x0800427c   Section        0  mpl3115.o(i.MPL3115Write)
    i.MPL3115WriteBuffer                     0x08004288   Section        0  mpl3115.o(i.MPL3115WriteBuffer)
    i.MemManage_Handler                      0x080042a8   Section        0  sysirqhandlers.o(i.MemManage_Handler)
    i.NMI_Handler                            0x080042aa   Section        0  sysirqhandlers.o(i.NMI_Handler)
    i.NVIC_SetPriority                       0x080042ac   Section        0  stm32l1xx_hal_cortex.o(i.NVIC_SetPriority)
    NVIC_SetPriority                         0x080042ad   Thumb Code    32  stm32l1xx_hal_cortex.o(i.NVIC_SetPriority)
    i.Nibble2HexChar                         0x080042cc   Section        0  utilities.o(i.Nibble2HexChar)
    i.OnCalibrateSystemWakeupTimeTimerEvent  0x080042e4   Section        0  board.o(i.OnCalibrateSystemWakeupTimeTimerEvent)
    OnCalibrateSystemWakeupTimeTimerEvent    0x080042e5   Thumb Code     8  board.o(i.OnCalibrateSystemWakeupTimeTimerEvent)
    i.OnRxDone                               0x080042f0   Section        0  main.o(i.OnRxDone)
    i.RCC_SetFlashLatencyFromMSIRange        0x0800431c   Section        0  stm32l1xx_hal_rcc.o(i.RCC_SetFlashLatencyFromMSIRange)
    RCC_SetFlashLatencyFromMSIRange          0x0800431d   Thumb Code   112  stm32l1xx_hal_rcc.o(i.RCC_SetFlashLatencyFromMSIRange)
    i.RTC_Alarm_IRQHandler                   0x08004394   Section        0  rtc-board.o(i.RTC_Alarm_IRQHandler)
    i.RTC_Bcd2ToByte                         0x080043c0   Section        0  stm32l1xx_hal_rtc.o(i.RTC_Bcd2ToByte)
    i.RTC_ByteToBcd2                         0x080043d2   Section        0  stm32l1xx_hal_rtc.o(i.RTC_ByteToBcd2)
    i.RTC_EnterInitMode                      0x080043e8   Section        0  stm32l1xx_hal_rtc.o(i.RTC_EnterInitMode)
    i.RtcComputeTimerTimeToAlarmTick         0x08004420   Section        0  rtc-board.o(i.RtcComputeTimerTimeToAlarmTick)
    RtcComputeTimerTimeToAlarmTick           0x08004421   Thumb Code   432  rtc-board.o(i.RtcComputeTimerTimeToAlarmTick)
    i.RtcComputeWakeUpTime                   0x080045f8   Section        0  rtc-board.o(i.RtcComputeWakeUpTime)
    RtcComputeWakeUpTime                     0x080045f9   Thumb Code   138  rtc-board.o(i.RtcComputeWakeUpTime)
    i.RtcConvertCalendarTickToTimerTime      0x08004690   Section        0  rtc-board.o(i.RtcConvertCalendarTickToTimerTime)
    RtcConvertCalendarTickToTimerTime        0x08004691   Thumb Code   278  rtc-board.o(i.RtcConvertCalendarTickToTimerTime)
    i.RtcEnterLowPowerStopMode               0x080047bc   Section        0  rtc-board.o(i.RtcEnterLowPowerStopMode)
    i.RtcGetAdjustedTimeoutValue             0x080047f8   Section        0  rtc-board.o(i.RtcGetAdjustedTimeoutValue)
    i.RtcGetCalendar                         0x08004828   Section        0  rtc-board.o(i.RtcGetCalendar)
    RtcGetCalendar                           0x08004829   Thumb Code    80  rtc-board.o(i.RtcGetCalendar)
    i.RtcGetElapsedAlarmTime                 0x08004880   Section        0  rtc-board.o(i.RtcGetElapsedAlarmTime)
    i.RtcInit                                0x080048a4   Section        0  rtc-board.o(i.RtcInit)
    i.RtcRecoverMcuStatus                    0x08004934   Section        0  rtc-board.o(i.RtcRecoverMcuStatus)
    i.RtcSetTimeout                          0x08004974   Section        0  rtc-board.o(i.RtcSetTimeout)
    i.RtcStartWakeUpAlarm                    0x08004978   Section        0  rtc-board.o(i.RtcStartWakeUpAlarm)
    RtcStartWakeUpAlarm                      0x08004979   Thumb Code   142  rtc-board.o(i.RtcStartWakeUpAlarm)
    i.RxChainCalibration                     0x08004a0c   Section        0  sx1276.o(i.RxChainCalibration)
    RxChainCalibration                       0x08004a0d   Thumb Code   138  sx1276.o(i.RxChainCalibration)
    i.SX1276AntSwDeInit                      0x08004aa0   Section        0  sx1276-board.o(i.SX1276AntSwDeInit)
    i.SX1276AntSwInit                        0x08004acc   Section        0  sx1276-board.o(i.SX1276AntSwInit)
    i.SX1276CheckRfFrequency                 0x08004afc   Section        0  sx1276-board.o(i.SX1276CheckRfFrequency)
    i.SX1276GetPaSelect                      0x08004b00   Section        0  sx1276-board.o(i.SX1276GetPaSelect)
    i.SX1276GetStatus                        0x08004b14   Section        0  sx1276.o(i.SX1276GetStatus)
    i.SX1276GetTimeOnAir                     0x08004b20   Section        0  sx1276.o(i.SX1276GetTimeOnAir)
    i.SX1276Init                             0x08004d18   Section        0  sx1276.o(i.SX1276Init)
    i.SX1276IoDeInit                         0x08004d94   Section        0  sx1276-board.o(i.SX1276IoDeInit)
    i.SX1276IoInit                           0x08004e1c   Section        0  sx1276-board.o(i.SX1276IoInit)
    i.SX1276IoIrqInit                        0x08004ea4   Section        0  sx1276-board.o(i.SX1276IoIrqInit)
    i.SX1276IsChannelFree                    0x08004f04   Section        0  sx1276.o(i.SX1276IsChannelFree)
    i.SX1276OnDio0Irq                        0x08004f3c   Section        0  sx1276.o(i.SX1276OnDio0Irq)
    i.SX1276OnDio1Irq                        0x0800518c   Section        0  sx1276.o(i.SX1276OnDio1Irq)
    i.SX1276OnDio2Irq                        0x08005270   Section        0  sx1276.o(i.SX1276OnDio2Irq)
    i.SX1276OnDio3Irq                        0x0800533c   Section        0  sx1276.o(i.SX1276OnDio3Irq)
    i.SX1276OnDio4Irq                        0x08005398   Section        0  sx1276.o(i.SX1276OnDio4Irq)
    i.SX1276OnTimeoutIrq                     0x080053b8   Section        0  sx1276.o(i.SX1276OnTimeoutIrq)
    i.SX1276Random                           0x0800549c   Section        0  sx1276.o(i.SX1276Random)
    i.SX1276Read                             0x080054da   Section        0  sx1276.o(i.SX1276Read)
    i.SX1276ReadBuffer                       0x080054ec   Section        0  sx1276.o(i.SX1276ReadBuffer)
    i.SX1276ReadFifo                         0x08005534   Section        0  sx1276.o(i.SX1276ReadFifo)
    i.SX1276ReadRssi                         0x08005540   Section        0  sx1276.o(i.SX1276ReadRssi)
    i.SX1276Reset                            0x08005584   Section        0  sx1276.o(i.SX1276Reset)
    i.SX1276Send                             0x080055c0   Section        0  sx1276.o(i.SX1276Send)
    i.SX1276SetAntSw                         0x080056b8   Section        0  sx1276-board.o(i.SX1276SetAntSw)
    i.SX1276SetAntSwLowPower                 0x080056e4   Section        0  sx1276-board.o(i.SX1276SetAntSwLowPower)
    i.SX1276SetChannel                       0x08005700   Section        0  sx1276.o(i.SX1276SetChannel)
    i.SX1276SetMaxPayloadLength              0x08005744   Section        0  sx1276.o(i.SX1276SetMaxPayloadLength)
    i.SX1276SetModem                         0x08005778   Section        0  sx1276.o(i.SX1276SetModem)
    i.SX1276SetOpMode                        0x080057f0   Section        0  sx1276.o(i.SX1276SetOpMode)
    i.SX1276SetPublicNetwork                 0x08005820   Section        0  sx1276.o(i.SX1276SetPublicNetwork)
    i.SX1276SetRfTxPower                     0x08005848   Section        0  sx1276-board.o(i.SX1276SetRfTxPower)
    i.SX1276SetRx                            0x080058ec   Section        0  sx1276.o(i.SX1276SetRx)
    i.SX1276SetRxConfig                      0x08005b28   Section        0  sx1276.o(i.SX1276SetRxConfig)
    i.SX1276SetSleep                         0x08005dc0   Section        0  sx1276.o(i.SX1276SetSleep)
    i.SX1276SetStby                          0x08005de8   Section        0  sx1276.o(i.SX1276SetStby)
    i.SX1276SetTx                            0x08005e10   Section        0  sx1276.o(i.SX1276SetTx)
    i.SX1276SetTxConfig                      0x08005eb4   Section        0  sx1276.o(i.SX1276SetTxConfig)
    i.SX1276SetTxContinuousWave              0x080060bc   Section        0  sx1276.o(i.SX1276SetTxContinuousWave)
    i.SX1276StartCad                         0x08006154   Section        0  sx1276.o(i.SX1276StartCad)
    i.SX1276Write                            0x08006194   Section        0  sx1276.o(i.SX1276Write)
    i.SX1276WriteBuffer                      0x080061a0   Section        0  sx1276.o(i.SX1276WriteBuffer)
    i.SX1276WriteFifo                        0x080061e8   Section        0  sx1276.o(i.SX1276WriteFifo)
    i.SX1509Init                             0x080061f4   Section        0  sx1509.o(i.SX1509Init)
    i.SX1509Read                             0x08006210   Section        0  sx1509.o(i.SX1509Read)
    i.SX1509ReadBuffer                       0x08006218   Section        0  sx1509.o(i.SX1509ReadBuffer)
    i.SX1509Reset                            0x08006238   Section        0  sx1509.o(i.SX1509Reset)
    i.SX1509Write                            0x08006256   Section        0  sx1509.o(i.SX1509Write)
    i.SX1509WriteBuffer                      0x08006264   Section        0  sx1509.o(i.SX1509WriteBuffer)
    i.SX9500Init                             0x08006284   Section        0  sx9500.o(i.SX9500Init)
    i.SX9500Read                             0x080062bc   Section        0  sx9500.o(i.SX9500Read)
    i.SX9500ReadBuffer                       0x080062c4   Section        0  sx9500.o(i.SX9500ReadBuffer)
    i.SX9500Reset                            0x080062e4   Section        0  sx9500.o(i.SX9500Reset)
    i.SX9500Write                            0x080062f6   Section        0  sx9500.o(i.SX9500Write)
    i.SX9500WriteBuffer                      0x08006304   Section        0  sx9500.o(i.SX9500WriteBuffer)
    i.SpiDeInit                              0x08006324   Section        0  spi-board.o(i.SpiDeInit)
    i.SpiFormat                              0x08006384   Section        0  spi-board.o(i.SpiFormat)
    i.SpiFrequency                           0x080063b4   Section        0  spi-board.o(i.SpiFrequency)
    i.SpiInOut                               0x080063e0   Section        0  spi-board.o(i.SpiInOut)
    i.SpiInit                                0x08006418   Section        0  spi-board.o(i.SpiInit)
    i.SysTick_Handler                        0x08006528   Section        0  board.o(i.SysTick_Handler)
    i.SystemClockConfig                      0x08006538   Section        0  board.o(i.SystemClockConfig)
    SystemClockConfig                        0x08006539   Thumb Code   146  board.o(i.SystemClockConfig)
    i.SystemClockReConfig                    0x080065d4   Section        0  board.o(i.SystemClockReConfig)
    SystemClockReConfig                      0x080065d5   Thumb Code   186  board.o(i.SystemClockReConfig)
    i.SystemInit                             0x0800669c   Section        0  system_stm32l1xx.o(i.SystemInit)
    i.TimerInit                              0x080066ec   Section        0  timer.o(i.TimerInit)
    i.TimerInsertNewHeadTimer                0x080066fc   Section        0  timer.o(i.TimerInsertNewHeadTimer)
    TimerInsertNewHeadTimer                  0x080066fd   Thumb Code    32  timer.o(i.TimerInsertNewHeadTimer)
    i.TimerInsertTimer                       0x08006720   Section        0  timer.o(i.TimerInsertTimer)
    TimerInsertTimer                         0x08006721   Thumb Code    76  timer.o(i.TimerInsertTimer)
    i.TimerIrqHandler                        0x08006770   Section        0  timer.o(i.TimerIrqHandler)
    i.TimerLowPowerHandler                   0x080067c4   Section        0  timer.o(i.TimerLowPowerHandler)
    i.TimerSetTimeout                        0x080067fc   Section        0  timer.o(i.TimerSetTimeout)
    TimerSetTimeout                          0x080067fd   Thumb Code    26  timer.o(i.TimerSetTimeout)
    i.TimerSetValue                          0x0800681c   Section        0  timer.o(i.TimerSetValue)
    i.TimerStart                             0x0800682c   Section        0  timer.o(i.TimerStart)
    i.TimerStop                              0x0800688c   Section        0  timer.o(i.TimerStop)
    i.UART_Receive_IT                        0x08006918   Section        0  stm32l1xx_hal_uart.o(i.UART_Receive_IT)
    UART_Receive_IT                          0x08006919   Thumb Code   166  stm32l1xx_hal_uart.o(i.UART_Receive_IT)
    i.UART_SetConfig                         0x080069c0   Section        0  stm32l1xx_hal_uart.o(i.UART_SetConfig)
    UART_SetConfig                           0x080069c1   Thumb Code   666  stm32l1xx_hal_uart.o(i.UART_SetConfig)
    i.UART_Transmit_IT                       0x08006c60   Section        0  stm32l1xx_hal_uart.o(i.UART_Transmit_IT)
    UART_Transmit_IT                         0x08006c61   Thumb Code   102  stm32l1xx_hal_uart.o(i.UART_Transmit_IT)
    i.USART1_IRQHandler                      0x08006cc8   Section        0  uart-board.o(i.USART1_IRQHandler)
    i.UartConfig                             0x08006cd4   Section        0  uart.o(i.UartConfig)
    i.UartDeInit                             0x08006cee   Section        0  uart.o(i.UartDeInit)
    i.UartGetChar                            0x08006cfe   Section        0  uart.o(i.UartGetChar)
    i.UartInit                               0x08006d0c   Section        0  uart.o(i.UartInit)
    i.UartMcuConfig                          0x08006d28   Section        0  uart-board.o(i.UartMcuConfig)
    i.UartMcuDeInit                          0x08006de4   Section        0  uart-board.o(i.UartMcuDeInit)
    i.UartMcuGetChar                         0x08006e34   Section        0  uart-board.o(i.UartMcuGetChar)
    i.UartMcuInit                            0x08006e64   Section        0  uart-board.o(i.UartMcuInit)
    i.UsageFault_Handler                     0x08006ec4   Section        0  sysirqhandlers.o(i.UsageFault_Handler)
    i.__scatterload_copy                     0x08006ec6   Section       14  handlers.o(i.__scatterload_copy)
    i.__scatterload_null                     0x08006ed4   Section        2  handlers.o(i.__scatterload_null)
    i.__scatterload_zeroinit                 0x08006ed6   Section       14  handlers.o(i.__scatterload_zeroinit)
    i.ceil                                   0x08006ee4   Section        0  ceil.o(i.ceil)
    i.floor                                  0x08006fc0   Section        0  floor.o(i.floor)
    i.main                                   0x0800709c   Section        0  main.o(i.main)
    i.memcpy1                                0x08007124   Section        0  utilities.o(i.memcpy1)
    i.round                                  0x08007138   Section        0  round.o(i.round)
    .constdata                               0x080071cc   Section       24  rtc-board.o(.constdata)
    DaysInMonth                              0x080071cc   Data          12  rtc-board.o(.constdata)
    DaysInMonthLeapYear                      0x080071d8   Data          12  rtc-board.o(.constdata)
    .constdata                               0x080071e4   Section       92  sx1276-board.o(.constdata)
    .constdata                               0x08007240   Section       25  system_stm32l1xx.o(.constdata)
    .constdata                               0x08007259   Section        8  system_stm32l1xx.o(.constdata)
    .constdata                               0x08007264   Section      224  sx1276.o(.constdata)
    .constdata                               0x08007344   Section       12  gps.o(.constdata)
    .data                                    0x20000000   Section        1  main.o(.data)
    ledState                                 0x20000000   Data           1  main.o(.data)
    .data                                    0x20000002   Section        6  board.o(.data)
    McuInitialized                           0x20000002   Data           1  board.o(.data)
    SystemWakeupTimeCalibrated               0x20000003   Data           1  board.o(.data)
    IrqNestLevel                             0x20000004   Data           1  board.o(.data)
    BatteryVoltage                           0x20000006   Data           2  board.o(.data)
    .data                                    0x20000008   Section        2  gps-board.o(.data)
    .data                                    0x2000000a   Section        1  i2c-board.o(.data)
    .data                                    0x2000000c   Section       16  rtc-board.o(.data)
    CalendarRollOverReady                    0x2000000c   Data           1  rtc-board.o(.data)
    RtcTimerEventAllowsLowPower              0x2000000e   Data           1  rtc-board.o(.data)
    LowPowerDisableDuringTask                0x2000000f   Data           1  rtc-board.o(.data)
    RtcInitialized                           0x20000010   Data           1  rtc-board.o(.data)
    WakeUpTimeInitialized                    0x20000011   Data           1  rtc-board.o(.data)
    Century                                  0x20000012   Data           2  rtc-board.o(.data)
    TimeoutValueError                        0x20000018   Data           4  rtc-board.o(.data)
    .data                                    0x2000001c   Section        1  sx1276-board.o(.data)
    RadioIsActive                            0x2000001c   Data           1  sx1276-board.o(.data)
    .data                                    0x2000001d   Section        2  uart-board.o(.data)
    .data                                    0x20000020   Section        4  system_stm32l1xx.o(.data)
    .data                                    0x20000024   Section        4  stm32l1xx_hal.o(.data)
    .data                                    0x20000028   Section        2  mag3110.o(.data)
    I2cDeviceAddr                            0x20000028   Data           1  mag3110.o(.data)
    MAG3110Initialized                       0x20000029   Data           1  mag3110.o(.data)
    .data                                    0x2000002a   Section        2  mma8451.o(.data)
    I2cDeviceAddr                            0x2000002a   Data           1  mma8451.o(.data)
    MMA8451Initialized                       0x2000002b   Data           1  mma8451.o(.data)
    .data                                    0x2000002c   Section        2  mpl3115.o(.data)
    I2cDeviceAddr                            0x2000002c   Data           1  mpl3115.o(.data)
    MPL3115Initialized                       0x2000002d   Data           1  mpl3115.o(.data)
    .data                                    0x2000002e   Section        2  sx1509.o(.data)
    I2cDeviceAddr                            0x2000002e   Data           1  sx1509.o(.data)
    SX1509Initialized                        0x2000002f   Data           1  sx1509.o(.data)
    .data                                    0x20000030   Section        2  sx9500.o(.data)
    I2cDeviceAddr                            0x20000030   Data           1  sx9500.o(.data)
    SX9500Initialized                        0x20000031   Data           1  sx9500.o(.data)
    .data                                    0x20000034   Section       28  sx1276.o(.data)
    RadioEvents                              0x20000034   Data           4  sx1276.o(.data)
    .data                                    0x20000050   Section        1  adc.o(.data)
    AdcInitialized                           0x20000050   Data           1  adc.o(.data)
    .data                                    0x20000058   Section       40  gps.o(.data)
    Altitude                                 0x2000005a   Data           2  gps.o(.data)
    LatitudeBinary                           0x2000005c   Data           4  gps.o(.data)
    LongitudeBinary                          0x20000060   Data           4  gps.o(.data)
    PpsCnt                                   0x20000064   Data           4  gps.o(.data)
    HasFix                                   0x20000068   Data           8  gps.o(.data)
    Latitude                                 0x20000070   Data           8  gps.o(.data)
    Longitude                                0x20000078   Data           8  gps.o(.data)
    .data                                    0x20000080   Section        1  i2c.o(.data)
    I2cInitialized                           0x20000080   Data           1  i2c.o(.data)
    .data                                    0x20000084   Section        8  timer.o(.data)
    TimerListHead                            0x20000088   Data           4  timer.o(.data)
    .bss                                     0x2000008c   Section       52  main.o(.bss)
    RadioEvents                              0x2000008c   Data          28  main.o(.bss)
    .bss                                     0x200000c0   Section       84  adc-board.o(.bss)
    .bss                                     0x20000114   Section      200  board.o(.bss)
    CalibrateSystemWakeupTimeTimer           0x200001c8   Data          20  board.o(.bss)
    .bss                                     0x200001dc   Section       56  board.o(.bss)
    .bss                                     0x20000214   Section       64  gpio-board.o(.bss)
    GpioIrq                                  0x20000214   Data          64  gpio-board.o(.bss)
    .bss                                     0x20000254   Section      280  gps-board.o(.bss)
    .bss                                     0x2000036c   Section       52  rtc-board.o(.bss)
    .bss                                     0x200003a0   Section       24  sx1276-board.o(.bss)
    .bss                                     0x200003b8   Section       64  uart-board.o(.bss)
    .bss                                     0x200003f8   Section       64  gpio-ioe.o(.bss)
    GpioIoeIrq                               0x200003f8   Data          64  gpio-ioe.o(.bss)
    .bss                                     0x20000438   Section      636  sx1276.o(.bss)
    RxTxBuffer                               0x20000438   Data         256  sx1276.o(.bss)
    .bss                                     0x200006b4   Section       99  gps.o(.bss)
    STACK                                    0x20000718   Section     1024  startup_stm32l151xb.o(STACK)

    Global Symbols

    Symbol Name                              Value     Ov Type        Size  Object(Section)

    BuildAttributes$$THM_ISAv4$P$D$K$B$S$PE$A:L22UL41UL21$X:L11$S22US41US21$IEEE1$IW$USESV6$~STKCKD$USESV7$~SHL$OTIME$ROPI$IEEEJ$EBA8$MICROLIB$REQ8$PRES8$EABIv2 0x00000000   Number         0  anon$$obj.o ABSOLUTE
    __ARM_use_no_argv                        0x00000000   Number         0  main.o ABSOLUTE
    __cpp_initialize__aeabi_                  - Undefined Weak Reference
    __cxa_finalize                            - Undefined Weak Reference
    __decompress                              - Undefined Weak Reference
    _clock_init                               - Undefined Weak Reference
    _microlib_exit                            - Undefined Weak Reference
    __Vectors_Size                           0x000000f4   Number         0  startup_stm32l151xb.o ABSOLUTE
    __Vectors                                0x08000000   Data           4  startup_stm32l151xb.o(RESET)
    __Vectors_End                            0x080000f4   Data           0  startup_stm32l151xb.o(RESET)
    __main                                   0x080000f5   Thumb Code     0  entry.o(.ARM.Collect$$$$00000000)
    _main_stk                                0x080000f5   Thumb Code     0  entry2.o(.ARM.Collect$$$$00000001)
    _main_scatterload                        0x080000f9   Thumb Code     0  entry5.o(.ARM.Collect$$$$00000004)
    __main_after_scatterload                 0x080000fd   Thumb Code     0  entry5.o(.ARM.Collect$$$$00000004)
    _main_clock                              0x080000fd   Thumb Code     0  entry7b.o(.ARM.Collect$$$$00000008)
    _main_cpp_init                           0x080000fd   Thumb Code     0  entry8b.o(.ARM.Collect$$$$0000000A)
    _main_init                               0x080000fd   Thumb Code     0  entry9a.o(.ARM.Collect$$$$0000000B)
    __rt_final_cpp                           0x08000105   Thumb Code     0  entry10a.o(.ARM.Collect$$$$0000000D)
    __rt_final_exit                          0x08000105   Thumb Code     0  entry11a.o(.ARM.Collect$$$$0000000F)
    Reset_Handler                            0x08000109   Thumb Code     8  startup_stm32l151xb.o(.text)
    HardFault_Handler                        0x08000113   Thumb Code     2  startup_stm32l151xb.o(.text)
    SVC_Handler                              0x0800011b   Thumb Code     2  startup_stm32l151xb.o(.text)
    PendSV_Handler                           0x0800011f   Thumb Code     2  startup_stm32l151xb.o(.text)
    ADC1_IRQHandler                          0x08000123   Thumb Code     0  startup_stm32l151xb.o(.text)
    COMP_IRQHandler                          0x08000123   Thumb Code     0  startup_stm32l151xb.o(.text)
    DAC_IRQHandler                           0x08000123   Thumb Code     0  startup_stm32l151xb.o(.text)
    DMA1_Channel1_IRQHandler                 0x08000123   Thumb Code     0  startup_stm32l151xb.o(.text)
    DMA1_Channel2_IRQHandler                 0x08000123   Thumb Code     0  startup_stm32l151xb.o(.text)
    DMA1_Channel3_IRQHandler                 0x08000123   Thumb Code     0  startup_stm32l151xb.o(.text)
    DMA1_Channel4_IRQHandler                 0x08000123   Thumb Code     0  startup_stm32l151xb.o(.text)
    DMA1_Channel5_IRQHandler                 0x08000123   Thumb Code     0  startup_stm32l151xb.o(.text)
    DMA1_Channel6_IRQHandler                 0x08000123   Thumb Code     0  startup_stm32l151xb.o(.text)
    DMA1_Channel7_IRQHandler                 0x08000123   Thumb Code     0  startup_stm32l151xb.o(.text)
    FLASH_IRQHandler                         0x08000123   Thumb Code     0  startup_stm32l151xb.o(.text)
    I2C1_ER_IRQHandler                       0x08000123   Thumb Code     0  startup_stm32l151xb.o(.text)
    I2C1_EV_IRQHandler                       0x08000123   Thumb Code     0  startup_stm32l151xb.o(.text)
    I2C2_ER_IRQHandler                       0x08000123   Thumb Code     0  startup_stm32l151xb.o(.text)
    I2C2_EV_IRQHandler                       0x08000123   Thumb Code     0  startup_stm32l151xb.o(.text)
    PVD_IRQHandler                           0x08000123   Thumb Code     0  startup_stm32l151xb.o(.text)
    RCC_IRQHandler                           0x08000123   Thumb Code     0  startup_stm32l151xb.o(.text)
    RTC_WKUP_IRQHandler                      0x08000123   Thumb Code     0  startup_stm32l151xb.o(.text)
    SPI1_IRQHandler                          0x08000123   Thumb Code     0  startup_stm32l151xb.o(.text)
    SPI2_IRQHandler                          0x08000123   Thumb Code     0  startup_stm32l151xb.o(.text)
    TAMPER_STAMP_IRQHandler                  0x08000123   Thumb Code     0  startup_stm32l151xb.o(.text)
    TIM10_IRQHandler                         0x08000123   Thumb Code     0  startup_stm32l151xb.o(.text)
    TIM11_IRQHandler                         0x08000123   Thumb Code     0  startup_stm32l151xb.o(.text)
    TIM2_IRQHandler                          0x08000123   Thumb Code     0  startup_stm32l151xb.o(.text)
    TIM3_IRQHandler                          0x08000123   Thumb Code     0  startup_stm32l151xb.o(.text)
    TIM4_IRQHandler                          0x08000123   Thumb Code     0  startup_stm32l151xb.o(.text)
    TIM6_IRQHandler                          0x08000123   Thumb Code     0  startup_stm32l151xb.o(.text)
    TIM7_IRQHandler                          0x08000123   Thumb Code     0  startup_stm32l151xb.o(.text)
    TIM9_IRQHandler                          0x08000123   Thumb Code     0  startup_stm32l151xb.o(.text)
    USART2_IRQHandler                        0x08000123   Thumb Code     0  startup_stm32l151xb.o(.text)
    USART3_IRQHandler                        0x08000123   Thumb Code     0  startup_stm32l151xb.o(.text)
    USB_FS_WKUP_IRQHandler                   0x08000123   Thumb Code     0  startup_stm32l151xb.o(.text)
    USB_HP_IRQHandler                        0x08000123   Thumb Code     0  startup_stm32l151xb.o(.text)
    USB_LP_IRQHandler                        0x08000123   Thumb Code     0  startup_stm32l151xb.o(.text)
    WWDG_IRQHandler                          0x08000123   Thumb Code     0  startup_stm32l151xb.o(.text)
    __aeabi_memcpy                           0x0800012d   Thumb Code    36  memcpya.o(.text)
    __aeabi_memcpy4                          0x0800012d   Thumb Code     0  memcpya.o(.text)
    __aeabi_memcpy8                          0x0800012d   Thumb Code     0  memcpya.o(.text)
    __aeabi_memset                           0x08000151   Thumb Code    14  memseta.o(.text)
    __aeabi_memset4                          0x08000151   Thumb Code     0  memseta.o(.text)
    __aeabi_memset8                          0x08000151   Thumb Code     0  memseta.o(.text)
    __aeabi_memclr                           0x0800015f   Thumb Code     4  memseta.o(.text)
    __aeabi_memclr4                          0x0800015f   Thumb Code     0  memseta.o(.text)
    __aeabi_memclr8                          0x0800015f   Thumb Code     0  memseta.o(.text)
    _memset$wrapper                          0x08000163   Thumb Code    18  memseta.o(.text)
    strncmp                                  0x08000175   Thumb Code    30  strncmp.o(.text)
    __aeabi_dadd                             0x08000193   Thumb Code   322  dadd.o(.text)
    __aeabi_dsub                             0x080002d5   Thumb Code     6  dadd.o(.text)
    __aeabi_drsub                            0x080002db   Thumb Code     6  dadd.o(.text)
    __aeabi_dmul                             0x080002e1   Thumb Code   228  dmul.o(.text)
    __aeabi_ddiv                             0x080003c5   Thumb Code   222  ddiv.o(.text)
    __ARM_scalbn                             0x080004a3   Thumb Code    46  dscalb.o(.text)
    scalbn                                   0x080004a3   Thumb Code     0  dscalb.o(.text)
    __aeabi_i2d                              0x080004d1   Thumb Code    34  dflti.o(.text)
    __aeabi_ui2d                             0x080004f3   Thumb Code    26  dfltui.o(.text)
    __aeabi_d2iz                             0x0800050d   Thumb Code    62  dfixi.o(.text)
    __aeabi_d2uiz                            0x0800054b   Thumb Code    50  dfixui.o(.text)
    __aeabi_cdcmpeq                          0x0800057d   Thumb Code     0  cdcmple.o(.text)
    __aeabi_cdcmple                          0x0800057d   Thumb Code    48  cdcmple.o(.text)
    __aeabi_cdrcmple                         0x080005ad   Thumb Code    48  cdrcmple.o(.text)
    __aeabi_llsl                             0x080005dd   Thumb Code    30  llshl.o(.text)
    _ll_shift_l                              0x080005dd   Thumb Code     0  llshl.o(.text)
    __aeabi_llsr                             0x080005fb   Thumb Code    32  llushr.o(.text)
    _ll_ushift_r                             0x080005fb   Thumb Code     0  llushr.o(.text)
    __aeabi_lasr                             0x0800061b   Thumb Code    36  llsshr.o(.text)
    _ll_sshift_r                             0x0800061b   Thumb Code     0  llsshr.o(.text)
    __I$use$fp                               0x0800063f   Thumb Code     0  iusefp.o(.text)
    _double_round                            0x0800063f   Thumb Code    30  depilogue.o(.text)
    _double_epilogue                         0x0800065d   Thumb Code   156  depilogue.o(.text)
    _drnd                                    0x080006f9   Thumb Code   132  drnd.o(.text)
    __scatterload                            0x08000781   Thumb Code    28  init.o(.text)
    __scatterload_rt2                        0x08000781   Thumb Code     0  init.o(.text)
    ADC_ConversionStop_Disable               0x080007a5   Thumb Code    74  stm32l1xx_hal_adc.o(i.ADC_ConversionStop_Disable)
    AdcDeInit                                0x080007f1   Thumb Code     8  adc.o(i.AdcDeInit)
    AdcInit                                  0x080007fd   Thumb Code    28  adc.o(i.AdcInit)
    AdcMcuConfig                             0x0800081d   Thumb Code    40  adc-board.o(i.AdcMcuConfig)
    AdcMcuInit                               0x08000849   Thumb Code    60  adc-board.o(i.AdcMcuInit)
    BlockLowPowerDuringTask                  0x08000891   Thumb Code    16  rtc-board.o(i.BlockLowPowerDuringTask)
    BoardDeInitMcu                           0x080008a5   Thumb Code   108  board.o(i.BoardDeInitMcu)
    BoardDisableIrq                          0x08000919   Thumb Code    12  board.o(i.BoardDisableIrq)
    BoardEnableIrq                           0x08000929   Thumb Code    18  board.o(i.BoardEnableIrq)
    BoardInitMcu                             0x08000941   Thumb Code   152  board.o(i.BoardInitMcu)
    BoardInitPeriph                          0x080009e9   Thumb Code   348  board.o(i.BoardInitPeriph)
    BusFault_Handler                         0x08000bff   Thumb Code     2  sysirqhandlers.o(i.BusFault_Handler)
    DebugMon_Handler                         0x08000c01   Thumb Code     2  sysirqhandlers.o(i.DebugMon_Handler)
    DelayMs                                  0x08000c03   Thumb Code     4  delay.o(i.DelayMs)
    EXTI0_IRQHandler                         0x08000c07   Thumb Code    16  gpio-board.o(i.EXTI0_IRQHandler)
    EXTI15_10_IRQHandler                     0x08000c17   Thumb Code    58  gpio-board.o(i.EXTI15_10_IRQHandler)
    EXTI1_IRQHandler                         0x08000c51   Thumb Code    16  gpio-board.o(i.EXTI1_IRQHandler)
    EXTI2_IRQHandler                         0x08000c61   Thumb Code    16  gpio-board.o(i.EXTI2_IRQHandler)
    EXTI3_IRQHandler                         0x08000c71   Thumb Code    16  gpio-board.o(i.EXTI3_IRQHandler)
    EXTI4_IRQHandler                         0x08000c81   Thumb Code    16  gpio-board.o(i.EXTI4_IRQHandler)
    EXTI9_5_IRQHandler                       0x08000c91   Thumb Code    44  gpio-board.o(i.EXTI9_5_IRQHandler)
    FifoInit                                 0x08000cbd   Thumb Code    12  fifo.o(i.FifoInit)
    FifoPop                                  0x08000cd9   Thumb Code    28  fifo.o(i.FifoPop)
    FifoPush                                 0x08000cf5   Thumb Code    20  fifo.o(i.FifoPush)
    GetBoardPowerSource                      0x08000d09   Thumb Code     4  board.o(i.GetBoardPowerSource)
    GpioInit                                 0x08000d39   Thumb Code    30  gpio.o(i.GpioInit)
    GpioIoeInit                              0x08000d57   Thumb Code   258  gpio-ioe.o(i.GpioIoeInit)
    GpioIoeSetInterrupt                      0x08000e59   Thumb Code   252  gpio-ioe.o(i.GpioIoeSetInterrupt)
    GpioIoeWrite                             0x08000f59   Thumb Code    80  gpio-ioe.o(i.GpioIoeWrite)
    GpioMcuInit                              0x08000fa9   Thumb Code   236  gpio-board.o(i.GpioMcuInit)
    GpioMcuSetInterrupt                      0x080010ad   Thumb Code   246  gpio-board.o(i.GpioMcuSetInterrupt)
    GpioMcuWrite                             0x080011b5   Thumb Code    20  gpio-board.o(i.GpioMcuWrite)
    GpioSetInterrupt                         0x080011c9   Thumb Code    26  gpio.o(i.GpioSetInterrupt)
    GpioWrite                                0x080011e3   Thumb Code    20  gpio.o(i.GpioWrite)
    GpsConvertPositionFromStringToNumerical  0x080011f9   Thumb Code   506  gps.o(i.GpsConvertPositionFromStringToNumerical)
    GpsConvertPositionIntoBinary             0x08001415   Thumb Code   126  gps.o(i.GpsConvertPositionIntoBinary)
    GpsFormatGpsData                         0x080014a5   Thumb Code    76  gps.o(i.GpsFormatGpsData)
    GpsInit                                  0x080014fd   Thumb Code    10  gps.o(i.GpsInit)
    GpsMcuInit                               0x0800150d   Thumb Code    86  gps-board.o(i.GpsMcuInit)
    GpsMcuInvertPpsTrigger                   0x0800157d   Thumb Code     2  gps-board.o(i.GpsMcuInvertPpsTrigger)
    GpsMcuIrqNotify                          0x08001581   Thumb Code    82  gps-board.o(i.GpsMcuIrqNotify)
    GpsMcuOnPpsSignal                        0x080015e1   Thumb Code    56  gps-board.o(i.GpsMcuOnPpsSignal)
    GpsMcuStart                              0x0800161d   Thumb Code     8  gps-board.o(i.GpsMcuStart)
    GpsNmeaChecksum                          0x08001629   Thumb Code    76  gps.o(i.GpsNmeaChecksum)
    GpsParseGpsData                          0x08001675   Thumb Code  1050  gps.o(i.GpsParseGpsData)
    GpsPpsHandler                            0x08001a99   Thumb Code    36  gps.o(i.GpsPpsHandler)
    HAL_ADC_DeInit                           0x08001ac1   Thumb Code   242  stm32l1xx_hal_adc.o(i.HAL_ADC_DeInit)
    HAL_ADC_Init                             0x08001bc5   Thumb Code   368  stm32l1xx_hal_adc.o(i.HAL_ADC_Init)
    HAL_ADC_MspDeInit                        0x08001d49   Thumb Code     2  stm32l1xx_hal_adc.o(i.HAL_ADC_MspDeInit)
    HAL_ADC_MspInit                          0x08001d4b   Thumb Code     2  stm32l1xx_hal_adc.o(i.HAL_ADC_MspInit)
    HAL_DBGMCU_EnableDBGSleepMode            0x08001d4d   Thumb Code    12  stm32l1xx_hal.o(i.HAL_DBGMCU_EnableDBGSleepMode)
    HAL_DBGMCU_EnableDBGStandbyMode          0x08001d5d   Thumb Code    12  stm32l1xx_hal.o(i.HAL_DBGMCU_EnableDBGStandbyMode)
    HAL_DBGMCU_EnableDBGStopMode             0x08001d6d   Thumb Code    12  stm32l1xx_hal.o(i.HAL_DBGMCU_EnableDBGStopMode)
    HAL_Delay                                0x08001d7d   Thumb Code    22  stm32l1xx_hal.o(i.HAL_Delay)
    HAL_GPIO_EXTI_Callback                   0x08001d95   Thumb Code    30  gpio-board.o(i.HAL_GPIO_EXTI_Callback)
    HAL_GPIO_EXTI_IRQHandler                 0x08001db9   Thumb Code    18  stm32l1xx_hal_gpio.o(i.HAL_GPIO_EXTI_IRQHandler)
    HAL_GPIO_Init                            0x08001dd1   Thumb Code   370  stm32l1xx_hal_gpio.o(i.HAL_GPIO_Init)
    HAL_GPIO_WritePin                        0x08001f65   Thumb Code    10  stm32l1xx_hal_gpio.o(i.HAL_GPIO_WritePin)
    HAL_GetTick                              0x08001f71   Thumb Code     6  stm32l1xx_hal.o(i.HAL_GetTick)
    HAL_I2C_Init                             0x08001f7d   Thumb Code   312  stm32l1xx_hal_i2c.o(i.HAL_I2C_Init)
    HAL_I2C_Mem_Read                         0x080020c1   Thumb Code   492  stm32l1xx_hal_i2c.o(i.HAL_I2C_Mem_Read)
    HAL_I2C_Mem_Write                        0x080022b5   Thumb Code   320  stm32l1xx_hal_i2c.o(i.HAL_I2C_Mem_Write)
    HAL_I2C_MspInit                          0x080023f9   Thumb Code     2  stm32l1xx_hal_i2c.o(i.HAL_I2C_MspInit)
    HAL_IncTick                              0x080023fd   Thumb Code    10  stm32l1xx_hal.o(i.HAL_IncTick)
    HAL_Init                                 0x0800240d   Thumb Code    22  stm32l1xx_hal.o(i.HAL_Init)
    HAL_InitTick                             0x08002425   Thumb Code    34  stm32l1xx_hal.o(i.HAL_InitTick)
    HAL_MspInit                              0x0800244d   Thumb Code     2  stm32l1xx_hal.o(i.HAL_MspInit)
    HAL_NVIC_EnableIRQ                       0x0800244f   Thumb Code    22  stm32l1xx_hal_cortex.o(i.HAL_NVIC_EnableIRQ)
    HAL_NVIC_SetPriority                     0x08002465   Thumb Code    60  stm32l1xx_hal_cortex.o(i.HAL_NVIC_SetPriority)
    HAL_NVIC_SetPriorityGrouping             0x080024a5   Thumb Code    26  stm32l1xx_hal_cortex.o(i.HAL_NVIC_SetPriorityGrouping)
    HAL_PWREx_EnableFastWakeUp               0x080024c9   Thumb Code    20  stm32l1xx_hal_pwr_ex.o(i.HAL_PWREx_EnableFastWakeUp)
    HAL_PWREx_EnableUltraLowPower            0x080024e1   Thumb Code    20  stm32l1xx_hal_pwr_ex.o(i.HAL_PWREx_EnableUltraLowPower)
    HAL_PWREx_GetVoltageRange                0x080024f9   Thumb Code    10  stm32l1xx_hal_pwr_ex.o(i.HAL_PWREx_GetVoltageRange)
    HAL_PWR_DisablePVD                       0x08002509   Thumb Code    20  stm32l1xx_hal_pwr.o(i.HAL_PWR_DisablePVD)
    HAL_PWR_EnterSTOPMode                    0x08002521   Thumb Code    46  stm32l1xx_hal_pwr.o(i.HAL_PWR_EnterSTOPMode)
    HAL_RCCEx_PeriphCLKConfig                0x08002559   Thumb Code   360  stm32l1xx_hal_rcc_ex.o(i.HAL_RCCEx_PeriphCLKConfig)
    HAL_RCC_ClockConfig                      0x080026cd   Thumb Code   444  stm32l1xx_hal_rcc.o(i.HAL_RCC_ClockConfig)
    HAL_RCC_GetHCLKFreq                      0x08002899   Thumb Code     6  stm32l1xx_hal_rcc.o(i.HAL_RCC_GetHCLKFreq)
    HAL_RCC_GetPCLK1Freq                     0x080028a5   Thumb Code    34  stm32l1xx_hal_rcc.o(i.HAL_RCC_GetPCLK1Freq)
    HAL_RCC_GetPCLK2Freq                     0x080028d5   Thumb Code    34  stm32l1xx_hal_rcc.o(i.HAL_RCC_GetPCLK2Freq)
    HAL_RCC_GetSysClockFreq                  0x08002905   Thumb Code   122  stm32l1xx_hal_rcc.o(i.HAL_RCC_GetSysClockFreq)
    HAL_RCC_OscConfig                        0x08002991   Thumb Code  1840  stm32l1xx_hal_rcc.o(i.HAL_RCC_OscConfig)
    HAL_RTCEx_AlarmBEventCallback            0x080030c9   Thumb Code     2  stm32l1xx_hal_rtc_ex.o(i.HAL_RTCEx_AlarmBEventCallback)
    HAL_RTCEx_DeactivateWakeUpTimer          0x080030cb   Thumb Code   122  stm32l1xx_hal_rtc_ex.o(i.HAL_RTCEx_DeactivateWakeUpTimer)
    HAL_RTC_AlarmAEventCallback              0x08003145   Thumb Code     2  stm32l1xx_hal_rtc.o(i.HAL_RTC_AlarmAEventCallback)
    HAL_RTC_AlarmIRQHandler                  0x08003149   Thumb Code    86  stm32l1xx_hal_rtc.o(i.HAL_RTC_AlarmIRQHandler)
    HAL_RTC_DeactivateAlarm                  0x080031a5   Thumb Code   178  stm32l1xx_hal_rtc.o(i.HAL_RTC_DeactivateAlarm)
    HAL_RTC_GetAlarm                         0x08003257   Thumb Code   110  stm32l1xx_hal_rtc_ex.o(i.HAL_RTC_GetAlarm)
    HAL_RTC_GetDate                          0x080032c5   Thumb Code    62  stm32l1xx_hal_rtc.o(i.HAL_RTC_GetDate)
    HAL_RTC_GetTime                          0x08003309   Thumb Code    66  stm32l1xx_hal_rtc_ex.o(i.HAL_RTC_GetTime)
    HAL_RTC_Init                             0x08003351   Thumb Code   150  stm32l1xx_hal_rtc.o(i.HAL_RTC_Init)
    HAL_RTC_MspInit                          0x080033ed   Thumb Code     2  stm32l1xx_hal_rtc.o(i.HAL_RTC_MspInit)
    HAL_RTC_SetAlarm_IT                      0x080033f1   Thumb Code   380  stm32l1xx_hal_rtc_ex.o(i.HAL_RTC_SetAlarm_IT)
    HAL_RTC_SetDate                          0x08003571   Thumb Code   196  stm32l1xx_hal_rtc.o(i.HAL_RTC_SetDate)
    HAL_RTC_SetTime                          0x08003639   Thumb Code   228  stm32l1xx_hal_rtc.o(i.HAL_RTC_SetTime)
    HAL_RTC_WaitForSynchro                   0x08003721   Thumb Code    52  stm32l1xx_hal_rtc_ex.o(i.HAL_RTC_WaitForSynchro)
    HAL_SPI_DeInit                           0x08003755   Thumb Code    40  stm32l1xx_hal_spi.o(i.HAL_SPI_DeInit)
    HAL_SPI_Init                             0x0800377d   Thumb Code   122  stm32l1xx_hal_spi_ex.o(i.HAL_SPI_Init)
    HAL_SPI_MspDeInit                        0x080037f7   Thumb Code     2  stm32l1xx_hal_spi.o(i.HAL_SPI_MspDeInit)
    HAL_SPI_MspInit                          0x080037f9   Thumb Code     2  stm32l1xx_hal_spi.o(i.HAL_SPI_MspInit)
    HAL_SYSTICK_CLKSourceConfig              0x080037fb   Thumb Code    24  stm32l1xx_hal_cortex.o(i.HAL_SYSTICK_CLKSourceConfig)
    HAL_SYSTICK_Callback                     0x08003813   Thumb Code     2  stm32l1xx_hal_cortex.o(i.HAL_SYSTICK_Callback)
    HAL_SYSTICK_Config                       0x08003815   Thumb Code    40  stm32l1xx_hal_cortex.o(i.HAL_SYSTICK_Config)
    HAL_SYSTICK_IRQHandler                   0x0800383d   Thumb Code     8  stm32l1xx_hal_cortex.o(i.HAL_SYSTICK_IRQHandler)
    HAL_UART_ErrorCallback                   0x08003845   Thumb Code    10  uart-board.o(i.HAL_UART_ErrorCallback)
    HAL_UART_IRQHandler                      0x08003859   Thumb Code   216  stm32l1xx_hal_uart.o(i.HAL_UART_IRQHandler)
    HAL_UART_Init                            0x08003931   Thumb Code    94  stm32l1xx_hal_uart.o(i.HAL_UART_Init)
    HAL_UART_MspInit                         0x0800398f   Thumb Code     2  stm32l1xx_hal_uart.o(i.HAL_UART_MspInit)
    HAL_UART_Receive_IT                      0x08003991   Thumb Code   104  stm32l1xx_hal_uart.o(i.HAL_UART_Receive_IT)
    HAL_UART_RxCpltCallback                  0x080039f9   Thumb Code    48  uart-board.o(i.HAL_UART_RxCpltCallback)
    HAL_UART_Transmit_IT                     0x08003a35   Thumb Code    84  stm32l1xx_hal_uart.o(i.HAL_UART_Transmit_IT)
    HAL_UART_TxCpltCallback                  0x08003a89   Thumb Code    52  uart-board.o(i.HAL_UART_TxCpltCallback)
    I2cInit                                  0x08003e69   Thumb Code    44  i2c.o(i.I2cInit)
    I2cMcuFormat                             0x08003e9d   Thumb Code    56  i2c-board.o(i.I2cMcuFormat)
    I2cMcuInit                               0x08003ed9   Thumb Code   100  i2c-board.o(i.I2cMcuInit)
    I2cMcuReadBuffer                         0x08003f45   Thumb Code    42  i2c-board.o(i.I2cMcuReadBuffer)
    I2cMcuWriteBuffer                        0x08003f75   Thumb Code    42  i2c-board.o(i.I2cMcuWriteBuffer)
    I2cReadBuffer                            0x08003fa5   Thumb Code    22  i2c.o(i.I2cReadBuffer)
    I2cResetBus                              0x08003fc1   Thumb Code    14  i2c.o(i.I2cResetBus)
    I2cWriteBuffer                           0x08003fd5   Thumb Code    56  i2c.o(i.I2cWriteBuffer)
    IsFifoEmpty                              0x08004011   Thumb Code    16  fifo.o(i.IsFifoEmpty)
    IsFifoFull                               0x08004021   Thumb Code    24  fifo.o(i.IsFifoFull)
    MAG3110Init                              0x08004039   Thumb Code    50  mag3110.o(i.MAG3110Init)
    MAG3110Read                              0x08004071   Thumb Code     6  mag3110.o(i.MAG3110Read)
    MAG3110ReadBuffer                        0x08004079   Thumb Code    24  mag3110.o(i.MAG3110ReadBuffer)
    MAG3110Reset                             0x08004099   Thumb Code    18  mag3110.o(i.MAG3110Reset)
    MAG3110Write                             0x080040ab   Thumb Code    12  mag3110.o(i.MAG3110Write)
    MAG3110WriteBuffer                       0x080040b9   Thumb Code    24  mag3110.o(i.MAG3110WriteBuffer)
    MMA8451Init                              0x080040d9   Thumb Code    62  mma8451.o(i.MMA8451Init)
    MMA8451OrientDetect                      0x0800411d   Thumb Code   118  mma8451.o(i.MMA8451OrientDetect)
    MMA8451Read                              0x08004193   Thumb Code     6  mma8451.o(i.MMA8451Read)
    MMA8451ReadBuffer                        0x08004199   Thumb Code    24  mma8451.o(i.MMA8451ReadBuffer)
    MMA8451Reset                             0x080041b9   Thumb Code    18  mma8451.o(i.MMA8451Reset)
    MMA8451Write                             0x080041cb   Thumb Code    12  mma8451.o(i.MMA8451Write)
    MMA8451WriteBuffer                       0x080041d9   Thumb Code    24  mma8451.o(i.MMA8451WriteBuffer)
    MPL3115Init                              0x080041f9   Thumb Code    82  mpl3115.o(i.MPL3115Init)
    MPL3115Read                              0x08004255   Thumb Code     6  mpl3115.o(i.MPL3115Read)
    MPL3115ReadBuffer                        0x0800425d   Thumb Code    24  mpl3115.o(i.MPL3115ReadBuffer)
    MPL3115Write                             0x0800427d   Thumb Code    12  mpl3115.o(i.MPL3115Write)
    MPL3115WriteBuffer                       0x08004289   Thumb Code    24  mpl3115.o(i.MPL3115WriteBuffer)
    MemManage_Handler                        0x080042a9   Thumb Code     2  sysirqhandlers.o(i.MemManage_Handler)
    NMI_Handler                              0x080042ab   Thumb Code     2  sysirqhandlers.o(i.NMI_Handler)
    Nibble2HexChar                           0x080042cd   Thumb Code    22  utilities.o(i.Nibble2HexChar)
    OnRxDone                                 0x080042f1   Thumb Code    30  main.o(i.OnRxDone)
    RTC_Alarm_IRQHandler                     0x08004395   Thumb Code    40  rtc-board.o(i.RTC_Alarm_IRQHandler)
    RTC_Bcd2ToByte                           0x080043c1   Thumb Code    18  stm32l1xx_hal_rtc.o(i.RTC_Bcd2ToByte)
    RTC_ByteToBcd2                           0x080043d3   Thumb Code    22  stm32l1xx_hal_rtc.o(i.RTC_ByteToBcd2)
    RTC_EnterInitMode                        0x080043e9   Thumb Code    56  stm32l1xx_hal_rtc.o(i.RTC_EnterInitMode)
    RtcEnterLowPowerStopMode                 0x080047bd   Thumb Code    52  rtc-board.o(i.RtcEnterLowPowerStopMode)
    RtcGetAdjustedTimeoutValue               0x080047f9   Thumb Code    44  rtc-board.o(i.RtcGetAdjustedTimeoutValue)
    RtcGetElapsedAlarmTime                   0x08004881   Thumb Code    30  rtc-board.o(i.RtcGetElapsedAlarmTime)
    RtcInit                                  0x080048a5   Thumb Code   128  rtc-board.o(i.RtcInit)
    RtcRecoverMcuStatus                      0x08004935   Thumb Code    52  rtc-board.o(i.RtcRecoverMcuStatus)
    RtcSetTimeout                            0x08004975   Thumb Code     4  rtc-board.o(i.RtcSetTimeout)
    SX1276AntSwDeInit                        0x08004aa1   Thumb Code    40  sx1276-board.o(i.SX1276AntSwDeInit)
    SX1276AntSwInit                          0x08004acd   Thumb Code    42  sx1276-board.o(i.SX1276AntSwInit)
    SX1276CheckRfFrequency                   0x08004afd   Thumb Code     4  sx1276-board.o(i.SX1276CheckRfFrequency)
    SX1276GetPaSelect                        0x08004b01   Thumb Code    14  sx1276-board.o(i.SX1276GetPaSelect)
    SX1276GetStatus                          0x08004b15   Thumb Code     8  sx1276.o(i.SX1276GetStatus)
    SX1276GetTimeOnAir                       0x08004b21   Thumb Code   464  sx1276.o(i.SX1276GetTimeOnAir)
    SX1276Init                               0x08004d19   Thumb Code   104  sx1276.o(i.SX1276Init)
    SX1276IoDeInit                           0x08004d95   Thumb Code   132  sx1276-board.o(i.SX1276IoDeInit)
    SX1276IoInit                             0x08004e1d   Thumb Code   132  sx1276-board.o(i.SX1276IoInit)
    SX1276IoIrqInit                          0x08004ea5   Thumb Code    90  sx1276-board.o(i.SX1276IoIrqInit)
    SX1276IsChannelFree                      0x08004f05   Thumb Code    54  sx1276.o(i.SX1276IsChannelFree)
    SX1276OnDio0Irq                          0x08004f3d   Thumb Code   570  sx1276.o(i.SX1276OnDio0Irq)
    SX1276OnDio1Irq                          0x0800518d   Thumb Code   214  sx1276.o(i.SX1276OnDio1Irq)
    SX1276OnDio2Irq                          0x08005271   Thumb Code   186  sx1276.o(i.SX1276OnDio2Irq)
    SX1276OnDio3Irq                          0x0800533d   Thumb Code    82  sx1276.o(i.SX1276OnDio3Irq)
    SX1276OnDio4Irq                          0x08005399   Thumb Code    26  sx1276.o(i.SX1276OnDio4Irq)
    SX1276OnTimeoutIrq                       0x080053b9   Thumb Code   210  sx1276.o(i.SX1276OnTimeoutIrq)
    SX1276Random                             0x0800549d   Thumb Code    62  sx1276.o(i.SX1276Random)
    SX1276Read                               0x080054db   Thumb Code    16  sx1276.o(i.SX1276Read)
    SX1276ReadBuffer                         0x080054ed   Thumb Code    68  sx1276.o(i.SX1276ReadBuffer)
    SX1276ReadFifo                           0x08005535   Thumb Code    10  sx1276.o(i.SX1276ReadFifo)
    SX1276ReadRssi                           0x08005541   Thumb Code    58  sx1276.o(i.SX1276ReadRssi)
    SX1276Reset                              0x08005585   Thumb Code    54  sx1276.o(i.SX1276Reset)
    SX1276Send                               0x080055c1   Thumb Code   240  sx1276.o(i.SX1276Send)
    SX1276SetAntSw                           0x080056b9   Thumb Code    40  sx1276-board.o(i.SX1276SetAntSw)
    SX1276SetAntSwLowPower                   0x080056e5   Thumb Code    22  sx1276-board.o(i.SX1276SetAntSwLowPower)
    SX1276SetChannel                         0x08005701   Thumb Code    58  sx1276.o(i.SX1276SetChannel)
    SX1276SetMaxPayloadLength                0x08005745   Thumb Code    46  sx1276.o(i.SX1276SetMaxPayloadLength)
    SX1276SetModem                           0x08005779   Thumb Code   114  sx1276.o(i.SX1276SetModem)
    SX1276SetOpMode                          0x080057f1   Thumb Code    48  sx1276.o(i.SX1276SetOpMode)
    SX1276SetPublicNetwork                   0x08005821   Thumb Code    34  sx1276.o(i.SX1276SetPublicNetwork)
    SX1276SetRfTxPower                       0x08005849   Thumb Code   158  sx1276-board.o(i.SX1276SetRfTxPower)
    SX1276SetRx                              0x080058ed   Thumb Code   534  sx1276.o(i.SX1276SetRx)
    SX1276SetRxConfig                        0x08005b29   Thumb Code   644  sx1276.o(i.SX1276SetRxConfig)
    SX1276SetSleep                           0x08005dc1   Thumb Code    32  sx1276.o(i.SX1276SetSleep)
    SX1276SetStby                            0x08005de9   Thumb Code    32  sx1276.o(i.SX1276SetStby)
    SX1276SetTx                              0x08005e11   Thumb Code   154  sx1276.o(i.SX1276SetTx)
    SX1276SetTxConfig                        0x08005eb5   Thumb Code   506  sx1276.o(i.SX1276SetTxConfig)
    SX1276SetTxContinuousWave                0x080060bd   Thumb Code   138  sx1276.o(i.SX1276SetTxContinuousWave)
    SX1276StartCad                           0x08006155   Thumb Code    58  sx1276.o(i.SX1276StartCad)
    SX1276Write                              0x08006195   Thumb Code    12  sx1276.o(i.SX1276Write)
    SX1276WriteBuffer                        0x080061a1   Thumb Code    66  sx1276.o(i.SX1276WriteBuffer)
    SX1276WriteFifo                          0x080061e9   Thumb Code    10  sx1276.o(i.SX1276WriteFifo)
    SX1509Init                               0x080061f5   Thumb Code    22  sx1509.o(i.SX1509Init)
    SX1509Read                               0x08006211   Thumb Code     6  sx1509.o(i.SX1509Read)
    SX1509ReadBuffer                         0x08006219   Thumb Code    24  sx1509.o(i.SX1509ReadBuffer)
    SX1509Reset                              0x08006239   Thumb Code    30  sx1509.o(i.SX1509Reset)
    SX1509Write                              0x08006257   Thumb Code    12  sx1509.o(i.SX1509Write)
    SX1509WriteBuffer                        0x08006265   Thumb Code    24  sx1509.o(i.SX1509WriteBuffer)
    SX9500Init                               0x08006285   Thumb Code    50  sx9500.o(i.SX9500Init)
    SX9500Read                               0x080062bd   Thumb Code     6  sx9500.o(i.SX9500Read)
    SX9500ReadBuffer                         0x080062c5   Thumb Code    24  sx9500.o(i.SX9500ReadBuffer)
    SX9500Reset                              0x080062e5   Thumb Code    18  sx9500.o(i.SX9500Reset)
    SX9500Write                              0x080062f7   Thumb Code    12  sx9500.o(i.SX9500Write)
    SX9500WriteBuffer                        0x08006305   Thumb Code    24  sx9500.o(i.SX9500WriteBuffer)
    SpiDeInit                                0x08006325   Thumb Code    96  spi-board.o(i.SpiDeInit)
    SpiFormat                                0x08006385   Thumb Code    48  spi-board.o(i.SpiFormat)
    SpiFrequency                             0x080063b5   Thumb Code    38  spi-board.o(i.SpiFrequency)
    SpiInOut                                 0x080063e1   Thumb Code    56  spi-board.o(i.SpiInOut)
    SpiInit                                  0x08006419   Thumb Code   256  spi-board.o(i.SpiInit)
    SysTick_Handler                          0x08006529   Thumb Code    14  board.o(i.SysTick_Handler)
    SystemInit                               0x0800669d   Thumb Code    62  system_stm32l1xx.o(i.SystemInit)
    TimerInit                                0x080066ed   Thumb Code    14  timer.o(i.TimerInit)
    TimerIrqHandler                          0x08006771   Thumb Code    78  timer.o(i.TimerIrqHandler)
    TimerLowPowerHandler                     0x080067c5   Thumb Code    50  timer.o(i.TimerLowPowerHandler)
    TimerSetValue                            0x0800681d   Thumb Code    16  timer.o(i.TimerSetValue)
    TimerStart                               0x0800682d   Thumb Code    92  timer.o(i.TimerStart)
    TimerStop                                0x0800688d   Thumb Code   134  timer.o(i.TimerStop)
    USART1_IRQHandler                        0x08006cc9   Thumb Code     6  uart-board.o(i.USART1_IRQHandler)
    UartConfig                               0x08006cd5   Thumb Code    26  uart.o(i.UartConfig)
    UartDeInit                               0x08006cef   Thumb Code    16  uart.o(i.UartDeInit)
    UartGetChar                              0x08006cff   Thumb Code    14  uart.o(i.UartGetChar)
    UartInit                                 0x08006d0d   Thumb Code    26  uart.o(i.UartInit)
    UartMcuConfig                            0x08006d29   Thumb Code   176  uart-board.o(i.UartMcuConfig)
    UartMcuDeInit                            0x08006de5   Thumb Code    76  uart-board.o(i.UartMcuDeInit)
    UartMcuGetChar                           0x08006e35   Thumb Code    46  uart-board.o(i.UartMcuGetChar)
    UartMcuInit                              0x08006e65   Thumb Code    92  uart-board.o(i.UartMcuInit)
    UsageFault_Handler                       0x08006ec5   Thumb Code     2  sysirqhandlers.o(i.UsageFault_Handler)
    __scatterload_copy                       0x08006ec7   Thumb Code    14  handlers.o(i.__scatterload_copy)
    __scatterload_null                       0x08006ed5   Thumb Code     2  handlers.o(i.__scatterload_null)
    __scatterload_zeroinit                   0x08006ed7   Thumb Code    14  handlers.o(i.__scatterload_zeroinit)
    ceil                                     0x08006ee5   Thumb Code   204  ceil.o(i.ceil)
    floor                                    0x08006fc1   Thumb Code   204  floor.o(i.floor)
    main                                     0x0800709d   Thumb Code   118  main.o(i.main)
    memcpy1                                  0x08007125   Thumb Code    18  utilities.o(i.memcpy1)
    round                                    0x08007139   Thumb Code   136  round.o(i.round)
    Radio                                    0x080071e4   Data          92  sx1276-board.o(.constdata)
    PLLMulTable                              0x08007240   Data           9  system_stm32l1xx.o(.constdata)
    AHBPrescTable                            0x08007249   Data          16  system_stm32l1xx.o(.constdata)
    APBPrescTable                            0x08007259   Data           8  system_stm32l1xx.o(.constdata)
    RadioRegsInit                            0x08007264   Data          48  sx1276.o(.constdata)
    FskBandwidths                            0x08007294   Data         176  sx1276.o(.constdata)
    NmeaDataTypeGPGGA                        0x08007344   Data           6  gps.o(.constdata)
    NmeaDataTypeGPRMC                        0x0800734a   Data           6  gps.o(.constdata)
    Region$$Table$$Base                      0x08007350   Number         0  anon$$obj.o(Region$$Table)
    Region$$Table$$Limit                     0x08007370   Number         0  anon$$obj.o(Region$$Table)
    NmeaStringSize                           0x20000008   Data           1  gps-board.o(.data)
    PpsTrigger                               0x20000009   Data           1  gps-board.o(.data)
    I2cInternalAddrSize                      0x2000000a   Data           1  i2c-board.o(.data)
    NonScheduledWakeUp                       0x2000000d   Data           1  rtc-board.o(.data)
    McuWakeUpTime                            0x20000014   Data           4  rtc-board.o(.data)
    RxData                                   0x2000001d   Data           1  uart-board.o(.data)
    TxData                                   0x2000001e   Data           1  uart-board.o(.data)
    SystemCoreClock                          0x20000020   Data           4  system_stm32l1xx.o(.data)
    uwTick                                   0x20000024   Data           4  stm32l1xx_hal.o(.data)
    DioIrq                                   0x20000038   Data          24  sx1276.o(.data)
    PpsDetected                              0x20000058   Data           1  gps.o(.data)
    HasLoopedThroughMain                     0x20000084   Data           1  timer.o(.data)
    STM_C13                                  0x200000a8   Data          12  main.o(.bss)
    STM_B15                                  0x200000b4   Data          12  main.o(.bss)
    AdcHandle                                0x200000c0   Data          84  adc-board.o(.bss)
    Led1                                     0x20000114   Data          12  board.o(.bss)
    Led2                                     0x20000120   Data          12  board.o(.bss)
    Led3                                     0x2000012c   Data          12  board.o(.bss)
    Led4                                     0x20000138   Data          12  board.o(.bss)
    UsbDetect                                0x20000144   Data          12  board.o(.bss)
    Adc                                      0x20000150   Data          12  board.o(.bss)
    I2c                                      0x2000015c   Data         108  board.o(.bss)
    Uart1                                    0x200001dc   Data          56  board.o(.bss)
    RxBuffer                                 0x20000254   Data         128  gps-board.o(.bss)
    NmeaString                               0x200002d4   Data         128  gps-board.o(.bss)
    GpsPowerEn                               0x20000354   Data          12  gps-board.o(.bss)
    GpsPps                                   0x20000360   Data          12  gps-board.o(.bss)
    RtcHandle                                0x2000036c   Data          32  rtc-board.o(.bss)
    RtcCalendarContext                       0x2000038c   Data          20  rtc-board.o(.bss)
    AntSwitchLf                              0x200003a0   Data          12  sx1276-board.o(.bss)
    AntSwitchHf                              0x200003ac   Data          12  sx1276-board.o(.bss)
    UartHandle                               0x200003b8   Data          64  uart-board.o(.bss)
    SX1276                                   0x20000538   Data         320  sx1276.o(.bss)
    TxTimeoutTimer                           0x20000678   Data          20  sx1276.o(.bss)
    RxTimeoutTimer                           0x2000068c   Data          20  sx1276.o(.bss)
    RxTimeoutSyncWord                        0x200006a0   Data          20  sx1276.o(.bss)
    NmeaGpsData                              0x200006b4   Data          99  gps.o(.bss)
    __initial_sp                             0x20000b18   Data           0  startup_stm32l151xb.o(STACK)



==============================================================================

Memory Map of the image

  Image Entry point : 0x080000f5

  Load Region LR_IROM1 (Base: 0x08000000, Size: 0x000073fc, Max: 0x00020000, ABSOLUTE)

    Execution Region ER_IROM1 (Base: 0x08000000, Size: 0x00007370, Max: 0x00020000, ABSOLUTE)

    Base Addr    Size         Type   Attr      Idx    E Section Name        Object

    0x08000000   0x000000f4   Data   RO          989    RESET               startup_stm32l151xb.o
    0x080000f4   0x00000000   Code   RO         4629  * .ARM.Collect$$$$00000000  mc_w.l(entry.o)
    0x080000f4   0x00000004   Code   RO         4678    .ARM.Collect$$$$00000001  mc_w.l(entry2.o)
    0x080000f8   0x00000004   Code   RO         4681    .ARM.Collect$$$$00000004  mc_w.l(entry5.o)
    0x080000fc   0x00000000   Code   RO         4683    .ARM.Collect$$$$00000008  mc_w.l(entry7b.o)
    0x080000fc   0x00000000   Code   RO         4685    .ARM.Collect$$$$0000000A  mc_w.l(entry8b.o)
    0x080000fc   0x00000008   Code   RO         4686    .ARM.Collect$$$$0000000B  mc_w.l(entry9a.o)
    0x08000104   0x00000000   Code   RO         4688    .ARM.Collect$$$$0000000D  mc_w.l(entry10a.o)
    0x08000104   0x00000000   Code   RO         4690    .ARM.Collect$$$$0000000F  mc_w.l(entry11a.o)
    0x08000104   0x00000004   Code   RO         4679    .ARM.Collect$$$$00002712  mc_w.l(entry2.o)
    0x08000108   0x00000024   Code   RO          990    .text               startup_stm32l151xb.o
    0x0800012c   0x00000024   Code   RO         4632    .text               mc_w.l(memcpya.o)
    0x08000150   0x00000024   Code   RO         4634    .text               mc_w.l(memseta.o)
    0x08000174   0x0000001e   Code   RO         4636    .text               mc_w.l(strncmp.o)
    0x08000192   0x0000014e   Code   RO         4650    .text               mf_w.l(dadd.o)
    0x080002e0   0x000000e4   Code   RO         4652    .text               mf_w.l(dmul.o)
    0x080003c4   0x000000de   Code   RO         4654    .text               mf_w.l(ddiv.o)
    0x080004a2   0x0000002e   Code   RO         4656    .text               mf_w.l(dscalb.o)
    0x080004d0   0x00000022   Code   RO         4662    .text               mf_w.l(dflti.o)
    0x080004f2   0x0000001a   Code   RO         4664    .text               mf_w.l(dfltui.o)
    0x0800050c   0x0000003e   Code   RO         4668    .text               mf_w.l(dfixi.o)
    0x0800054a   0x00000032   Code   RO         4670    .text               mf_w.l(dfixui.o)
    0x0800057c   0x00000030   Code   RO         4672    .text               mf_w.l(cdcmple.o)
    0x080005ac   0x00000030   Code   RO         4674    .text               mf_w.l(cdrcmple.o)
    0x080005dc   0x0000001e   Code   RO         4692    .text               mc_w.l(llshl.o)
    0x080005fa   0x00000020   Code   RO         4694    .text               mc_w.l(llushr.o)
    0x0800061a   0x00000024   Code   RO         4696    .text               mc_w.l(llsshr.o)
    0x0800063e   0x00000000   Code   RO         4707    .text               mc_w.l(iusefp.o)
    0x0800063e   0x000000ba   Code   RO         4710    .text               mf_w.l(depilogue.o)
    0x080006f8   0x00000088   Code   RO         4712    .text               mf_w.l(drnd.o)
    0x08000780   0x00000024   Code   RO         4714    .text               mc_w.l(init.o)
    0x080007a4   0x0000004a   Code   RO         1235    i.ADC_ConversionStop_Disable  stm32l1xx_hal_adc.o
    0x080007ee   0x00000002   PAD
    0x080007f0   0x0000000c   Code   RO         4102    i.AdcDeInit         adc.o
    0x080007fc   0x00000020   Code   RO         4103    i.AdcInit           adc.o
    0x0800081c   0x0000002c   Code   RO          243    i.AdcMcuConfig      adc-board.o
    0x08000848   0x00000048   Code   RO          244    i.AdcMcuInit        adc-board.o
    0x08000890   0x00000014   Code   RO          650    i.BlockLowPowerDuringTask  rtc-board.o
    0x080008a4   0x00000074   Code   RO          296    i.BoardDeInitMcu    board.o
    0x08000918   0x00000010   Code   RO          297    i.BoardDisableIrq   board.o
    0x08000928   0x00000018   Code   RO          298    i.BoardEnableIrq    board.o
    0x08000940   0x000000a8   Code   RO          303    i.BoardInitMcu      board.o
    0x080009e8   0x00000160   Code   RO          304    i.BoardInitPeriph   board.o
    0x08000b48   0x000000b6   Code   RO          305    i.BoardUnusedIoInit  board.o
    0x08000bfe   0x00000002   Code   RO         3318    i.BusFault_Handler  sysirqhandlers.o
    0x08000c00   0x00000002   Code   RO         3319    i.DebugMon_Handler  sysirqhandlers.o
    0x08000c02   0x00000004   Code   RO         4141    i.DelayMs           delay.o
    0x08000c06   0x00000010   Code   RO          413    i.EXTI0_IRQHandler  gpio-board.o
    0x08000c16   0x0000003a   Code   RO          414    i.EXTI15_10_IRQHandler  gpio-board.o
    0x08000c50   0x00000010   Code   RO          415    i.EXTI1_IRQHandler  gpio-board.o
    0x08000c60   0x00000010   Code   RO          416    i.EXTI2_IRQHandler  gpio-board.o
    0x08000c70   0x00000010   Code   RO          417    i.EXTI3_IRQHandler  gpio-board.o
    0x08000c80   0x00000010   Code   RO          418    i.EXTI4_IRQHandler  gpio-board.o
    0x08000c90   0x0000002c   Code   RO          419    i.EXTI9_5_IRQHandler  gpio-board.o
    0x08000cbc   0x0000000c   Code   RO         4168    i.FifoInit          fifo.o
    0x08000cc8   0x00000010   Code   RO         4169    i.FifoNext          fifo.o
    0x08000cd8   0x0000001c   Code   RO         4170    i.FifoPop           fifo.o
    0x08000cf4   0x00000014   Code   RO         4171    i.FifoPush          fifo.o
    0x08000d08   0x00000004   Code   RO          306    i.GetBoardPowerSource  board.o
    0x08000d0c   0x0000002c   Code   RO         3868    i.GetFskBandwidthRegValue  sx1276.o
    0x08000d38   0x0000001e   Code   RO         4217    i.GpioInit          gpio.o
    0x08000d56   0x00000102   Code   RO         3428    i.GpioIoeInit       gpio-ioe.o
    0x08000e58   0x00000100   Code   RO         3431    i.GpioIoeSetInterrupt  gpio-ioe.o
    0x08000f58   0x00000050   Code   RO         3432    i.GpioIoeWrite      gpio-ioe.o
    0x08000fa8   0x00000104   Code   RO          420    i.GpioMcuInit       gpio-board.o
    0x080010ac   0x00000108   Code   RO          423    i.GpioMcuSetInterrupt  gpio-board.o
    0x080011b4   0x00000014   Code   RO          425    i.GpioMcuWrite      gpio-board.o
    0x080011c8   0x0000001a   Code   RO         4220    i.GpioSetInterrupt  gpio.o
    0x080011e2   0x00000014   Code   RO         4222    i.GpioWrite         gpio.o
    0x080011f6   0x00000002   PAD
    0x080011f8   0x0000021c   Code   RO         4271    i.GpsConvertPositionFromStringToNumerical  gps.o
    0x08001414   0x00000090   Code   RO         4272    i.GpsConvertPositionIntoBinary  gps.o
    0x080014a4   0x00000058   Code   RO         4273    i.GpsFormatGpsData  gps.o
    0x080014fc   0x00000010   Code   RO         4279    i.GpsInit           gps.o
    0x0800150c   0x00000070   Code   RO          520    i.GpsMcuInit        gps-board.o
    0x0800157c   0x00000002   Code   RO          521    i.GpsMcuInvertPpsTrigger  gps-board.o
    0x0800157e   0x00000002   PAD
    0x08001580   0x00000060   Code   RO          522    i.GpsMcuIrqNotify   gps-board.o
    0x080015e0   0x0000003c   Code   RO          523    i.GpsMcuOnPpsSignal  gps-board.o
    0x0800161c   0x0000000c   Code   RO          525    i.GpsMcuStart       gps-board.o
    0x08001628   0x0000004c   Code   RO         4280    i.GpsNmeaChecksum   gps.o
    0x08001674   0x00000424   Code   RO         4281    i.GpsParseGpsData   gps.o
    0x08001a98   0x00000028   Code   RO         4282    i.GpsPpsHandler     gps.o
    0x08001ac0   0x00000104   Code   RO         1244    i.HAL_ADC_DeInit    stm32l1xx_hal_adc.o
    0x08001bc4   0x00000184   Code   RO         1250    i.HAL_ADC_Init      stm32l1xx_hal_adc.o
    0x08001d48   0x00000002   Code   RO         1252    i.HAL_ADC_MspDeInit  stm32l1xx_hal_adc.o
    0x08001d4a   0x00000002   Code   RO         1253    i.HAL_ADC_MspInit   stm32l1xx_hal_adc.o
    0x08001d4c   0x00000010   Code   RO         1103    i.HAL_DBGMCU_EnableDBGSleepMode  stm32l1xx_hal.o
    0x08001d5c   0x00000010   Code   RO         1104    i.HAL_DBGMCU_EnableDBGStandbyMode  stm32l1xx_hal.o
    0x08001d6c   0x00000010   Code   RO         1105    i.HAL_DBGMCU_EnableDBGStopMode  stm32l1xx_hal.o
    0x08001d7c   0x00000016   Code   RO         1107    i.HAL_Delay         stm32l1xx_hal.o
    0x08001d92   0x00000002   PAD
    0x08001d94   0x00000024   Code   RO          426    i.HAL_GPIO_EXTI_Callback  gpio-board.o
    0x08001db8   0x00000018   Code   RO         1698    i.HAL_GPIO_EXTI_IRQHandler  stm32l1xx_hal_gpio.o
    0x08001dd0   0x00000194   Code   RO         1699    i.HAL_GPIO_Init     stm32l1xx_hal_gpio.o
    0x08001f64   0x0000000a   Code   RO         1703    i.HAL_GPIO_WritePin  stm32l1xx_hal_gpio.o
    0x08001f6e   0x00000002   PAD
    0x08001f70   0x0000000c   Code   RO         1111    i.HAL_GetTick       stm32l1xx_hal.o
    0x08001f7c   0x00000144   Code   RO         1773    i.HAL_I2C_Init      stm32l1xx_hal_i2c.o
    0x080020c0   0x000001f4   Code   RO         1789    i.HAL_I2C_Mem_Read  stm32l1xx_hal_i2c.o
    0x080022b4   0x00000144   Code   RO         1792    i.HAL_I2C_Mem_Write  stm32l1xx_hal_i2c.o
    0x080023f8   0x00000002   Code   RO         1796    i.HAL_I2C_MspInit   stm32l1xx_hal_i2c.o
    0x080023fa   0x00000002   PAD
    0x080023fc   0x00000010   Code   RO         1112    i.HAL_IncTick       stm32l1xx_hal.o
    0x0800240c   0x00000016   Code   RO         1113    i.HAL_Init          stm32l1xx_hal.o
    0x08002422   0x00000002   PAD
    0x08002424   0x00000028   Code   RO         1114    i.HAL_InitTick      stm32l1xx_hal.o
    0x0800244c   0x00000002   Code   RO         1116    i.HAL_MspInit       stm32l1xx_hal.o
    0x0800244e   0x00000016   Code   RO         1481    i.HAL_NVIC_EnableIRQ  stm32l1xx_hal_cortex.o
    0x08002464   0x00000040   Code   RO         1487    i.HAL_NVIC_SetPriority  stm32l1xx_hal_cortex.o
    0x080024a4   0x00000024   Code   RO         1488    i.HAL_NVIC_SetPriorityGrouping  stm32l1xx_hal_cortex.o
    0x080024c8   0x00000018   Code   RO         2283    i.HAL_PWREx_EnableFastWakeUp  stm32l1xx_hal_pwr_ex.o
    0x080024e0   0x00000018   Code   RO         2285    i.HAL_PWREx_EnableUltraLowPower  stm32l1xx_hal_pwr_ex.o
    0x080024f8   0x00000010   Code   RO         2286    i.HAL_PWREx_GetVoltageRange  stm32l1xx_hal_pwr_ex.o
    0x08002508   0x00000018   Code   RO         2163    i.HAL_PWR_DisablePVD  stm32l1xx_hal_pwr.o
    0x08002520   0x00000038   Code   RO         2174    i.HAL_PWR_EnterSTOPMode  stm32l1xx_hal_pwr.o
    0x08002558   0x00000174   Code   RO         2449    i.HAL_RCCEx_PeriphCLKConfig  stm32l1xx_hal_rcc_ex.o
    0x080026cc   0x000001cc   Code   RO         2341    i.HAL_RCC_ClockConfig  stm32l1xx_hal_rcc.o
    0x08002898   0x0000000c   Code   RO         2346    i.HAL_RCC_GetHCLKFreq  stm32l1xx_hal_rcc.o
    0x080028a4   0x00000030   Code   RO         2348    i.HAL_RCC_GetPCLK1Freq  stm32l1xx_hal_rcc.o
    0x080028d4   0x00000030   Code   RO         2349    i.HAL_RCC_GetPCLK2Freq  stm32l1xx_hal_rcc.o
    0x08002904   0x0000008c   Code   RO         2350    i.HAL_RCC_GetSysClockFreq  stm32l1xx_hal_rcc.o
    0x08002990   0x00000738   Code   RO         2353    i.HAL_RCC_OscConfig  stm32l1xx_hal_rcc.o
    0x080030c8   0x00000002   Code   RO         2590    i.HAL_RTCEx_AlarmBEventCallback  stm32l1xx_hal_rtc_ex.o
    0x080030ca   0x0000007a   Code   RO         2598    i.HAL_RTCEx_DeactivateWakeUpTimer  stm32l1xx_hal_rtc_ex.o
    0x08003144   0x00000002   Code   RO         2483    i.HAL_RTC_AlarmAEventCallback  stm32l1xx_hal_rtc.o
    0x08003146   0x00000002   PAD
    0x08003148   0x0000005c   Code   RO         2484    i.HAL_RTC_AlarmIRQHandler  stm32l1xx_hal_rtc.o
    0x080031a4   0x000000b2   Code   RO         2486    i.HAL_RTC_DeactivateAlarm  stm32l1xx_hal_rtc.o
    0x08003256   0x0000006e   Code   RO         2620    i.HAL_RTC_GetAlarm  stm32l1xx_hal_rtc_ex.o
    0x080032c4   0x00000044   Code   RO         2487    i.HAL_RTC_GetDate   stm32l1xx_hal_rtc.o
    0x08003308   0x00000048   Code   RO         2621    i.HAL_RTC_GetTime   stm32l1xx_hal_rtc_ex.o
    0x08003350   0x0000009c   Code   RO         2489    i.HAL_RTC_Init      stm32l1xx_hal_rtc.o
    0x080033ec   0x00000002   Code   RO         2491    i.HAL_RTC_MspInit   stm32l1xx_hal_rtc.o
    0x080033ee   0x00000002   PAD
    0x080033f0   0x00000180   Code   RO         2623    i.HAL_RTC_SetAlarm_IT  stm32l1xx_hal_rtc_ex.o
    0x08003570   0x000000c8   Code   RO         2493    i.HAL_RTC_SetDate   stm32l1xx_hal_rtc.o
    0x08003638   0x000000e8   Code   RO         2494    i.HAL_RTC_SetTime   stm32l1xx_hal_rtc.o
    0x08003720   0x00000034   Code   RO         2624    i.HAL_RTC_WaitForSynchro  stm32l1xx_hal_rtc_ex.o
    0x08003754   0x00000028   Code   RO         2821    i.HAL_SPI_DeInit    stm32l1xx_hal_spi.o
    0x0800377c   0x0000007a   Code   RO         3057    i.HAL_SPI_Init      stm32l1xx_hal_spi_ex.o
    0x080037f6   0x00000002   Code   RO         2827    i.HAL_SPI_MspDeInit  stm32l1xx_hal_spi.o
    0x080037f8   0x00000002   Code   RO         2828    i.HAL_SPI_MspInit   stm32l1xx_hal_spi.o
    0x080037fa   0x00000018   Code   RO         1490    i.HAL_SYSTICK_CLKSourceConfig  stm32l1xx_hal_cortex.o
    0x08003812   0x00000002   Code   RO         1491    i.HAL_SYSTICK_Callback  stm32l1xx_hal_cortex.o
    0x08003814   0x00000028   Code   RO         1492    i.HAL_SYSTICK_Config  stm32l1xx_hal_cortex.o
    0x0800383c   0x00000008   Code   RO         1493    i.HAL_SYSTICK_IRQHandler  stm32l1xx_hal_cortex.o
    0x08003844   0x00000014   Code   RO          914    i.HAL_UART_ErrorCallback  uart-board.o
    0x08003858   0x000000d8   Code   RO         3096    i.HAL_UART_IRQHandler  stm32l1xx_hal_uart.o
    0x08003930   0x0000005e   Code   RO         3097    i.HAL_UART_Init     stm32l1xx_hal_uart.o
    0x0800398e   0x00000002   Code   RO         3099    i.HAL_UART_MspInit  stm32l1xx_hal_uart.o
    0x08003990   0x00000068   Code   RO         3102    i.HAL_UART_Receive_IT  stm32l1xx_hal_uart.o
    0x080039f8   0x0000003c   Code   RO          915    i.HAL_UART_RxCpltCallback  uart-board.o
    0x08003a34   0x00000054   Code   RO         3107    i.HAL_UART_Transmit_IT  stm32l1xx_hal_uart.o
    0x08003a88   0x00000040   Code   RO          916    i.HAL_UART_TxCpltCallback  uart-board.o
    0x08003ac8   0x00000028   Code   RO         1811    i.I2C_IsAcknowledgeFailed  stm32l1xx_hal_i2c.o
    0x08003af0   0x000000f0   Code   RO         1820    i.I2C_RequestMemoryRead  stm32l1xx_hal_i2c.o
    0x08003be0   0x000000a0   Code   RO         1821    i.I2C_RequestMemoryWrite  stm32l1xx_hal_i2c.o
    0x08003c80   0x0000004e   Code   RO         1824    i.I2C_WaitOnBTFFlagUntilTimeout  stm32l1xx_hal_i2c.o
    0x08003cce   0x00000060   Code   RO         1825    i.I2C_WaitOnFlagUntilTimeout  stm32l1xx_hal_i2c.o
    0x08003d2e   0x00000086   Code   RO         1826    i.I2C_WaitOnMasterAddressFlagUntilTimeout  stm32l1xx_hal_i2c.o
    0x08003db4   0x00000064   Code   RO         1827    i.I2C_WaitOnRXNEFlagUntilTimeout  stm32l1xx_hal_i2c.o
    0x08003e18   0x0000004e   Code   RO         1828    i.I2C_WaitOnTXEFlagUntilTimeout  stm32l1xx_hal_i2c.o
    0x08003e66   0x00000002   PAD
    0x08003e68   0x00000034   Code   RO         4400    i.I2cInit           i2c.o
    0x08003e9c   0x0000003c   Code   RO          585    i.I2cMcuFormat      i2c-board.o
    0x08003ed8   0x0000006c   Code   RO          586    i.I2cMcuInit        i2c-board.o
    0x08003f44   0x00000030   Code   RO          587    i.I2cMcuReadBuffer  i2c-board.o
    0x08003f74   0x00000030   Code   RO          589    i.I2cMcuWriteBuffer  i2c-board.o
    0x08003fa4   0x0000001c   Code   RO         4402    i.I2cReadBuffer     i2c.o
    0x08003fc0   0x00000014   Code   RO         4403    i.I2cResetBus       i2c.o
    0x08003fd4   0x0000003c   Code   RO         4405    i.I2cWriteBuffer    i2c.o
    0x08004010   0x00000010   Code   RO         4172    i.IsFifoEmpty       fifo.o
    0x08004020   0x00000018   Code   RO         4173    i.IsFifoFull        fifo.o
    0x08004038   0x00000038   Code   RO         3485    i.MAG3110Init       mag3110.o
    0x08004070   0x00000006   Code   RO         3486    i.MAG3110Read       mag3110.o
    0x08004076   0x00000002   PAD
    0x08004078   0x00000020   Code   RO         3487    i.MAG3110ReadBuffer  mag3110.o
    0x08004098   0x00000012   Code   RO         3488    i.MAG3110Reset      mag3110.o
    0x080040aa   0x0000000c   Code   RO         3490    i.MAG3110Write      mag3110.o
    0x080040b6   0x00000002   PAD
    0x080040b8   0x00000020   Code   RO         3491    i.MAG3110WriteBuffer  mag3110.o
    0x080040d8   0x00000044   Code   RO         3549    i.MMA8451Init       mma8451.o
    0x0800411c   0x00000076   Code   RO         3550    i.MMA8451OrientDetect  mma8451.o
    0x08004192   0x00000006   Code   RO         3551    i.MMA8451Read       mma8451.o
    0x08004198   0x00000020   Code   RO         3552    i.MMA8451ReadBuffer  mma8451.o
    0x080041b8   0x00000012   Code   RO         3553    i.MMA8451Reset      mma8451.o
    0x080041ca   0x0000000c   Code   RO         3555    i.MMA8451Write      mma8451.o
    0x080041d6   0x00000002   PAD
    0x080041d8   0x00000020   Code   RO         3556    i.MMA8451WriteBuffer  mma8451.o
    0x080041f8   0x0000005c   Code   RO         3623    i.MPL3115Init       mpl3115.o
    0x08004254   0x00000006   Code   RO         3624    i.MPL3115Read       mpl3115.o
    0x0800425a   0x00000002   PAD
    0x0800425c   0x00000020   Code   RO         3627    i.MPL3115ReadBuffer  mpl3115.o
    0x0800427c   0x0000000c   Code   RO         3637    i.MPL3115Write      mpl3115.o
    0x08004288   0x00000020   Code   RO         3638    i.MPL3115WriteBuffer  mpl3115.o
    0x080042a8   0x00000002   Code   RO         3320    i.MemManage_Handler  sysirqhandlers.o
    0x080042aa   0x00000002   Code   RO         3321    i.NMI_Handler       sysirqhandlers.o
    0x080042ac   0x00000020   Code   RO         1494    i.NVIC_SetPriority  stm32l1xx_hal_cortex.o
    0x080042cc   0x00000016   Code   RO         3366    i.Nibble2HexChar    utilities.o
    0x080042e2   0x00000002   PAD
    0x080042e4   0x0000000c   Code   RO          307    i.OnCalibrateSystemWakeupTimeTimerEvent  board.o
    0x080042f0   0x0000002c   Code   RO            4    i.OnRxDone          main.o
    0x0800431c   0x00000078   Code   RO         2354    i.RCC_SetFlashLatencyFromMSIRange  stm32l1xx_hal_rcc.o
    0x08004394   0x0000002c   Code   RO          651    i.RTC_Alarm_IRQHandler  rtc-board.o
    0x080043c0   0x00000012   Code   RO         2495    i.RTC_Bcd2ToByte    stm32l1xx_hal_rtc.o
    0x080043d2   0x00000016   Code   RO         2496    i.RTC_ByteToBcd2    stm32l1xx_hal_rtc.o
    0x080043e8   0x00000038   Code   RO         2497    i.RTC_EnterInitMode  stm32l1xx_hal_rtc.o
    0x08004420   0x000001d8   Code   RO          654    i.RtcComputeTimerTimeToAlarmTick  rtc-board.o
    0x080045f8   0x00000098   Code   RO          655    i.RtcComputeWakeUpTime  rtc-board.o
    0x08004690   0x0000012c   Code   RO          656    i.RtcConvertCalendarTickToTimerTime  rtc-board.o
    0x080047bc   0x0000003c   Code   RO          658    i.RtcEnterLowPowerStopMode  rtc-board.o
    0x080047f8   0x00000030   Code   RO          659    i.RtcGetAdjustedTimeoutValue  rtc-board.o
    0x08004828   0x00000058   Code   RO          660    i.RtcGetCalendar    rtc-board.o
    0x08004880   0x00000024   Code   RO          661    i.RtcGetElapsedAlarmTime  rtc-board.o
    0x080048a4   0x00000090   Code   RO          663    i.RtcInit           rtc-board.o
    0x08004934   0x00000040   Code   RO          664    i.RtcRecoverMcuStatus  rtc-board.o
    0x08004974   0x00000004   Code   RO          665    i.RtcSetTimeout     rtc-board.o
    0x08004978   0x00000094   Code   RO          666    i.RtcStartWakeUpAlarm  rtc-board.o
    0x08004a0c   0x00000094   Code   RO         3869    i.RxChainCalibration  sx1276.o
    0x08004aa0   0x0000002c   Code   RO          821    i.SX1276AntSwDeInit  sx1276-board.o
    0x08004acc   0x00000030   Code   RO          822    i.SX1276AntSwInit   sx1276-board.o
    0x08004afc   0x00000004   Code   RO          823    i.SX1276CheckRfFrequency  sx1276-board.o
    0x08004b00   0x00000014   Code   RO          824    i.SX1276GetPaSelect  sx1276-board.o
    0x08004b14   0x0000000c   Code   RO         3870    i.SX1276GetStatus   sx1276.o
    0x08004b20   0x000001f8   Code   RO         3871    i.SX1276GetTimeOnAir  sx1276.o
    0x08004d18   0x0000007c   Code   RO         3872    i.SX1276Init        sx1276.o
    0x08004d94   0x00000088   Code   RO          825    i.SX1276IoDeInit    sx1276-board.o
    0x08004e1c   0x00000088   Code   RO          826    i.SX1276IoInit      sx1276-board.o
    0x08004ea4   0x00000060   Code   RO          827    i.SX1276IoIrqInit   sx1276-board.o
    0x08004f04   0x00000036   Code   RO         3873    i.SX1276IsChannelFree  sx1276.o
    0x08004f3a   0x00000002   PAD
    0x08004f3c   0x00000250   Code   RO         3874    i.SX1276OnDio0Irq   sx1276.o
    0x0800518c   0x000000e4   Code   RO         3875    i.SX1276OnDio1Irq   sx1276.o
    0x08005270   0x000000cc   Code   RO         3876    i.SX1276OnDio2Irq   sx1276.o
    0x0800533c   0x0000005c   Code   RO         3877    i.SX1276OnDio3Irq   sx1276.o
    0x08005398   0x00000020   Code   RO         3878    i.SX1276OnDio4Irq   sx1276.o
    0x080053b8   0x000000e4   Code   RO         3880    i.SX1276OnTimeoutIrq  sx1276.o
    0x0800549c   0x0000003e   Code   RO         3881    i.SX1276Random      sx1276.o
    0x080054da   0x00000010   Code   RO         3882    i.SX1276Read        sx1276.o
    0x080054ea   0x00000002   PAD
    0x080054ec   0x00000048   Code   RO         3883    i.SX1276ReadBuffer  sx1276.o
    0x08005534   0x0000000a   Code   RO         3884    i.SX1276ReadFifo    sx1276.o
    0x0800553e   0x00000002   PAD
    0x08005540   0x00000044   Code   RO         3885    i.SX1276ReadRssi    sx1276.o
    0x08005584   0x0000003c   Code   RO         3886    i.SX1276Reset       sx1276.o
    0x080055c0   0x000000f8   Code   RO         3887    i.SX1276Send        sx1276.o
    0x080056b8   0x0000002c   Code   RO          828    i.SX1276SetAntSw    sx1276-board.o
    0x080056e4   0x0000001c   Code   RO          829    i.SX1276SetAntSwLowPower  sx1276-board.o
    0x08005700   0x00000044   Code   RO         3888    i.SX1276SetChannel  sx1276.o
    0x08005744   0x00000034   Code   RO         3889    i.SX1276SetMaxPayloadLength  sx1276.o
    0x08005778   0x00000078   Code   RO         3890    i.SX1276SetModem    sx1276.o
    0x080057f0   0x00000030   Code   RO         3891    i.SX1276SetOpMode   sx1276.o
    0x08005820   0x00000028   Code   RO         3892    i.SX1276SetPublicNetwork  sx1276.o
    0x08005848   0x000000a4   Code   RO          830    i.SX1276SetRfTxPower  sx1276-board.o
    0x080058ec   0x0000023c   Code   RO         3893    i.SX1276SetRx       sx1276.o
    0x08005b28   0x00000298   Code   RO         3894    i.SX1276SetRxConfig  sx1276.o
    0x08005dc0   0x00000028   Code   RO         3895    i.SX1276SetSleep    sx1276.o
    0x08005de8   0x00000028   Code   RO         3896    i.SX1276SetStby     sx1276.o
    0x08005e10   0x000000a4   Code   RO         3897    i.SX1276SetTx       sx1276.o
    0x08005eb4   0x00000208   Code   RO         3898    i.SX1276SetTxConfig  sx1276.o
    0x080060bc   0x00000098   Code   RO         3899    i.SX1276SetTxContinuousWave  sx1276.o
    0x08006154   0x00000040   Code   RO         3900    i.SX1276StartCad    sx1276.o
    0x08006194   0x0000000c   Code   RO         3901    i.SX1276Write       sx1276.o
    0x080061a0   0x00000048   Code   RO         3902    i.SX1276WriteBuffer  sx1276.o
    0x080061e8   0x0000000a   Code   RO         3903    i.SX1276WriteFifo   sx1276.o
    0x080061f2   0x00000002   PAD
    0x080061f4   0x0000001c   Code   RO         3736    i.SX1509Init        sx1509.o
    0x08006210   0x00000006   Code   RO         3737    i.SX1509Read        sx1509.o
    0x08006216   0x00000002   PAD
    0x08006218   0x00000020   Code   RO         3738    i.SX1509ReadBuffer  sx1509.o
    0x08006238   0x0000001e   Code   RO         3739    i.SX1509Reset       sx1509.o
    0x08006256   0x0000000c   Code   RO         3741    i.SX1509Write       sx1509.o
    0x08006262   0x00000002   PAD
    0x08006264   0x00000020   Code   RO         3742    i.SX1509WriteBuffer  sx1509.o
    0x08006284   0x00000038   Code   RO         3800    i.SX9500Init        sx9500.o
    0x080062bc   0x00000006   Code   RO         3802    i.SX9500Read        sx9500.o
    0x080062c2   0x00000002   PAD
    0x080062c4   0x00000020   Code   RO         3803    i.SX9500ReadBuffer  sx9500.o
    0x080062e4   0x00000012   Code   RO         3804    i.SX9500Reset       sx9500.o
    0x080062f6   0x0000000c   Code   RO         3806    i.SX9500Write       sx9500.o
    0x08006302   0x00000002   PAD
    0x08006304   0x00000020   Code   RO         3807    i.SX9500WriteBuffer  sx9500.o
    0x08006324   0x00000060   Code   RO          773    i.SpiDeInit         spi-board.o
    0x08006384   0x00000030   Code   RO          774    i.SpiFormat         spi-board.o
    0x080063b4   0x0000002c   Code   RO          775    i.SpiFrequency      spi-board.o
    0x080063e0   0x00000038   Code   RO          776    i.SpiInOut          spi-board.o
    0x08006418   0x00000110   Code   RO          777    i.SpiInit           spi-board.o
    0x08006528   0x0000000e   Code   RO          308    i.SysTick_Handler   board.o
    0x08006536   0x00000002   PAD
    0x08006538   0x0000009c   Code   RO          309    i.SystemClockConfig  board.o
    0x080065d4   0x000000c8   Code   RO          310    i.SystemClockReConfig  board.o
    0x0800669c   0x00000050   Code   RO          998    i.SystemInit        system_stm32l1xx.o
    0x080066ec   0x0000000e   Code   RO         4465    i.TimerInit         timer.o
    0x080066fa   0x00000002   PAD
    0x080066fc   0x00000024   Code   RO         4466    i.TimerInsertNewHeadTimer  timer.o
    0x08006720   0x00000050   Code   RO         4467    i.TimerInsertTimer  timer.o
    0x08006770   0x00000054   Code   RO         4468    i.TimerIrqHandler   timer.o
    0x080067c4   0x00000038   Code   RO         4469    i.TimerLowPowerHandler  timer.o
    0x080067fc   0x00000020   Code   RO         4471    i.TimerSetTimeout   timer.o
    0x0800681c   0x00000010   Code   RO         4472    i.TimerSetValue     timer.o
    0x0800682c   0x00000060   Code   RO         4473    i.TimerStart        timer.o
    0x0800688c   0x0000008c   Code   RO         4474    i.TimerStop         timer.o
    0x08006918   0x000000a6   Code   RO         3115    i.UART_Receive_IT   stm32l1xx_hal_uart.o
    0x080069be   0x00000002   PAD
    0x080069c0   0x000002a0   Code   RO         3116    i.UART_SetConfig    stm32l1xx_hal_uart.o
    0x08006c60   0x00000066   Code   RO         3117    i.UART_Transmit_IT  stm32l1xx_hal_uart.o
    0x08006cc6   0x00000002   PAD
    0x08006cc8   0x0000000c   Code   RO          917    i.USART1_IRQHandler  uart-board.o
    0x08006cd4   0x0000001a   Code   RO         4563    i.UartConfig        uart.o
    0x08006cee   0x00000010   Code   RO         4564    i.UartDeInit        uart.o
    0x08006cfe   0x0000000e   Code   RO         4566    i.UartGetChar       uart.o
    0x08006d0c   0x0000001a   Code   RO         4567    i.UartInit          uart.o
    0x08006d26   0x00000002   PAD
    0x08006d28   0x000000bc   Code   RO          918    i.UartMcuConfig     uart-board.o
    0x08006de4   0x00000050   Code   RO          919    i.UartMcuDeInit     uart-board.o
    0x08006e34   0x0000002e   Code   RO          920    i.UartMcuGetChar    uart-board.o
    0x08006e62   0x00000002   PAD
    0x08006e64   0x00000060   Code   RO          921    i.UartMcuInit       uart-board.o
    0x08006ec4   0x00000002   Code   RO         3322    i.UsageFault_Handler  sysirqhandlers.o
    0x08006ec6   0x0000000e   Code   RO         4750    i.__scatterload_copy  mc_w.l(handlers.o)
    0x08006ed4   0x00000002   Code   RO         4751    i.__scatterload_null  mc_w.l(handlers.o)
    0x08006ed6   0x0000000e   Code   RO         4752    i.__scatterload_zeroinit  mc_w.l(handlers.o)
    0x08006ee4   0x000000dc   Code   RO         4620    i.ceil              m_ws.l(ceil.o)
    0x08006fc0   0x000000dc   Code   RO         4624    i.floor             m_ws.l(floor.o)
    0x0800709c   0x00000088   Code   RO            5    i.main              main.o
    0x08007124   0x00000012   Code   RO         3367    i.memcpy1           utilities.o
    0x08007136   0x00000002   PAD
    0x08007138   0x00000094   Code   RO         4627    i.round             m_ws.l(round.o)
    0x080071cc   0x00000018   Data   RO          668    .constdata          rtc-board.o
    0x080071e4   0x0000005c   Data   RO          832    .constdata          sx1276-board.o
    0x08007240   0x00000019   Data   RO          999    .constdata          system_stm32l1xx.o
    0x08007259   0x00000008   Data   RO         1000    .constdata          system_stm32l1xx.o
    0x08007261   0x00000003   PAD
    0x08007264   0x000000e0   Data   RO         3905    .constdata          sx1276.o
    0x08007344   0x0000000c   Data   RO         4288    .constdata          gps.o
    0x08007350   0x00000020   Data   RO         4748    Region$$Table       anon$$obj.o


    Execution Region RW_IRAM1 (Base: 0x20000000, Size: 0x00000b18, Max: 0x00004000, ABSOLUTE)

    Base Addr    Size         Type   Attr      Idx    E Section Name        Object

    0x20000000   0x00000001   Data   RW            7    .data               main.o
    0x20000001   0x00000001   PAD
    0x20000002   0x00000006   Data   RW          313    .data               board.o
    0x20000008   0x00000002   Data   RW          528    .data               gps-board.o
    0x2000000a   0x00000001   Data   RW          591    .data               i2c-board.o
    0x2000000b   0x00000001   PAD
    0x2000000c   0x00000010   Data   RW          669    .data               rtc-board.o
    0x2000001c   0x00000001   Data   RW          833    .data               sx1276-board.o
    0x2000001d   0x00000002   Data   RW          924    .data               uart-board.o
    0x2000001f   0x00000001   PAD
    0x20000020   0x00000004   Data   RW         1001    .data               system_stm32l1xx.o
    0x20000024   0x00000004   Data   RW         1119    .data               stm32l1xx_hal.o
    0x20000028   0x00000002   Data   RW         3492    .data               mag3110.o
    0x2000002a   0x00000002   Data   RW         3557    .data               mma8451.o
    0x2000002c   0x00000002   Data   RW         3639    .data               mpl3115.o
    0x2000002e   0x00000002   Data   RW         3743    .data               sx1509.o
    0x20000030   0x00000002   Data   RW         3808    .data               sx9500.o
    0x20000032   0x00000002   PAD
    0x20000034   0x0000001c   Data   RW         3906    .data               sx1276.o
    0x20000050   0x00000001   Data   RW         4105    .data               adc.o
    0x20000051   0x00000007   PAD
    0x20000058   0x00000028   Data   RW         4295    .data               gps.o
    0x20000080   0x00000001   Data   RW         4406    .data               i2c.o
    0x20000081   0x00000003   PAD
    0x20000084   0x00000008   Data   RW         4475    .data               timer.o
    0x2000008c   0x00000034   Zero   RW            6    .bss                main.o
    0x200000c0   0x00000054   Zero   RW          246    .bss                adc-board.o
    0x20000114   0x000000c8   Zero   RW          311    .bss                board.o
    0x200001dc   0x00000038   Zero   RW          312    .bss                board.o
    0x20000214   0x00000040   Zero   RW          427    .bss                gpio-board.o
    0x20000254   0x00000118   Zero   RW          527    .bss                gps-board.o
    0x2000036c   0x00000034   Zero   RW          667    .bss                rtc-board.o
    0x200003a0   0x00000018   Zero   RW          831    .bss                sx1276-board.o
    0x200003b8   0x00000040   Zero   RW          923    .bss                uart-board.o
    0x200003f8   0x00000040   Zero   RW         3433    .bss                gpio-ioe.o
    0x20000438   0x0000027c   Zero   RW         3904    .bss                sx1276.o
    0x200006b4   0x00000063   Zero   RW         4287    .bss                gps.o
    0x20000717   0x00000001   PAD
    0x20000718   0x00000400   Zero   RW          987    STACK               startup_stm32l151xb.o


==============================================================================

Image component sizes


      Code (inc. data)   RO Data    RW Data    ZI Data      Debug   Object Name

       116         16          0          0         84       1620   adc-board.o
        44          8          0          1          0       1458   adc.o
      1244         66          0          6        256       7143   board.o
         4          0          0          0          0        766   delay.o
       116          0          0          0          0       3211   fifo.o
       762         48          0          0         64       6939   gpio-board.o
       594         22          0          0         64       2795   gpio-ioe.o
        76          0          0          0          0       1934   gpio.o
       282         48          0          2        280       3348   gps-board.o
      1964         84         12         40         99       7869   gps.o
       264         24          0          1          0       3981   i2c-board.o
       160         24          0          1          0       2633   i2c.o
       156         22          0          2          0       3872   mag3110.o
       180         32          0          1         52     398808   main.o
       286         22          0          2          0       4442   mma8451.o
       174         26          0          2          0       3786   mpl3115.o
      1580        144         24         16         52       9919   rtc-board.o
       516         22          0          0          0       3604   spi-board.o
        36          8        244          0       1024        852   startup_stm32l151xb.o
       162         30          0          4          0       5914   stm32l1xx_hal.o
       726         38          0          0          0       4083   stm32l1xx_hal_adc.o
       228         14          0          0          0      28925   stm32l1xx_hal_cortex.o
       438         40          0          0          0       2903   stm32l1xx_hal_gpio.o
      2076         28          0          0          0      11540   stm32l1xx_hal_i2c.o
        80         14          0          0          0       1125   stm32l1xx_hal_pwr.o
        64         14          0          0          0       1677   stm32l1xx_hal_pwr_ex.o
      2676        104          0          0          0       7108   stm32l1xx_hal_rcc.o
       372         12          0          0          0       1448   stm32l1xx_hal_rcc_ex.o
      1026         26          0          0          0       8049   stm32l1xx_hal_rtc.o
       742         10          0          0          0       4958   stm32l1xx_hal_rtc_ex.o
        44          0          0          0          0       2227   stm32l1xx_hal_spi.o
       122          0          0          0          0       1107   stm32l1xx_hal_spi_ex.o
      1440          6          0          0          0       6274   stm32l1xx_hal_uart.o
       720         46         92          1         24       9544   sx1276-board.o
      5436        356        224         28        636      23162   sx1276.o
       140         22          0          2          0       3719   sx1509.o
       156         22          0          2          0       3845   sx9500.o
        10          0          0          0          0       2305   sysirqhandlers.o
        80         18         33          4          0     124375   system_stm32l1xx.o
       554         36          0          8          0       5885   timer.o
       566         60          0          2         64       5259   uart-board.o
        82          0          0          0          0       2547   uart.o
        40          0          0          0          0       1591   utilities.o

    ----------------------------------------------------------------------
     26594       1512        664        140       2700     738550   Object Totals
         0          0         32          0          0          0   (incl. Generated)
        60          0          3         15          1          0   (incl. Padding)

    ----------------------------------------------------------------------

      Code (inc. data)   RO Data    RW Data    ZI Data      Debug   Library Member Name

       220         16          0          0          0         84   ceil.o
       220         16          0          0          0         84   floor.o
       148         12          0          0          0         88   round.o
         0          0          0          0          0          0   entry.o
         0          0          0          0          0          0   entry10a.o
         0          0          0          0          0          0   entry11a.o
         8          4          0          0          0          0   entry2.o
         4          0          0          0          0          0   entry5.o
         0          0          0          0          0          0   entry7b.o
         0          0          0          0          0          0   entry8b.o
         8          4          0          0          0          0   entry9a.o
        30          0          0          0          0          0   handlers.o
        36          8          0          0          0         68   init.o
         0          0          0          0          0          0   iusefp.o
        30          0          0          0          0         68   llshl.o
        36          0          0          0          0         68   llsshr.o
        32          0          0          0          0         68   llushr.o
        36          0          0          0          0         68   memcpya.o
        36          0          0          0          0        108   memseta.o
        30          0          0          0          0         80   strncmp.o
        48          0          0          0          0         68   cdcmple.o
        48          0          0          0          0         68   cdrcmple.o
       334          0          0          0          0        148   dadd.o
       222          0          0          0          0        100   ddiv.o
       186          0          0          0          0        176   depilogue.o
        62          0          0          0          0         80   dfixi.o
        50          0          0          0          0         76   dfixui.o
        34          0          0          0          0         76   dflti.o
        26          0          0          0          0         76   dfltui.o
       228          0          0          0          0         96   dmul.o
       136          4          0          0          0         92   drnd.o
        46          0          0          0          0         80   dscalb.o

    ----------------------------------------------------------------------
      2294         64          0          0          0       1920   Library Totals
         0          0          0          0          0          0   (incl. Padding)

    ----------------------------------------------------------------------

      Code (inc. data)   RO Data    RW Data    ZI Data      Debug   Library Name

       588         44          0          0          0        256   m_ws.l
       286         16          0          0          0        528   mc_w.l
      1420          4          0          0          0       1136   mf_w.l

    ----------------------------------------------------------------------
      2294         64          0          0          0       1920   Library Totals

    ----------------------------------------------------------------------

==============================================================================


      Code (inc. data)   RO Data    RW Data    ZI Data      Debug   

     28888       1576        664        140       2700     726166   Grand Totals
     28888       1576        664        140       2700     726166   ELF Image Totals
     28888       1576        664        140          0          0   ROM Totals

==============================================================================

    Total RO  Size (Code + RO Data)                29552 (  28.86kB)
    Total RW  Size (RW Data + ZI Data)              2840 (   2.77kB)
    Total ROM Size (Code + RO Data + RW Data)      29692 (  29.00kB)

==============================================================================

